:1000000000800010C9360000F9360000FB36000001
:10001000FD360000FF360000013700000000000040
:10002000000000000000000000000000FD3500009E
:100030000537000000000000673600009D36000014
:100040000B3700000B3700000B3700000B370000A8
:100050000B3700000B3700000B3700000B37000098
:100060000B3700000B3700000B3700000B37000088
:100070000B3700000B3700000B3700000B37000078
:100080000B3700000B3700000B3700000B37000068
:100090000B3700000B3700000B3700000B37000058
:1000A0000B3700000B3700000B3700000B37000048
:1000B0000B3700000B3700000B3700000B37000038
:1000C0000B3700000B3700000B37000010B5054C54
:1000D000237833B9044B13B10448AFF300800123F4
:1000E000237010BD7001001000000000BC4900002A
:1000F0000C4B43B10C4810B50C49AFF300800C48D1
:10010000036823B910BD0A48036833B97047094B27
:10011000002BF7D0BDE810401847064B002BF5D058
:10012000184700BF00000000BC4900007401001027
:100130006C0100100000000043680B7043681B0A4C
:100140004B70C3888B70C379CB7083680B718368E5
:100150001B0A4B7143898B71C37A0820CB7170479E
:100160000B7843604A7843EA022343608A7843EA83
:1001700002434360CA7843EA026343600B798360B9
:100180004A7943EA022383608A7943EA024383601F
:10019000CA7943EA026383600820704700487047C9
:1001A000DD45000000487047BC450000004870472E
:1001B0004E450000004870472D450000004870473C
:1001C0001A45000000487047F94400000048704795
:1001D0006745000000487047D84400000048704759
:1001E0000C46000000487047EB45000090F85C05A5
:1001F00070470023013821FA03F20833202B00F85E
:10020000012FF8D1704770B5064640680D4603F0DF
:1002100044FF044601462846FFF7EBFF224671687B
:10022000281D03F049FC201D70BD43682DE9F041F5
:100230000B7043680D461B0A4B70C3880A1D8B70F8
:10024000C3790446CB7000216068531B814202F1E0
:1002500004020FD2E36853F821300131180A02F882
:10026000043C02F8030C180C1B0E02F8020C02F8F6
:10027000013CE9E72269EA542169EA18090A517048
:10028000618A04339170E17C2B44D1700021226992
:100290005E1B914203F104030FD2A26952F82120A0
:1002A0000131100A03F8042C03F8030C100C120E91
:1002B00003F8020C03F8012CE9E70027E369AB55CA
:1002C000E269AB19120A5A70E28B04369A70E27F27
:1002D000DA70E3699F4214D2636A53F8270003F08F
:1002E000DCFE80460146A819FFF783FF636A0436E7
:1002F00053F82710A819424603F0DEFB46440137A5
:10030000E7E73046BDE8F081F8B50E4603790546CB
:1003100006F8013B80680F4603F0BFFE0446014625
:100320003046FFF766FF2246A968781D03F0C4FB3C
:10033000601DF8BD83882DE9F0410B708388054668
:100340001B0A4B7080680C4603F0A7FE0746014667
:10035000A01CFFF74EFF3A46A968A01D03F0ACFBB6
:10036000E86803F09AFE064607F1060801460A37D8
:1003700004EB0800FFF73DFF3246E968E01903F09F
:100380009BFB286903F089FE3E4407460146A019FD
:100390000436FFF72EFF3A46A019296903F08CFBBB
:1003A0006B693E44A3551A0A344462701A0C1B0E42
:1003B000A270E370301DBDE8F081002310B503602A
:1003C000013911F8012F02FA03F4026808332243BD
:1003D000202B0260F5D110BD37B50C4611F8013B5A
:1003E0000546037101A8FFF7E8FF019B621D581D38
:1003F000111B884204D912F8011B02F8021CF7E70E
:100400000022234404341A71AC6003B030BDF0B54F
:100410000C460B7885B083804A78064643EA02236F
:100420008380023101A8FFF7C8FF019FA31DBD1DF6
:100430001A1B954204D913F8012B03F8022CF7E795
:100440000022E3195A71631DB360611902A8FFF716
:10045000B4FF2B1D029D07F10A021D442244111B0B
:100460008D4204D912F8011B02F8021CF7E70022A2
:10047000013B6119234401F8012C03A8F360FFF745
:100480009CFF03980435284463191A1B904204D931
:1004900013F8012B03F8022CF7E70023013D221883
:1004A000254402F8013C3561937851781B0443EAF6
:1004B0000123215CD2780B4343EA02630430736169
:1004C00005B0F0BD2DE9F34143680D6804469D4237
:1004D0000E4604D9A900C06803F084FDE060002145
:1004E0006560321D6068931B814202F1040213D2E1
:1004F00012F8023C12F8030C1B0443EA002312F822
:10050000040C034312F8010C43EA0063E068A360A3
:1005100040F821300131E5E7F21895785078F15C28
:100520002D0445EA0025D2780D431F1D236945EAB5
:1005300002659D4204D9A900A06903F053FDA061A2
:1005400000212561F31922699D1B914203F10403E7
:1005500013D213F8022C13F8030C120442EA0022FF
:1005600013F8040C024313F8010C42EA0062A0697C
:10057000626140F821200131E5E773199F785978CD
:10058000725D3F04DB7847EA0127174347EA0367B8
:10059000E36904359F4204D9B900606A03F022FD83
:1005A0006062E7610027B846E3699F421AD2711979
:1005B00001A8FFF702FF2B1D019DF2181D44911B9E
:1005C000A94204D212F8011B02F8021CF7E77219C3
:1005D00002F8018C013B626A3344236242F82730FF
:1005E0000137E1E7284602B0BDE8F08137B50C4697
:1005F000054601A8FFF7E1FE019B221D181D111BF6
:10060000884204D912F8011B02F8021CF7E7002205
:1006100023440334DA706C6003B030BD30B50A4B4C
:1006200085B00446019300230293039354F8603B82
:1006300001AA1B680A2105469847204602F06EFD74
:10064000286705B030BD00BF4C44000000222DE9F2
:10065000F04105464FF40077294B86B00093294BB3
:10066000ADF80420029303930493059200F590647F
:1006700000F2E4462368BBB19A685868ADF80420DC
:100680001A68036802929B68984723680390586829
:100690000368DB68984721682B68049005971B68FE
:1006A0006A460969284698470434B442E2D14FF4B7
:1006B000007705F5A9662068C8B14368ADF8043035
:1006C0008368029303689B689847039020680368D7
:1006D000DB6898472B6804902068D3F80080036893
:1006E00005975B6898476A4601462846C047043428
:1006F000A642E0D1012385F85C3506B0BDE8F08163
:10070000644400009F460000F0B51F4B85B0019384
:1007100000230E46044600F1600528460293039329
:1007200002F0FCFC31464FF47A76226F871A01A85A
:10073000FFF716FDB7FBF6F2029B2846134406FBB3
:1007400012720293114F039B07FB0232039202F0D5
:10075000E5FCB0FBF6F3029A0399013AD21A6267FC
:100760000B4A06FB13030A44214607FB132304F13B
:10077000740041F8783F00F083FA284602F0CEFC7E
:10078000C4F8640505B0F0BD4C44000040420F00C1
:1007900000CA9A3B73B53F4C3F4B2046002540F8BA
:1007A000043B04233D4A3E4904F160068DE82800DD
:1007B0004FF4807300F038FB304602F0C5FC4FF474
:1007C000614330464FF40076E36502F07BFC32462D
:1007D000294604F1800025676567A567E56703F092
:1007E00090F932466426294604F5207003F089F911
:1007F0003246294604F5906003F083F932462946D3
:1008000004F2E44003F07DF9264BC4F87455C4F8B3
:1008100070350023C4F87855C4F87C55C4F8805569
:10082000C4F88435C4F88855C4F88C55C4F890557C
:10083000C4F894551C4A1D492046C4F84855C4F8CC
:100840004C55C4F85055C4F85455C4F8585584F85C
:100850005C55C4F86055C4F86455C4F8685584F80C
:100860006C5502F073FE124A124B134C1360134B7B
:1008700013495360134B204683E80600294618228B
:100880001D6103F03EF920460F4902B0BDE87040FB
:1008900000F00BBCB8010010C444000003C00920E4
:1008A00002C0092094440000C8000010410C000060
:1008B00050070010AC440000A00100109F4600004B
:1008C000D04400008C01001037C00920F0B5632926
:1008D00085B004460E4603DD90F85C55002D4DD0E2
:1008E000136804F287211B6810469847FF2384F899
:1008F0008032FE23C0F3072284F88132C3B284F829
:1009000082321344DB4384F8832284F88432052244
:10091000002384F8856246F3072684F8866204F291
:100920008521861DB24204DC11F8015B01322B44A3
:10093000F8E7DB4300F10805B5F5007F204480F8B7
:1009400087320CDC04F520773E460434F31B9D42CD
:1009500014DD16F8011B204600F0D3FAF6E7094B28
:1009600001AA019303238DF80830074B0721039355
:10097000236820461B6898474FF0FF35284605B08E
:10098000F0BD00BF7C440000834500002DE9F74F17
:10099000044600F16009484602F0C0FB42F6F82226
:1009A000D4F864350546C31A934284BF002384F803
:1009B0005C35D4F8483533B1D4F8683583423CBF50
:1009C0000023C4F848350027BA463E4604F1040B1C
:1009D00004F18008E36FE3B9584600F05FF910BBFB
:1009E00094F85C355BB140F6C412D4F86035EB1A6C
:1009F000934204D92046FFF711FEC4F86055002F3A
:100A000040F0D780BAF1000F14BF6FF00200002051
:100A1000A6E0484602F082FBE36F401B9842DBD918
:100A20006FF001009CE0584600F040F90028D7DB49
:100A3000D4F85835D4F848250344072AC4F8583563
:100A400010D1D4F854355A1C2344C4F8542583F8E3
:100A50008000D4F84C35013BC4F84C35002BB9D19B
:100A600008231CE0B2B9FF2807D10123C4F8483598
:100A700005F11403C4F86835ACE74846019202F06A
:100A80004DFB41F28833401B9842019AA2D984F869
:100A90005C25C5E7012A0FD1FE2803D10223C4F843
:100AA000483597E794F85C35C4F84865002B91D138
:100AB0002046FFF7B3FD8DE7022A09D10323C4F8CE
:100AC0004C05C4F85465C4F84835C4F8580581E7A6
:100AD000032A07D1D4F84C3503EB0020C4F84C05A9
:100AE0000423DCE7042A0BD15A42D2B2DBB258BF4E
:100AF0005342FF2B01D10523D1E7C4F8486569E7CC
:100B0000052A03D1C4F850050623DCE7062A0BD1D9
:100B1000D4F8503503EB00200723C4F85005C4F87F
:100B20004835D4F84C3599E7082A7FF453AF5A4238
:100B3000D2B2DBB258BF5342FF2BC4F848657FF4F2
:100B400049AFD4F8503573B92046FFF767FD20460A
:100B5000FFF77CFD4FF0FF30C4F86055C4F86455D2
:100B600003B0BDE8F08F0A2B05D141462046FFF7C0
:100B7000CBFD01272EE7062B08D1414604F5AE60D8
:100B8000FFF7A0FC012384F86C3523E70B2B04D17D
:100B900084F85C654FF0010A1CE704EB8303D3F88B
:100BA000540300283FF416AF036841461B6898477A
:100BB00010E76FF00300D3E71C4C80B5E16D201DFA
:100BC00002F012FB002304F27C42C4F84835C4F85A
:100BD0004C35C4F85435C4F8503552F8041F09BBDD
:100BE000134A03F590717D3344F821209360D4605B
:100BF000104C114E114F63691A6863681A420CBF9A
:100C0000E268226913600A4B7760D86899680268C5
:100C10001568094AA8470548FFF7B8FE012002F009
:100C200089FBE8E70133192BD7D1E1E7B8010010C0
:100C30008C010010A001001050070010CC00001023
:100C400010B50446034B40F8043B00F079F8204609
:100C500010BD00BFC44400000748084A08B5121A76
:100C6000002102F04EFF02F02BFC02F0E3FE02F046
:100C70002EFC02F06DFC00BF700100104C2400102F
:100C800030B50D68044C0268B5FBF4F31A4404FB5C
:100C9000135302600B6030BD00CA9A3B426B806BFD
:100CA000101A18BF0120704701207047034610B585
:100CB000826B016B501C9863885CDA6B9C6B013A09
:100CC000B4FBF2F102FB11429A6310BD034610B16E
:100CD00007C983E80700704770474268816812F0CF
:100CE000010F4FEA620203681CBF8858C358881876
:100CF0001847C36810B504460BB19B689847204657
:100D000010BD000070B50546074B064645F80C3B84
:100D100045B100F12C04AC4204D0103C2046FFF752
:100D2000E8FFF8E7304670BDF448000010B504460F
:100D3000FFF7E8FF204602F027FC204610BD000028
:100D400030B500250446124B85B003602A4669463B
:100D5000039502F09BFA6846FFF7CBFF0122694634
:100D60002046039502F092FA6846FFF7C2FF04F1AD
:100D7000400000F045F904F1300000F041F9054B66
:100D800020462360FFF7BEFF204605B030BD00BF00
:100D9000A8460000DC48000010B50446FFF7D0FF6D
:100DA000204602F0F1FB204610BD30B5044685B068
:100DB000051D284601F0AEFFF0B1626CA36C9A42AB
:100DC00010D0A36C226C591CA164D15CE36CA06CA4
:100DD000013BB0FBF3F203FB12032846A36401F0CE
:100DE000BFFFE6E70023204601226946039302F095
:100DF0004DFA6846FFF77DFF05B030BD10B586B0EF
:100E00008DE80C00019B02920393064B04919DF820
:100E1000202002A9059302F039FA02A8FFF769FF22
:100E200006B010BD1C4600007FB504461D464FF4B9
:100E30001653089E02F0C4F920460E4B294640F88E
:100E4000303B00F0ECF806FB05F104F1400000F047
:100E5000E6F8094B2046029300230393009304AB6A
:100E600013E90C002146FFF7C9FF2046256566659A
:100E700004B070BDA8460000E30E000070B5044643
:100E800086B0043001F046FFC0B1002602AD012259
:100E900029462046059602F0F9F92846FFF729FF72
:100EA0002046FFF782FF064B03960293012300932F
:100EB00095E80C0021462046FFF7A0FF06B070BD64
:100EC000AB0D00004368026810B55C1C4460D1544F
:100ED000C3684168013BB1FBF3F203FB12134360AB
:100EE00010BD38B5051D0446284601F00DFF38B188
:100EF000284601F0EFFEC1B204F13000FFF7E2FF37
:100F000038BD38B505460C464030C9B2FFF7DAFFA8
:100F10002846FFF7B3FF204638BD2DE9F0410746CC
:100F20000C46B1B10D4600F140082E4616F8011BE3
:100F300021B14046FFF7C6FF3546F6E70A21404695
:100F4000FFF7C0FF2C1B3846FFF798FF601CBDE879
:100F5000F0810846BDE8F0812DE9F04107460D46D5
:100F600091B1A2B10E468C1800F14008B44205D0F0
:100F700016F8011B4046FFF7A5FFF7E73846FFF7D5
:100F80007DFF601BBDE8F0810846BDE8F08110469A
:100F9000BDE8F0810EB42DE9F04185B0026D02AFDD
:100FA000D31D23F00703ADEB030D07F1240454F820
:100FB000048B02AE05460021304602F0A2FD224617
:100FC000414630467C6003F089F82B6D024683422F
:100FD0000CD200905D220848084900F044F9002036
:100FE0000C37BD46BDE8F04103B070473146284696
:100FF000FFF7B2FFF4E700BF664600002846000096
:1010000010B50446006808B102F0BAFA204610BDD7
:101010000021C26841608160006802F072BD38B58D
:10102000044608460D4602F09FFAE560206020461F
:10103000FFF7EEFF204638BD70B50E460446154654
:1010400001F0C4FB013609D02046002101F0D8FB95
:1010500029462046BDE8704001F0CFBB70BD38B5D1
:1010600004460D4643685AB1C26820461360012108
:1010700001F0C6FB29462046BDE8384001F0BDBB63
:101080000269F2E70322FFF7D7BF70B50E460446A8
:10109000154601F09BFB013606D02A462046BDE8E6
:1010A00070400221FFF7DBBF70BD0022FFF7EDBFEC
:1010B00000487047D4460000014800F003B800BF64
:1010C000D4460000036870B5DB680446984763683F
:1010D0005A6823681AB99B68BDE8704018475B6876
:1010E000156898476368281A00285A6807DC9168D1
:1010F00059601B68002BEAD050689847E7E72368DF
:1011000010681B69BDE87040184703685B681847A2
:1011100010B5044601300DD110BD9C4209D12046C6
:10112000896801F0E3FB2046BDE81040022101F090
:10113000F6BB0C310B685A1CEFD10248BDE81040D9
:1011400000F091B821470000884208B508D0431C40
:1011500006D0013106D0044800F085F84FF0FF3189
:10116000084608BD0146FBE7F04600000B685A1C24
:1011700001D118467047834201D1486870470C314D
:10118000F4E70000421C10B5044607D0FFF7EEFF5D
:10119000431C044602D1024800F065F8204610BD09
:1011A0000147000000F04CB808B500F049F838B12C
:1011B00000F04EF830B900F043F80028FBD108BD2C
:1011C0004FF0FF3008BDEFF31080C04300F0010086
:1011D0007047000008B5FFF7F6FF72B6064B1A68B5
:1011E00022B980F00100054AC0B210701A681A686E
:1011F00001321A6008BD00BF6407001060070010CC
:1012000008B5074B1A6852B1FFF7DDFF1A68013ABB
:101210001A601B681BB9034B1B7803B962B608BD83
:10122000640700106007001030B585B06D461824C3
:1012300020462946ABBE0446204605B030BD00001E
:10124000024B186800F00100704700BFF0ED00E0AD
:1012500037B540F2051401AD20462946ABBE044621
:10126000204603B030BD0FB4012008B502F070F97C
:1012700000B599B0FFF7AEFF17496846FFF715FFB5
:10128000164906A8FFF711FF15490CA8FFF70DFF37
:10129000144912A8FFF709FF019A039B96201A60D0
:1012A000079A0A9B1A600D9A109B1A60139A159B55
:1012B0001A6002F03FF8019A049B96201A60079A80
:1012C000099B1A600D9A0F9B1A60139A169B1A605D
:1012D00002F030F8E0E700BF32C0092034C0092036
:1012E00035C0092037C0092001F09ABA08B5024C70
:1012F00023689847FCE700BFDC00001008B50B48E6
:1013000000F08CFD0A4B18600A4800F087FD0A4B7C
:1013100018600A4800F082FD094B186002F08AFB51
:10132000BDE808400021084602F0D1B8804700001F
:10133000B41C00107C4700007007001078470000C4
:1013400068070010FFF7D2BF10B5044600F0D4FCC8
:101350002146BDE8104002460148FFF784BF00BFA8
:101360004047000002F012B90B4AF0B4C2F18053BA
:1013700003F50043B3F5806F194628BF4FF4806131
:10138000064F074D5B1A074C07489E183A602E60BF
:1013900023600160F0BC704750240010D019001089
:1013A00078070010CC1900107407001000F00AFE36
:1013B000FFF7DAFF0348002100F0B8FD00F01EFC43
:1013C000FEE70000E0000010024B4FF0FF3118680C
:1013D00000F042BD70070010014B186800F064BDBA
:1013E0007007001030B502788C78013A4368D2B2A9
:1013F00013B19D78A54207D2022A4B60416006D8FE
:1014000003B19960886030BD18465B68F0E700233F
:101410008B6030BD436802785968013A022A416006
:101420004FF0000205D809B188605A609A601846EA
:1014300070475A60FBE70000034B5A684260002285
:1014400058608260704700BFA8230010104B10B591
:10145000DA688AB19A8A8A42DC680CD3C460D860A0
:10146000C468036104B12061521A92B28282998ADF
:101470008A1A9A8210BD3CB900248A1AC460D860C6
:1014800003619A82848210BDA38A1A442346E2E74C
:10149000C02300102DE9F041174DEB6853B1002631
:1014A000AB8A164F013BDFF85880AB82AA8A0AB993
:1014B000EC680CB9BDE8F081A36833B1616859608C
:1014C000616809B18B606260A66021463846FFF70B
:1014D00089FFA38AAB826378042B01BFD8F8003060
:1014E000E28A9B18A38201236370E368EB600BB16F
:1014F0001D61E6602661D9E7C0230010A823001013
:101500003C24001083682BB142685A6042685AB18B
:1015100093607047054B5A68904202D142685A6006
:1015200070471346002AF6D1704700BFA823001069
:1015300010B5846801462CB94378012B0DD1074CB6
:1015400003E0A4682378002BFBD00846FFF7DAFFFE
:101550002046BDE81040FFF745BF10BDA82300108E
:10156000036910B563B1C268DA60C2684AB1998A8A
:10157000848A2144998213610023C360002303619C
:1015800010BD9A82FAE7000070B4114BDD78EFF3DA
:101590001086EFF3108272B69A78954211D9013213
:1015A0009A701A78541CA54208BF00241C7006B912
:1015B00062B6954207D970BC03EBC20358609960CC
:1015C0007047002EF4D070BC0220FFF7BDBE00BFF4
:1015D0002C1C0010054B1B7823B94FF08052044B94
:1015E0001A6070470122034B1A707047CC17001025
:1015F00004ED00E0CD17001038B51A4B1A4C1868EE
:1016000001234370FFF718FF6578A3783BB91748AB
:101610006570FFF7FFFEBDE8384000F0ADBD04EB9C
:10162000C503586802789AB9198900F00BFAE37873
:1016300001359D4208BF0025EFF31083EFF31082C0
:1016400072B6A278013AA270002BDED162B6DCE756
:10165000012A03D1996800F083F9E8E701F092F8D4
:10166000E5E700BFF42300102C1C0010A823001095
:10167000084B4FF0FF301A68074B1A6000225A607F
:10168000072243F8042C054A136843F07F43136094
:10169000704700BFA047000014E000E020ED00E02C
:1016A0007047000008B50B4B186801234370FFF723
:1016B000C3FE00F0FDF9084A136801331360FFF719
:1016C000E9FE00F0E1FC0548FFF7A4FEBDE8084094
:1016D00000F052BDF42300103C240010A823001099
:1016E000064B1A68136BD26A934203D81A68044BEC
:1016F0009A4202D00120FFF727BE7047F423001062
:10170000A52E5AE2F0B54FF080764FF0000E836AB6
:10171000056B9B0802BF1E4B1B889B0805EB8302D1
:10172000540748BF043A02E94200A2F14004A2F182
:101730004406A2F10C0746F804EFBE42FBD1C6698D
:1017400042F8206C41631249C4620968C90017D588
:10175000112B15D96FF00701103B5B084B43A3F128
:1017600038010A444FF0CC30214691420BD1083366
:101770001C44231F9D423CBF4FF0CC3344F8043C33
:10178000044B2B60F0BD41F8040C41F8080DECE768
:1017900088470000A52E5AE2C36A19627047C36ADF
:1017A00019625A627047002ABBBF22F0004207321A
:1017B000033222F00702A8BF22F0030210B5B4BF23
:1017C00010230C2392B1D4188C420FD80144034447
:1017D000544241600360826021449818814202D3E0
:1017E00000510346F9E70020186010BD012010BD2C
:1017F000EFF3108372B6026803F001030AB11168B7
:10180000016003B962B61046704781420DD3436848
:1018100099420AD2EFF3108372B602680A6001603F
:1018200013F0010003D162B6704701207047002019
:1018300070470123037000231039890843708370B7
:101840004360038143818381C181704770B585897D
:1018500004461646002D38D043891A1D50F8222020
:1018600001330A60C2899BB29A42438104BF0023BC
:1018700043814368F3B14378022B1BD1FFF7CAFDC4
:1018800005460021FFF788FF2389E9691A1D44F8FE
:1018900022100133E2899BB29A42238108BF0023C0
:1018A000284608BF2381FFF75BFE284600F07EFC38
:1018B000002070BDEFF31080EFF3108372B6013D8E
:1018C000A5810028F4D162B670BD4AB14268094BC7
:1018D00042B11968FFF786FD0821304600F088FC08
:1018E000012070BD1B6843605A60986001234370FB
:1018F000F2E700BFF4230010C2898089101A7047F4
:1019000008B5FFF741FEBDE80840FFF763BE8389D5
:1019100010B504460BB34389043350F823300B60F1
:101920004378022B04D10021FFF72EFEFFF752FE71
:10193000EFF31083EFF3108272B6A289013AA2810D
:1019400003B962B66389E28901339BB29A4263812B
:1019500001D100236381042010BD184610BD000092
:10196000436870B504460E46002B4BD04578022DD7
:1019700020D0032D0AD0012D61D1FFF74BFD044685
:1019800032461021FFF70BFF65700EE00846FFF7A7
:101990002FFF0546002852D02046FFF73BFD294681
:1019A0000446FFF7F9FE012363702046FFF7D8FDD8
:1019B000214622E0FFF72EFD05460021FFF7ECFE51
:1019C0002389E9691A1D44F82210EFF31082EFF31E
:1019D000108172B6A1890131A18102B962B6E28992
:1019E00001339BB29A42238104BF00232381012348
:1019F00028466B70FFF7B4FD2946BDE870401048DB
:101A0000FFF7F0BC8089E189884213D223891A1D2F
:101A100044F82260EFF31082EFF3108572B60130C4
:101A2000A08102B962B601339BB2994208BF00237C
:101A3000238170BD0320BDE87040FFF785BC70BDF9
:101A4000A823001010B5038B42781943062A0446D8
:101A50000183438B15D133EA010219D121EA030135
:101A600021832046FFF77CFD012320466370628BB3
:101A70000821FFF794FE2146BDE810400548FFF716
:101A8000B1BC052A04D111EA030201D04283E5E783
:101A900010BD00BFA82300100022034B1A60034AA8
:101AA0001268DA80704700BFE0230010844700000E
:101AB00008B50E4B5A680E4B196891420D4905D076
:101AC0001A60DA880868013A02449A8098880A887D
:101AD00090420AD1002205481A60FFF79BFCBDE83E
:101AE000084001460148FFF77DBC08BDA82300104F
:101AF000E02300103C24001030B500240A4A13688B
:101B000043B90360816013B19D68691A996044B15B
:101B1000206030BD9D68A942F3D31C46491B1B6859
:101B2000EEE7106030BD00BFF0230010C0B1431CD1
:101B300011D00C4B984211D84FF47A710A4B1B68A4
:101B40005A1E01FB0020B0FBF3F34FF6FE708342F8
:101B500006D898B270474FF6FF7070474FF6FE7088
:101B6000704700BF00093D003C47000038B18307C3
:101B700004D10378002B18BF002070470020704765
:101B8000B0B50E4D00AF2878A8B90D4C236893F876
:101B9000241000F04FFB2368DA78FF2A03D1DA6AB9
:101BA000203282F3098862680AB984E80C0000F0E8
:101BB000F9FC01232B700020B0BD00BFED23001005
:101BC000F4230010014B1878704700BFED2300107C
:101BD00010B5EFF3108434B9EFF305841CB9EFF3BB
:101BE0001484E40702D4034B187810BDDFF808C052
:101BF00000DF10BDED230010C51B000090B589B0BB
:101C000000AFEFF31083002B37D1EFF30583002BE8
:101C100033D1FFF7DDFF28B9194C246814B164688B
:101C200004B1A047EFF3148404F00304022C18D08D
:101C3000032C1CD0012C1ED007F1200484F309884A
:101C4000104C2478E40710D5022484F31488BFF3E1
:101C50004F8FBFF36F8FDFF830C000DF2437BD46F2
:101C600090BD084C2478E407F5D40324EDE7054C37
:101C70002478E407EFD5FF20F0E78220EEE700BFED
:101C8000DC2300106A470000811B000070B50B4682
:101C90001646024610B90024204670BD0068002890
:101CA000F9D0B2F90440E51CADB2062DF3D8D168E5
:101CB000C1B11269043444EA012100F0F9FA0028A4
:101CC000E9D00A4B013853F82040094AE36A5A63C5
:101CD000084B1B6843B19B6833B13146E0789847A5
:101CE000E063D9E70A46E5E7E663D5E7F01B0010B5
:101CF000791E0000DC23001008B500F093FA18B13B
:101D0000024B013853F8200008BD00BFF01B001043
:101D100010B5FFF72BFF044670B1084B1B681BB1D1
:101D2000DB680BB1C06B9847E07800F017FBFF2829
:101D30000CBF8120002010BD802010BDDC230010CE
:101D400008B528B1FFF7F2FE00F018FD402008BDED
:101D500008BD000010B5EFF3108434B9EFF305842B
:101D60001CB9DFF80CC000DF10BD822010BD0000E0
:101D7000411D0000830705D138B1436901691B6823
:101D80001846704700231946FAE70346FBE70000B0
:101D900010B504460846DFF80CC000DF84E80300F5
:101DA000204610BD751D000010B548B1046824B16F
:101DB000237823B9204600F03BFC204610BD0020CC
:101DC00010BD70B510F0030405460E4611D180B168
:101DD0000378032B0DD10846FFF7A8FE01462846DD
:101DE00000F09EFC012806D1002E14BFC1208120E6
:101DF00070BD802070BD204670BD820708B50AD135
:101E000048B10378032B06D100F01AFCFF280CBF61
:101E10008120002008BD802008BD000070B5054667
:101E2000EFF3108494B9EFF305867EB9EFF31484D1
:101E3000E40706D4064C24781CB9BDE87040FFF7CF
:101E4000B3BF2846DFF80CC000DF70BD002070BDB6
:101E5000ED230010A91D000010B5EFF3108434B974
:101E6000EFF305841CB9DFF80CC000DF10BD822041
:101E700010BD0000C31D0000084808B54FF0FF3139
:101E80000068FFF7E9FFDFF818C000DF0446FFF73E
:101E900069FA2046DFF80CC000DFFEE7E8230010F7
:101EA000F91C0000111D000010B5EFF3108434B9C7
:101EB000EFF305841CB9DFF80CC000DF10BD8220F1
:101EC00010BD0000FB1D00002DE9F04180460F46CB
:101ED0001646EFF3108404BBEFF30583D3B9EFF399
:101EE0001483DB0706D40E4B1B781BB9BDE8F04109
:101EF000FFF7CCBE0B4D4FF0FF312868FFF7ACFF6A
:101F0000404639463246DFF820C000DF04462868E4
:101F1000FFF7CAFF2046BDE8F0810024FAE700BFC2
:101F2000ED230010E82300108D1C00000022FFF7B5
:101F3000CBBF10B5044660B1016851B1406848B1EB
:101F4000037833B90431890089B2FFF772FC606805
:101F500010BD002010BD000038B5114C23780BB91E
:101F600000F0A6FAFF220F4B25781B689A708DB9F6
:101F700029460D48FFF7DDFF0C4B2A46186029461D
:101F80000B48FFF783FE0B4B18600B48FFF746FF2B
:101F90000A4B1860012300202370094B187038BDCC
:101FA000EC230010F423001070470000B01C001058
:101FB0008C470000A4230010A4470000E823001071
:101FC000ED23001010B5EFF3108474B9EFF305841E
:101FD0005CB9EFF31484E40703D4BDE81040FFF7C5
:101FE000BBBFDFF80CC000DF10BD822010BD0000B9
:101FF000591F00002DE9FF410C46804618B30378B5
:10200000012B25D10846FFF791FD02A90246404663
:10201000FFF71CFC012811D10020002C02460346CA
:1020200018BF4020029904460D4616461F4620461A
:10203000294632463B4604B0BDE8F0810020024606
:1020400003461020EEE78024054606460746EEE7E5
:10205000002580242E462F46E9E770B50E4614462B
:10206000054660B15AB90378012B08D1FFF744FC4B
:1020700038B128463146FFF743FC204670BD80202A
:1020800070BD812070BD0000F8B5114E34682CB1D0
:10209000A368104F013BA360A26802B1F8BD256898
:1020A000214638683560FFF7D8FF10B10420FFF7EC
:1020B0004BF96379012B07D1E1682046FFF71CFD3E
:1020C000002DEBD02C46E7E701232371F8E700BF92
:1020D000F0230010B01C00107FB5044616460846D9
:1020E00001B122B180232360204604B070BD0B787B
:1020F000012BF7D102A9FFF70AFC042808BF10231F
:1021000001AD14BF0196019395E8070084E807002C
:10211000EAE7000038B504461546EFF3108010B921
:10212000EFF3058028B12A462046FFF7D5FF204669
:1021300038BD08461146DFF80CC000DF84E8070010
:10214000F5E70000F51F00007FB50A4C4FF0FF32A5
:10215000216803A8FFF7DEFF039B102BF6D104993B
:1021600001A8FFF715FE019B002BEFD002989847BE
:10217000ECE700BFB01C0010054B58600223437011
:10218000044B1B681BB11B690BB1C06B1847704730
:10219000F4230010DC23001008B50348FFF73AF9D8
:1021A000BDE80840FFF7E8BFA823001070B504465B
:1021B00018B9BDE87040FFF7EFBF0B4EA27830684A
:1021C000012583789A4208D9FFF736F9336820460B
:1021D0005D70BDE87040FFF7CFBF65702146BDE878
:1021E00070400248FFF7FEB8F4230010A823001047
:1021F00038B50D46014680B14FF6FF739842074C43
:1022000002D02068FFF722F9236805485D70FFF7C8
:1022100001F9BDE83840FFF7AFBF38BDF423001027
:10222000A8230010024B186800B1C078704700BFA7
:10223000F423001010B5A8B9194B1B68997083F8E6
:102240002410184843689B788B4201D8002010BDA9
:10225000134C2168FFF7C6F8012223685A70FFF774
:102260009BFFF3E7104B1B88984217D80F4B0138A0
:1022700053F8204094B10A4BA1701B6884F82410D5
:102280009C42DED02046FFF753F96378012BDDD165
:102290000448FFF7BFF8FFF789FFD7E7FF2010BD1D
:1022A000F4230010A82300106C470000F01B00105E
:1022B0002DE9F0470D4611F0FF0F804623481646E2
:1022C0009A4608BF0135FFF793FA044620B94FF04C
:1022D00000094846BDE8F08700211D4B06631B88B6
:1022E000280A1C4EA0628B4201F10109EFD006EBD7
:1022F000890252F8042C0F464946002AF3D10123E3
:10230000EDB284F80390C4F81CA0C4F838A0227081
:102310006370A57084F824506260A260E26022615C
:102320002262A282E2822283628384F8252018B985
:102330000948FFF75DFA206320464146FFF7E2F9BE
:10234000204646F82740FFF731FFC2E7D81F0010AC
:102350006C470000F01B0010E01900102DE9F84F49
:102360004D4D18B12B68DB78984241D100232C6881
:102370000127637001F017F9E062FFF7B1F92B68EC
:10238000DFF828811C6AA4B92A684449D3784448F4
:10239000013B41F82340116BFFF737FA29684148A8
:1023A0000C63FFF732FA2C60FFF7F6FE2046BDE81B
:1023B000F88F6368B3B12046FFF72CF8064600217A
:1023C000FFF7EAF93046FFF7CBF877703146404621
:1023D000FFF708F8E368326A6780A660E26034625B
:1023E0001C46D0E7E2686380A360E3601446CAE756
:1023F0002D4B1B8898424DD8284B471E53F8276019
:102400009946002E46D04FF0010A3046FFF77AF881
:102410003046FFF7A5F8DFF894B0346AB4B9316BF1
:102420001F4849F82740FFF7F0F9314634631D484B
:10243000FFF7EBF91D48296843689A788B789A4230
:10244000B4D901234B70FEF7CDFFADE76368DBB174
:102450002046FEF7DFFF80460021FFF79DF940464A
:10246000FFF77EF888F801A041465846FEF7BAFF0C
:10247000E368D8F82020A4F802A0C4F80880E2603D
:10248000C8F820401C46C9E7E2686380A360E360A7
:102490001446C3E7FF2489E7F4230010F01B001063
:1024A000E0190010D81F00106C470000A82300108E
:1024B00038B52C4B2C491A880023184693424DD32B
:1024C0002A4B402219882A48FFF76DF9294B2A48E0
:1024D0001A882A4B42F000421968FFF764F9284B2A
:1024E00008221988274B284C1868FFF75CF9FF234E
:1024F0000025E370012320486370A5622570A57054
:1025000084F824506560A560E56025612562A58298
:10251000E5822583658384F82550FFF769F91B4917
:1025200020632046FFF7EEF80422194B20461A706C
:102530005D60184B1A70DD601D619D82164B1C603A
:1025400002236370FFF718FE144A154B12781D70B2
:102550005D70DA70BDE83840FFF79EBA41F823009D
:102560000133ABE76C470000F01B00103847000058
:10257000D81F001088470000E01900103447000001
:102580003A4700006C070010FC23001045130000C0
:10259000A8230010C0230010F42300106947000096
:1025A0002C1C001008B51E4B1A6842F47F021A60FA
:1025B0001B681B0203F07F43DB43B3FA83F3194A22
:1025C000DBB21268C3F10803C2F30222934298BF40
:1025D000531C6FF08072144802FA03F3016803F091
:1025E0007F4321F07F4213430360FFF741F80F4B15
:1025F0000028186012DBFF22012100F1604000F585
:10260000644002701A6853099B0003F1604302F0B2
:102610001F0203F5614301FA02F21A6008BD00BF10
:1026200020ED00E00CED00E01CED00E0D8230010F0
:10263000032303700023438043608360C3607047BB
:102640002DE9F84343880546002B63D0324F81685B
:102650003A6891425ED1013B9BB243801BB100249A
:102660002046BDE8F8830B6A984229D1C3680B6203
:1026700091F824300C6A5CBB8B706A68DFF89C8030
:10268000002A3BD02846FEF7C5FE06464FF001095A
:102690002146FFF781F83046FEF762FF336A39685A
:1026A000EB60D8F80430A5F80290AE6035628A7805
:1026B0009B789A4214D33046FFF778FDD0E7134653
:1026C000002BD5D0DA689542F9D1EA68DA60CFE715
:1026D00062681AB19278934238BF1346E468CAE739
:1026E0004046FEF77FFE31464046FEF77BFE3B68E4
:1026F00083F8019086F801902046DDE7D8F80420A1
:1027000092789A42ABD94046FEF76CFE01223B68B4
:102710005A70F1E7FF24A3E7F4230010A823001068
:10272000438870B504460E46134D43B92A68116AB2
:102730008260C160106201336380002070BD8068D8
:102740002A689042F7D081B1937882789A4202D277
:102750008370FEF7EDFE62684AB129682046FEF7F5
:1027600041FE09213046FFF743FD012070BD2B6873
:1027700063605A609C60F4E7F42300100321FFF7C4
:1027800037BD0000426810B57AB1FEF743FE04463B
:10279000FEF7E6FE012120466170FEF7FDFF2146AF
:1027A000BDE810400348FEF71DBE4288013242805A
:1027B00010BD00BFA823001010B50021044600F092
:1027C00095F8012004F01F04A04010BD38B505465F
:1027D0004B1C0C4629600FD00846FFF7EDFF24F094
:1027E0001F0404F11803EB6004F11C032B6104F1D6
:1027F000140368606B61AC6038BD006800F08FB88E
:1028000011B1012907D0704782684168136823EA33
:102810000103136070478268416813680B43F8E74F
:1028200008B5FEF7C1FC0022044BC3F8C020044ADF
:10283000136923F00403136130BF08BD00C00F40CB
:1028400000ED00E008B5104B1868E0B901210F4A0F
:102850001960D2F8C43043F40003C2F8C430A2F5C2
:10286000D022106702200A4B1B6850600948B3FB56
:10287000F0F3013BD36004205160074900F0B0FB46
:102880001022064B1A6008BDE017001000C00F4070
:10289000F400001000093D00B910000000E100E064
:1028A00008B5044B1B680BB9FFF7CCFF024B9868C7
:1028B00008BD00BFE017001000400940034B9861BD
:1028C0005A6942F001025A61704700BF0040094056
:1028D000024A536923F001035361704700400940E5
:1028E0000122014B1A6070470040094010B50324D3
:1028F00000F16040A0F51C2043000009800000F1B9
:10290000804000F53030026803F01E039C4022EA4C
:1029100004020260026899401143016010BD00F199
:102920006040A0F51C2043099B0003F1804303F5A0
:10293000303330B500F01F029C6EC1F3800505FAFC
:1029400002F224EA02049C669C6E22439A6695B9C0
:10295000032443000009800000F1804000F530307E
:10296000026C03F01E039C4022EA04020264026C23
:1029700099401143016430BD012810B408D00228E9
:1029800008D010BC7047506820F00100506010E083
:1029900003460EE038230F4803FB0103586801305B
:1029A00006D018699C68046093F83630002BEAD092
:1029B0000023382251430748421840580028E0D0ED
:1029C0001BB992F83620002ADBD0034A1946126858
:1029D00010BC1047EC170010E4170010034A002148
:1029E0009068C0F34200FFF7C7BF00BF00C00040BF
:1029F000034A01219068C0F34200FFF7BDBF00BF4A
:102A000000000140034A02219068C0F34200FFF732
:102A1000B3BF00BF00800940034A03219068C0F3A0
:102A20004200FFF7A9BF00BF00C0094070B50B46C8
:102A3000066829498E4222D006DCA1F580418E42EB
:102A40000CD000210C460BE024498E421AD001F52F
:102A500080418E42F5D12249082401E00524214914
:102A60009AB10125726805FA03F313437360204697
:102A700000F0B6FA1C4B05FA04F41C6070BD1B494B
:102A80000624EDE71A490724EAE7012B0AD0426839
:102A90003820184900FB021292F8361092F83520BF
:102AA000D14217D1012202FA03F0B3FA83F371681D
:102AB0005B0921EA00017160716802FA03F30B42BD
:102AC00008D1094B02FA04F4C3F88040BFF34F8FDA
:102AD000BFF36F8F70BD00BF000001400080094050
:102AE000192A0000DD29000000E100E0F1290000C2
:102AF000052A0000EC1700102DE9F04F644B046824
:102B000087B09C4200F08D806ADCA3F580439C4234
:102B100079D0604B0801D3F800C0BCFBF0F293B24F
:102B200000FB12C2002A00F0AA800125E646994661
:102B3000AB464FF0000A0191039100264FEA4E0385
:102B40000493DDF804804FEA8E03EFB20593F3B2ED
:102B50000093049B002BABBF059BB3FBF8F3B3FBC7
:102B6000F8F31B09A8BF5B090133C3F34F03002B24
:102B700000F0888016B1012B08BF0223A819584322
:102B8000C000BEFBF0F00130C1EB50000028B8BF20
:102B900040420290029A0398824262DA91425AD1EC
:102BA0000F2D07D1BB469946DDF800A05F464B4686
:102BB000CDF800A0217B41F080012173C3F30721F0
:102BC000DBB221712370009B43EA0712D2B284F872
:102BD0002820237B03F07F03237307B0BDE8F08F29
:102BE0002D4B9C4229D003F580439C4291D12B4B25
:102BF000D3F8AC2122F44022C3F8AC21D3F8AC21A5
:102C000042F4802224E0254BD3F8A82122F0C00210
:102C1000C3F8A821D3F8A82142F04002C3F8A821A4
:102C200077E71E4BD3F8A82122F44072C3F8A821FD
:102C3000D3F8A82142F48072F0E7184BD3F8AC2106
:102C400022F44032C3F8AC21D3F8AC2142F48032F4
:102C5000C3F8AC215DE7BB469946029ADDF800A0B7
:102C600003920136F3B2BB428844FFF470AF0F2DDC
:102C70009CD0019B01350B44E64401935DE701279D
:102C8000009297E7002E0CBF0123022376E700BFD6
:102C900000000140F40000100080094000C00F4017
:102CA000034B1960382341684B430249CA507047AF
:102CB000E4170010EC17001030B431B93825436820
:102CC000034C05FB034383F8362030BCFFF7AEBE50
:102CD000EC17001010B50268137DDB07FCD5382413
:102CE00043680848117804FB03035868C9B20130EF
:102CF00006D058699B680360536843F00103536032
:102D0000084610BDEC1700100368187D00F00100A4
:102D1000704700003821114A436801FB0323DA6938
:102D2000013209D01A6B1B6A12681A4214D1036867
:102D3000187DC0F3801070470268127D920604D59A
:102D40000022012083F83420704793F834000F28C4
:102D50008CBF00200120704700207047EC17001046
:102D600038B504460D462046FFF7D4FF0028FAD0B8
:102D700038212368EDB21D706368044A01FB032308
:102D800093F83420013283F8342038BDEC1700105A
:102D90002DE9F84F9A463C4C03680546A34218BFFC
:102DA00000248946904647681CB1237C03F03F030A
:102DB000237438234FF0FF32344E284603FB076359
:102DC000DA615A60002283F835201146FFF72EFEA3
:102DD000B9F1000F55D02E494046FEF7C7F92D49ED
:102DE00083465046FEF7C2F9A9F10203012B1BD816
:102DF000BAF1FF3F0BD0244B98420DD164B1237C34
:102E0000244943F0800323745046FEF781F9B9F159
:102E1000030F0CD0BDE8F88F382000FB0760514647
:102E20001C30FEF72FF9F2E7B9F1010F29D1B8F103
:102E3000FF3F01D1BDE8F88F07222B681A72124BB1
:102E40009B450AD14CB1237C404643F04003237498
:102E50000F49BDE8F84FFEF75BB9382404FB076063
:102E6000414600220430FEF710F901226B68284623
:102E700004FB036686F835200021BDE8F84FFFF714
:102E8000D5BDBDE8F88F00BF00000140EC17001071
:102E9000CC470000A84700002DE9F0410F46054649
:102EA000464938461646FEF76DF945490446304610
:102EB000FEF768F901462046FEF746F9414B044605
:102EC000984228605DD047D8A3F58043984250D0FF
:102ED00001234FF0000823724FF416512846C4F81E
:102EE0000480FFF709FE03222B6834491A73384621
:102EF000FEF70EF932493046FEF70AF97A1C03D084
:102F000041463846FFF70BFD731C03D000213046C5
:102F1000FFF705FD2B4B9C424BD03ED8A3F58043D9
:102F20009C4243D038216A68274B284601FB023275
:102F30004FF0FF3300215360D3611A46FFF728FF9B
:102F4000224B9C4206D10122214B69681A602868F5
:102F5000204B03C3BDE8F0811F4B984217D003F507
:102F600080439842B4D11D4AD2F8C43043F0007374
:102F700004E01A4AD2F8C43043F00803C2F8C4305F
:102F8000A6E7164AD2F8C43043F01003F6E7134A16
:102F9000D2F8C43043F08073F0E70F4B9C420AD064
:102FA00003F580439C42BDD1032300E000236B6006
:102FB000B8E70123FBE70223F9E700BF5C48000004
:102FC000F047000000000140EC17001000C0004076
:102FD000E8170010402400100080094000C00F4096
:102FE00030B50C4CA268A4681346B4F1805F0CD2D3
:102FF000131F094C094A53F8045F42F8045FA242C8
:10300000F9D14FF08053034A9360103043F82010F9
:1030100030BD00BF00ED00E0C0000010FCFFFF0F5E
:103020002022264BC3F8A021D3F8A021920603D575
:10303000D3F8A0215006FBD50222C3F804210022B8
:103040000120C3F8A821C3F8AC210B22C3F80C015E
:10305000AA21C3F884205522C3F88C10C3F88C2011
:10306000C3F88000C3F88C10C3F88C20134B1A46A9
:10307000D3F888104901FBD50321C3F88010AA2199
:10308000C3F88C105521C3F88C10D2F8883013F097
:10309000407FFAD00523C2F80831094BC2F8C4308A
:1030A0000023C2F8C831136823F4704323F03A03B5
:1030B00043F4405343F03A031360704700C00F409D
:1030C000DE87280410B50446FEF784F823682BB980
:1030D000E068FEF71AF8012360602360BDE8104045
:1030E000FEF78EB838B50546FEF774F82C6824B1A3
:1030F000E868FEF70AF86C68041BFEF781F82046C2
:1031000038BD38B50546FEF765F82846AC68FFF7C8
:10311000E9FF0444FEF774F8204638BD08B5FFF710
:10312000F0FF4FF47A7390FBF3F008BD10B504463E
:10313000FEF750F8E068FDF7E8FF00236060A36049
:10314000BDE81040FEF75CB8002310B50360436093
:1031500083600446FDF7ACFFE0602046FFF7E6FF22
:10316000204610BD0368184708B10B68036070471C
:103170007047884238B504460D460AD0FDF7B9FDC0
:103180003CB1EB681BB15B68294620469847EB6869
:10319000E360204638BD704710B50446024B03601B
:1031A000FDF7B0FD204610BDDC48000010B5044618
:1031B000FFF7F2FF204600F0E7F9204610BD0000BF
:1031C00010B5044600F024F8014B2046236010BDE2
:1031D000DC48000070477047704700EB01129369AC
:1031E00002F10C001B68184770B505460E460446F0
:1031F00055F8043B1B68984728463146FFF77CFC8E
:103200002368E6622046BDE870405B68184700000E
:103210002DE9FF410F46002104469046174A184EFB
:10322000184DC362026041608160816181626946BC
:103230000C3003950096FFF79CFF6846FDF759FD9B
:10324000694604F11C0003950096251DFFF791FFC8
:103250006846FDF74EFD424639462846FFF71CFEFC
:10326000E16A2846FFF748FC284622460649FFF750
:1032700017FD204604B0BDE8F08100BFF44800000F
:10328000D5310000C8480000DB3100002DE9FF41C6
:1032900005468846164655F8043B04461B68984781
:1032A000FDF798FFD8F80C70300197B10C3041460B
:1032B0002044FFF75EFF012231462846FFF7FCFC61
:1032C000FDF79EFF236820465B68984704B0BDE881
:1032D000F081074B0C300093064B69462044039362
:1032E000FFF747FF6846FDF704FD3A46E4E700BFF5
:1032F000D5310000C848000000F058BC00F0B4BC54
:1033000000F008BC70B505464FF47A74FFF7C8FAB0
:1033100095FBF4F4002C064602DDFDF754FF28B9B6
:10332000FFF7BEFA801BA842FAD370BD204600F01A
:1033300035F9F5E74FF47A735843FFF7E3BF000020
:1033400008B5084B1B685BB907490848084AFFF7EE
:10335000A3FD4FF41651BDE808400448FFF7CCBB6D
:1033600008BD00BFE817001002C00920402400106B
:1033700003C0092070470000022810B5044601DC94
:10338000002010BD00F0C2F9092300220360094BA0
:10339000033C53F8240043F8242040B103681B6920
:1033A0009847041EECDA00F0B1F9644204604FF073
:1033B000FF3010BDCC180010F8B505460E46144677
:1033C00000F0A4F90923022D03600FDC124B1B68E7
:1033D0000BB9FFF7B5FF35463719104EBD4215D072
:1033E00015F8011B3046FFF7BBFCF7E70C4B033D1C
:1033F00053F8250060B103682246DB6831469847E0
:10340000041E03DA00F082F9634203602046F8BD2F
:103410004FF0FF34FAE700BFE81700104024001017
:10342000CC18001070B504460D46164600F06EF933
:103430000923022C03600BDC0F4B1B680BB9FFF751
:103440007FFF0E48FFF746FC01242870204670BD20
:103450000B4B033C53F8240058B1036832469B6879
:1034600029469847041EF1DA00F050F963420360E0
:10347000ECE74FF0FF34E9E7E817001040240010B4
:10348000CC18001070B504460D46164600F03EF903
:103490000923022C03600BDD084B033C53F8240086
:1034A00040B1036832462946BDE87040DB691847E1
:1034B000002070BD4FF0FF3070BD00BFCC18001071
:1034C00008B5FFF757FFFDF771FF08BD704708B556
:1034D000FFF7FCFFBDE80840FDF76EBB0C4A10B5D6
:1034E00013681844EFF30881884205D30C22094B76
:1034F0004FF0FF301A6010BD07490C6824B107492E
:10350000096821448842F1D21060184610BD00BFFE
:10351000F800001048240010CC190010D019001039
:10352000094C08B523680546986800F0A7F9236898
:10353000D86800F0A3F9FDF735FE08B1FDF774FE79
:103540000DB1FDF795FEFEE7FC000010012070476D
:1035500008B5FFF7E5FF08B5FDF736FF08BD08B56C
:10356000FDF73AFF08BD000010B500F087FA0446E9
:1035700010B90248FDF777FE204610BD044900004F
:1035800008B100F083BA7047FFF7FABF024B1B681F
:1035900003B11847704700BFD4190010FEF7DABB1B
:1035A00080F309887047EFF309807047684680F31D
:1035B00009883F480078C00714BF0220032080F329
:1035C00014887047DFF8ECC0EFF305831B0618BFC3
:1035D0006047EFF31483DB0708BF604700DF7047E5
:1035E000DFF8D4C0EFF305831B0618BF6047EFF385
:1035F0001483DB0708BF604700DF7047EFF30980E3
:10360000816911F8021CF1B990E80F10E047EFF35F
:10361000098C8CE80700294B93E8060091420FD0F3
:1036200039B12CE9F00FC1F82CC00CB4FEF758F8F2
:103630000CBC1A60D2F82CC0BCE8F00F8CF30988DF
:103640006FF0020E704710B51D4A1268914209D8FA
:103650001C4C54F8214090E80F10A047EFF3098C60
:103660008CE80F0010BDFDF7C7FF144B93E8060070
:10367000914210D0EFF3098C2CE9F00FC1F82CC067
:103680000CB4FEF72DF80CBC1A60D2F82CC0BCE8C4
:10369000F00F8CF309886FF0020E7047FEF702F806
:1036A000FFF7E3BFFDF7FCFFFDF7FCFFFFF7DDBF12
:1036B0006A470000F11700000B180000F423001007
:1036C00000000000FCFFFFFF0649074A074B9A4233
:1036D000BEBF51F8040B42F8040BF8E704488047DA
:1036E00004480047C8490000C80000106C010010E1
:1036F00021300000590C0000FEE7FEE7FEE7FEE780
:10370000FEE7FEE7FEE7FEE7FEE7FEE7014B18688F
:10371000704700BFFC0000108A892DE9F041054682
:1037200010070C465AD44B68002B05DC0B6C002BA1
:1037300002DC0020BDE8F081E66A002EF9D000230B
:1037400012F480522F682B6033D0606DA3895A0722
:1037500005D56368C01A636B0BB1236CC01A0023D4
:103760000246E66A216A2846B047431CA38906D16F
:1037700029681D294BD82B4ACA40D60747D50022B5
:1037800062602269D904226004D5421C01D12B68F1
:1037900003B96065616B2F600029CAD004F144034E
:1037A000994202D02846FFF7ABFD00206063BDE8D8
:1037B000F081216A01232846B047411CC6D12B68FD
:1037C000002BC3D01D2B01D0162B01D12F60B0E7E9
:1037D000A38943F04003A381BDE8F0810F69002F66
:1037E000A7D0930718BF00230E6808BF4B69A6EB4C
:1037F00007080F608B60B8F1000F9ADD43463A4628
:10380000216A2846A66AB047002807DCA38943F04E
:103810004003A3814FF0FF30BDE8F0810744A8EBDF
:103820000008E8E70100402038B50B6905460C4662
:10383000DBB118B183690BB900F072F80C4B9C42F4
:1038400009D16C68B4F90C307BB121462846BDE83B
:103850003840FFF761BF074B9C4201D1AC68F1E7EC
:10386000054B9C4208BFEC68ECE7002038BD00BF68
:10387000444900006449000024490000014620B981
:10388000044B0549186800F0B7B8044B1868FFF7F7
:10389000CBBF00BF8449000029380000FC000010A5
:1038A000014900F0A9B800BF29380000002310B575
:1038B000044603604360836081814366C281036183
:1038C00043618361194608225C3000F01AF9054B08
:1038D00024626362044BA362044BE362044B2363E0
:1038E00010BD00BF15400000374000006F400000D1
:1038F0009340000070B568254A1E55430E4605F1F9
:103900007401FFF7F9FC044640B1002180E8420051
:103910000C30A06005F1680200F0F3F8204670BD9D
:10392000836910B5044633BB8364C3640365124BDB
:10393000124A1B688262984204BF0123836100F02F
:103940001FF86060204600F01BF8A060204600F0E1
:1039500017F80022E06004216068FFF7A7FF01224A
:103960000921A068FFF7A2FF02221221E068FFF7F9
:103970009DFF0123A36110BD84490000A138000010
:10398000F8B51C4B07461E68B36913B93046FFF7FC
:10399000C7FF4836B4687368013B03D5336833B159
:1039A0003668F7E7B4F90C506DB16834F4E70421D8
:1039B0003846FFF79FFF30600028F1D10C23044602
:1039C0003B602046F8BD4FF6FF73E3810123656637
:1039D000A3812560A560656025616561A5610822F8
:1039E000294604F15C0000F08CF86563A563A564CA
:1039F000E564E6E7844900002DE9F84380468946FE
:103A0000002600F1480414B93046BDE8F883A568E3
:103A10006768013F01D52468F5E7AB89012B07D919
:103A2000B5F90E30013303D029464046C847064356
:103A30006835EEE770B500250C4E0D4CA41BA410A4
:103A4000A54209D100F0F2FC00250A4E0A4CA41B45
:103A5000A410A54205D170BD56F825309847013510
:103A6000EEE756F8253098470135F2E7600100107F
:103A7000600100106001001068010010024B014657
:103A80001868FFF739BC00BFFC000010024B01466C
:103A90001868FFF735BC00BFFC00001010B5C9B2B4
:103AA00002449042034601D1002010BD1C78013031
:103AB0008C42F6D1184610BD10B5431E0A449142FF
:103AC00000D110BD11F8014B03F8014FF7E7884210
:103AD00010B501EB020303D8421E99420CD110BD70
:103AE0009842F9D28118D21AD34200D110BD13F8EE
:103AF000014D01F8014DF7E711F8014B02F8014FB4
:103B0000EBE703460244934200D1704703F8011BE0
:103B1000F9E7000038B50546002943D051F8043CC8
:103B20000C1F002BB8BFE418FFF715FD1E4A1368E1
:103B3000104633B9636014602846BDE83840FFF78B
:103B40000EBDA3420BD921686218934201BF1A68C7
:103B50005B685218226063600460EDE713465A68A0
:103B60000AB1A242FAD919685818A0420BD12068AC
:103B70000144581882421960DED11068526801442D
:103B800019605A60D8E702D90C232B60D4E720686B
:103B900021188A4201BF11685268091821606260C9
:103BA0005C60C9E738BD00BFD819001070B5CD1CE6
:103BB00025F0030508350C2D38BF0C25002D0646D1
:103BC00001DBA94203D90C233360002070BDFFF74D
:103BD000C2FC234A1468214691B9224C23681BB9C0
:103BE000304600F007FA20602946304600F002FA1D
:103BF000431C26D10C2330463360FFF7B0FCE4E7CA
:103C00000B685B1B1AD40B2B0FD90B60CC18CD5053
:103C10003046FFF7A4FC04F10B00231D20F0070041
:103C2000C31A1BD05A42E25070BD8C420BBF63686E
:103C30004B681360636018BF0C46E9E70C4649689F
:103C4000CAE7C41C24F00304A04205D0211A304660
:103C500000F0D0F90130CDD02560D9E770BD00BFAC
:103C6000D8190010DC190010F8B5074614460E46A6
:103C700021B91146BDE8F840FFF73EBB22B9FFF776
:103C80003FFB25462846F8BD00F066FA84420FD96E
:103C900021463846FFF730FB05460028F2D0314672
:103CA0002246FFF709FF31463846FFF729FBE9E7CF
:103CB0003546E7E72DE9F04791461F468A680B69CC
:103CC00006469342B8BF1346C9F8003091F8432026
:103CD0000C46DDF8208012B10133C9F800302368AA
:103CE000990642BFD9F800300233C9F80030256880
:103CF00015F0060507D104F1190AE368D9F8002088
:103D00009B1A9D422ADB94F843302268003318BF87
:103D1000012392062FD404F1430239463046C047AE
:103D2000013022D02368E56803F00603042B18BF96
:103D30000025D9F800204FF0000908BFAD1AA3688C
:103D4000226908BF25EAE5759342C4BF9B1AED18A6
:103D50001A344D451BD10020BDE8F087012352469F
:103D600039463046C047013003D14FF0FF30BDE83F
:103D7000F0870135C1E73020E11881F843005A1C73
:103D800094F845102244023382F84310C3E701231C
:103D9000224639463046C0470130E6D009F10109D4
:103DA000D7E700002DE9F04317460A7E85B06E2A5A
:103DB000984606460C460C9B01F1430E00F0BC8071
:103DC0001AD8632A2ED00AD8002A00F0C880582AB0
:103DD00000F08A8004F1420584F842202AE0642A37
:103DE00001D0692AF6D121681A6811F0800F23D01A
:103DF000111D1960136827E0732A00F0B48008D8F9
:103E00006F2A2AD0702AE5D10A6842F020020A609F
:103E100003E0752A21D0782ADCD178226F4984F812
:103E2000452064E01A6801F14205111D196013680C
:103E300084F842300123A3E011F0400F02F10401A5
:103E40001960D7D0B2F90030002B03DA2D225B4283
:103E500084F8432062490A2217E02068196810F0AC
:103E6000800F03D0081D18600B6806E010F0400FAB
:103E700001F104001860F7D00B886F2A14BF0A22E2
:103E800008225749002084F843006568002DA5608A
:103E9000C0F29C80206820F004002060002B3FD1FD
:103EA000002D40F095807546082A0BD12368DA076B
:103EB00008D5236962689A42DEBF302305F8013CC9
:103EC00005F1FF35AEEB05032361CDF800803B46DD
:103ED00003AA21463046FFF7EDFE013055D14FF0E1
:103EE000FF3005B0BDE8F08381F845203C492268E9
:103EF000186812F0800F00F104051D6001D00368FE
:103F000002E05506FBD50388D00744BF42F02002EB
:103F100022601BB9226822F0200222601022B1E741
:103F20007546B3FBF2F002FB1033CB5C05F8013DA4
:103F300003460028F5D1B7E708681A6810F0800F2B
:103F4000496904D0101D18601368196007E010F06B
:103F5000400F02F1040018601368F6D019800023A6
:103F600075462361B1E71A68111D196015680021B3
:103F700062682846FFF792FD08B1401B60606368E5
:103F80002361002384F843309FE723692A4639469A
:103F90003046C0470130A2D023689B0707D50025D3
:103FA00004F11909E368039A9B1A9D4205DBE06856
:103FB000039B9842B8BF184693E701234A46394607
:103FC0003046C04701308AD00135EBE7002BA7D13E
:103FD0000B7804F1420584F8423065E79949000006
:103FE00088490000024B0A4601461868FFF786B967
:103FF000FC00001038B50023054C05460846236038
:10400000FFF76CFA431C02D1236803B12B6038BD63
:104010004824001010B50C46B1F90E1000F0F4F968
:104020000028ABBF636DA3891B1823F48053ACBF7A
:104030006365A38110BD2DE9F0411F468B890546BC
:10404000DB050C46164605D502230022B1F90E10F9
:1040500000F070F8A389324623F48053A381B4F9A9
:104060000E103B462846BDE8F04100F041B810B5BF
:104070000C46B1F90E1000F05DF8431CA38915BF82
:10408000606523F4805343F48053A38118BFA38158
:1040900010BDB1F90E1000F03DB8034613F8012B26
:1040A000002AFBD1181A0138704710B59AB0009158
:1040B00004916FF00041029105914FF6FF714FF4AA
:1040C0000274ADF80E106946ADF80C4000F0A8F887
:1040D0000022009B1A701AB010BD000013460A4659
:1040E000014602480068FFF7E0BF00BFFC00001077
:1040F00038B50546084611460022054C22601A468E
:10410000FFF75AF9431C02D1236803B12B6038BD75
:104110004824001038B50023054C054608462360A6
:10412000FFF72AF9431C02D1236803B12B6038BD85
:104130004824001038B50546084611460022054CB3
:1041400022601A46FFF79EF9431C02D1236803B18F
:104150002B6038BD4824001051F8040C0028A0F151
:104160000400BCBF0B58C01870472DE9F0478E689B
:1041700082469E420C469146984635D88A8912F46A
:10418000906F31D00223256809696F1A656905EBC4
:10419000450595FBF3F508F101033B449D4238BF0B
:1041A0001D46530531D52946FFF7A6F8064650B9F6
:1041B0000C23CAF80030A3894FF0FF3043F04003CE
:1041C000A381BDE8F0873A462169FFF775FCA38912
:1041D00023F4906343F08003A38126613E4426606C
:1041E00046466561ED1BA560464528BF46464946E3
:1041F00032462068FFF76BFCA36800209B1BA3607E
:1042000023681E442660BDE8F0872A46FFF776F84B
:1042100006460028E1D121695046FFF771F8C7E74B
:104220002DE9F04F9DB003938B8980461C060D4607
:1042300016460FD50B696BB94021FFF75DF8286072
:10424000286128B90C23C8F800304FF0FF30C4E0D3
:1042500040236B610023099320238DF829303023FC
:104260004FF0010B8DF82A3037463C4614F8013BDD
:10427000002B3CD1B7EB060A0BD0534632462946F9
:104280004046FFF772FF013000F0A280099B5344C3
:1042900009933B78002B00F09B8000234FF0FF3206
:1042A00004930793059206938DF853301A930522D1
:1042B00021785048FFF7F2FB671C049BD8B9D90658
:1042C00044BF20228DF853201A0744BF2B228DF8BB
:1042D000532022782A2A16D000210A20079A27463E
:1042E0003B780134303B092B50D9C9B111E0252B63
:1042F000C0D02746B9E73F4A3C46801A0BFA00F087
:1043000018430490D3E7039A111D12680391002A01
:1043100001DB079204E0524243F002030792049348
:104320003B782E2B0DD17B78791C2A2B32D1039B25
:1043300002371A1D1B680392002BB8BF4FF0FF33E2
:1043400005932D4C032239782046FFF7A7FB38B19F
:104350004023001B03FA00F0049B0137034304933E
:104360003978062225487E1C8DF82810FFF796FB29
:10437000002835D0224BFBB9039B073323F00703FA
:1043800008330393099B4B4409936DE700FB02320A
:104390000121A4E700230A24184605930F463A7822
:1043A0000131303A092A03D9002BCAD00590C8E759
:1043B00004FB00200123F1E703AB00932A46114BD5
:1043C00004A94046AFF30080B0F1FF3F8146D9D148
:1043D000AB895B063FF539AF09981DB0BDE8F08F9A
:1043E00003AB00932A46074B04A94046FFF7DAFCCB
:1043F000EAE700BFAA490000B0490000B449000044
:10440000000000006B41000038B505460846114623
:104410000022054C22601A46FFF704F8431C02D123
:10442000236803B12B6038BD48240010F8B500BFE5
:10443000F8BC08BC9E467047F8B500BFF8BC08BC85
:104440009E46704700000000000000003901000097
:10445000610100009D010000A501000000000000B6
:1044600000000000350300000F040000AD01000053
:10447000B50100000000000000000000090300007A
:10448000D9030000BD010000C501000000000000CC
:10449000000000002B020000C5040000CD01000058
:1044A000D50100000000000000000000070200002D
:1044B000ED050000DD010000E50100000000000046
:1044C00000000000CD0800008D090000ED01000093
:1044D0006368617474657200396630653938626486
:1044E000613635393831393836646466353361665A
:1044F000613761343065343900313161626437339A
:1045000031633235393333323631636436313833DF
:1045100062643132643632393500726F737365729A
:1045200069616C5F6D7367732F4C6F6700306164F6
:104530003531663838666334343839326638633139
:104540003036383430373736343630303500726FE5
:104550007373657269616C5F6D7367732F546F70ED
:104560006963496E666F00726F7373657269616C1F
:104570005F6D7367732F52657175657374506172E7
:10458000616D004D6573736167652066726F6D20A4
:104590006465766963652064726F707065643A2043
:1045A0006D657373616765206C61726765722074F5
:1045B00068616E206275666665722E0063643731CD
:1045C000363663373463353532633331316662638F
:1045D00063326665356137626332383900737464FB
:1045E0005F6D7367732F54696D6500393932636588
:1045F0003861313638376365633863386264383818
:104600003365633733636134316431007374645FDD
:104610006D7367732F537472696E6700DB0C000053
:10462000CD0C0000D90C00002F686F6D652F6E69EE
:104630006869742F726F732F6C69622F726F735F6A
:104640006C69622F4275666665726564536572694E
:10465000616C2F4275666665726564536572696147
:104660006C2E637070002573202564206275666669
:104670006572206F766572777269746520286D6146
:10468000785F6275665F73697A653A202564206594
:10469000786365656465643A20256429210D0A0004
:1046A000000000000000000097310000973100007A
:1046B000410D0000990D00009D0C0000A90C0000A8
:1046C000AD0C0000030F00001B0F0000950F000051
:1046D000590F0000DC460000580700104528000074
:1046E000A1280000D1280000E1280000BD2800001A
:1046F00070696E6D6170206D69732D6D6174636892
:104700000070696E6D6170206E6F7420666F756EDB
:104710006420666F72207065726970686572616C82
:1047200000636F756C64206E6F742070696E6F75B6
:104730007400000010020000CC030000E803000039
:10474000525458206572726F7220636F64653A200C
:104750003078253038582C207461736B2049443AE6
:10476000203078253038580A001001000F00000072
:10477000040000007C0700109C070010AC0700102C
:10478000BC070010050001000002000149210000E3
:10479000020000000100000020030000B81C00100F
:1047A000FF760100D017001011C009200000014061
:1047B0000100000042C0092000000140020000008A
:1047C000FFFFFFFFFFFFFFFF0000000016C00920F2
:1047D000000001400100000047C009200000014026
:1047E00002000000FFFFFFFFFFFFFFFF00000000CF
:1047F00001C0092000C009400200000003C00920D8
:1048000000C00040010000000BC0092000800940EA
:104810000100000010C0092000000140010000005C
:104820001AC0092000C009400300000041C009204F
:10483000000001400200000049C00920008009403A
:10484000020000009DC0092000C0094003000000D4
:10485000FFFFFFFFFFFFFFFF0000000000C0092077
:1048600000C009400200000002C0092000C0004052
:10487000010000000AC0092000800940010000007A
:104880000FC00920000001400100000019C00920EC
:1048900000C009400300000040C0092000000140A2
:1048A0000200000048C0092000800940020000000A
:1048B0009CC0092000C0094003000000FFFFFFFF6B
:1048C000FFFFFFFF000000006531000069310000BC
:1048D000713100000000000000000000973100006E
:1048E0009731000099310000AD3100000000000058
:1048F00000000000D7310000D9310000050D000094
:104900002D0D00004F70657261746F72206E6577B7
:104910005B5D206F7574206F66206D656D6F7279B9
:104920000D0A000000000000000000000000000070
:104930000000000000000000000000000000000077
:104940000000000000000000000000000000000067
:104950000000000000000000000000000000000057
:104960000000000000000000000000000000000047
:104970000000000000000000000000000000000037
:10498000000000000001001030313233343536377A
:1049900038394142434445460030313233343536AC
:1049A00037383961626364656600232D302B20003F
:1049B000686C4C00656667454647000000000000D3
:0849C000E0EBFF7F01000000A5
:1049C8000000000068656C6C6F20776F726C642162
:1049D80000000000E9120000FD12000000000000C5
:1049E8000100000000100000CC07001000D8B80536
:1049F800502400100001001000000000444900008D
:104A08006449000024490000000000000000000084
:104A1800000000000000000000000000000000008E
:104A2800000000000000000000000000000000007E
:104A3800000000000000000000000000000000006E
:104A4800000000000000000000000000000000005E
:104A58000000000000000000F100000095070000C1
:044A6800CD0000007D
:04000003000036C9FA
:00000001FF
