:1000000000300020C10000000F3900005B400000FC
:1000100000000000000000000000000000000000E0
:10002000000000000000000000000000633F00002E
:100030000000000000000000E93F00003140000027
:100040006340000063400000634000006340000024
:100050006340000063400000634000006340000014
:100060006340000063400000634000006340000004
:1000700063400000634000006340000063400000F4
:1000800063400000634000006340000063400000E4
:1000900063400000634000006340000063400000D4
:1000A00063400000634000006340000063400000C4
:1000B00063400000634000006340000063400000B4
:1000C0000749084A084B9B1A05DD002408591051BE
:1000D00004349C42FADB054880470548004700008D
:1000E000AC7A0000C0F0FF1F58F1FF1F1D3900005F
:0400F000B511000046
:10040000FFFFFFFFFFFFFFFFFFFFFFFFFEFFFFFFFD
:1004100010B5064C2378002B07D1054B002B02D0DA
:10042000044800E000BF0123237010BD58F1FF1FF6
:1004300000000000A07A0000084B10B5002B03D08C
:100440000749084800E000BF07480368002B00D1B7
:1004500010BD064B002BFBD09847F9E700000000C9
:100460005CF1FF1FA07A000058F1FF1F00000000A0
:1004700003790B7043681B0A4B7043681B0C8B702D
:1004800043681B0ECB70037A0B7183681B0A4B7198
:1004900083681B0C8B71836808201B0ECB7170471F
:1004A0000A7842604B781B021A4342608B781B0427
:1004B00013434360CA781206134343600A7982608B
:1004C0004B791B021A4382608B791B0413438360B0
:1004D000CA791206134383600820704700487047AA
:1004E0004B740000004870472A74000000487047B1
:1004F000BC730000004870479B73000000487047C1
:100500008873000000487047677300000048704718
:10051000D5730000004870474673000083880B7055
:10052000838802201B0A4B7070470B7883804A78BF
:100530001202134383800220704700000048704776
:100540007A740000004870475974000070B50400C8
:1005500005000C342000FFF7E8FF6B692000984786
:1005600070BD806970470000004870477A740000D1
:100570000048704759740000014BC05C7047C0468A
:100580005C05000010B5808804F0E2FD011C0748FE
:1005900000F0D8FD064B5A6911685A680A4202D128
:1005A000DB681A6010BD1B69FBE7C04624F7FF1F1C
:1005B00074F1FF1F002310B50C00DA00D440C454BE
:1005C0000133042BF8D110BD0379F7B50B704368E4
:1005D0000D001B0A4B7043680A1D1B0C8B7043688F
:1005E00004001B0ECB7000216068531B81420CD2AB
:1005F000E0688B001B580131180A13705070180CFA
:100600001B0E9070D3700432EEE7227CEA5421690D
:10061000EA18090A517021690433090C91702169A3
:10062000EB18090ED170002122695E1B91420CD299
:10063000A0698A0012580131100A1A705870100C03
:10064000120E9870DA700433EEE70027237FAB5563
:10065000E269AB19120A5A70E2690436120C9A70F8
:10066000E269120EDA70E3699F4215D2636ABA003A
:10067000985806F01FFC01900199A819FFF79AFFFE
:10068000636ABA0004369958A819019A06F031F93C
:10069000019B01379E19E6E73000FEBD70B5037976
:1006A00006000B7080680D0006F004FC0400681C56
:1006B0002100FFF77FFF681DB168220006F019F9DD
:1006C000601D70BDF8B5838806000B7083880C0030
:1006D0001B0A4B70806806F0EDFB0500A01C29008A
:1006E000FFF768FF2A00B168A01D06F002F9F06864
:1006F00006F0E0FB0700AB1DE01839000A35FFF7F4
:1007000059FF3A00F168601906F0F3F8306906F015
:10071000D1FB7D190700601939000435FFF74AFF46
:1007200060193A00316906F0E4F873697F19E355FE
:100730001A0AE41962701A0C1B0E381DA270E370BD
:10074000F8BD002310B50360CA5CDC00A240046859
:10075000013322430260042BF6D110BDF7B50C0023
:100760000B7805000371013101A8FFF7EAFF221D94
:1007700013000199481D01331E1BB04203D91F7895
:100780005E1E3770F7E7002364182371AA60FEBD70
:10079000F0B50C000B7885B083804A780600120211
:1007A00013438380023101A8FFF7CBFF611D0B00CB
:1007B000019A951D0133181B854203D91F78581ED5
:1007C0000770F7E70023A218537102A8B1606119FE
:1007D000FFF7B7FF029A2B1D9D181A00AA4204D2F8
:1007E000A05C511E60540132F8E700206119013B02
:1007F000E3184A1E1070F36003A8FFF7A2FF039BE3
:100800000435E8182B00834204D2E15C5A1EA1543F
:100810000133F8E700212218013D531E65191970B4
:100820003561537891781B020904D2780B43215C1F
:1008300012060B4313430430736105B0F0BDF7B5E6
:100840004B780E781B0233438E7804003604334312
:10085000CE780D0036061E4343689E4204D9B1008F
:10086000C06806F0BFFAE060002366602F1D626872
:100870005E1CB000934215D221007B78BA781B022F
:10088000120413433A7804381343FA7808311206F5
:100890001343A360E3680422181806F02AF804370B
:1008A0003300E4E72A1857789378295C1B043F0249
:1008B0001F433943D77823693F060F43061D9F42E4
:1008C00004D9B900A06906F08DFAA061276100275C
:1008D000AE192369721B9F4215D221007378B2783A
:1008E0001B02120413433278B8001343F278143118
:1008F000120613436361A3690422181805F0F9FF77
:1009000001370436E5E7A9184F788B78A85C1B04FB
:100910003F021F433843CF78E3693F060743161D64
:100920009F4204D9B900606A06F05CFA6062E76130
:100930000027E3699F421FD2A91901A8FFF701FF11
:10094000019A331D9E181A00B24204D2A85C511EAF
:1009500068540132F8E70021AA19013A1170210008
:10096000013BEB182362636AB80018180422203197
:1009700005F0BFFF0137DCE73000FEBD1FB5084BB7
:1009800004000193002302930393036801AA1B68E8
:100990000A2198472000603003F059F820671FBDF6
:1009A000A47200000022F0B52D4B89B0029302AB77
:1009B0009A802C4B8027049305930693902305007F
:1009C000DB00C418284B0792C618BF002368002B11
:1009D00017D01989586802AA91801A68036804928E
:1009E0009B6898472368059058680368DB689847B8
:1009F00021682B68069007971B6802AA09692800DE
:100A000098470434B442E1D1A9238026DB00EB18D7
:100A10000193B6002068002818D0828802AB9A8023
:100A20008368049303689B6898470590206803686F
:100A3000DB6898472B68069020681F680368079654
:100A40005B68984702AA01002800B847019B04345C
:100A5000A342DFD10122054BEA5409B0F0BDC046E4
:100A6000BC7200000F750000E40400005C0500008B
:100A7000F0B5264B060087B00393002304006036D0
:100A800030000F000493059302F0E1FF236F39005B
:100A9000C51A03A8FFF704FDFA212800890003F016
:100AA000E1FAFA21049B89001818049028000193A8
:100AB00003F05EFB164B30005943059BC9180193A8
:100AC000059102F0C4FFFA21049B890007000193FD
:100AD0005D1E03F0C7FAFA212D1A65670D4B059DBF
:100AE00038008900ED1803F043FB094B20005943FF
:100AF000691AA16721007430783100F06FFB300073
:100B000002F0A5FF044BE05007B0F0BDA472000056
:100B100040420F0000CA9A3B6405000073B5424C86
:100B2000424B20000025042208C0260080230092AA
:100B3000082101955B00603600F028FC300002F0CF
:100B40009BFFE1231B02E3653000802602F052FF89
:100B50002000B60029003200803025676567A56750
:100B6000E56705F0E1FEA0239B002900E0183200B4
:100B700005F0DAFE90239D3EFF3EDB0032002900A7
:100B8000E01805F0D1FE2A4B32002900E01805F0EC
:100B9000CBFEA923DB00E550264B274AE550043362
:100BA000E550264B2649E5500433E550254B2000FF
:100BB000E5540433E550244BE5500433E550234B12
:100BC000E5540433E2500022214BE5500433E55054
:100BD000204BE5500433E5501F4BE2500433E55001
:100BE0001E4B1F4AE5500433E5501E4BE55003F001
:100BF00057F934211C4800F081FA1C4C29001822B6
:100C0000200005F091FE1A49200000F0F4FC194B79
:100C1000194A1D821A60194ADA60194A5A6101227A
:100C20009A61184A9A6073BD8CF1FF1F1C73000013
:100C3000E40400004C050000EC72000054050000C4
:100C4000391000005C050000640500006C05000020
:100C5000740500007C050000840500008C05000080
:100C6000C0F0FF1F9405000024F7FF1F74F1FF1F61
:100C70004C1000003CF7FF1F3073000004730000AD
:100C800085050000407300000300F0B560330400E8
:100C900087B01800029302F0DAFE8B4A8B49A35802
:100CA0000700C31A05928B4202D90022884BE254F6
:100CB000A923DB00E258002A06D0AD22D200A258B8
:100CC000BA4201D20022E2500023A92503930193E6
:100CD000ED00E36F002B1ED1261D300000F092FACC
:100CE000002821D17A4BE35C002B0AD0AC25ED0023
:100CF0006359784AFB1A934203D92000FFF73EFE5E
:100D00006751039B002B00D0DCE0019B181E00D133
:100D1000AAE00320A7E0029802F099FEE36FC01B4F
:100D20009842D9D902209EE0300000F073FA0028E2
:100D3000D8DBAB23AB22DB00E35866590493D20027
:100D4000C318A350072E0ED1634AA358591CE318A9
:100D5000A1508033614A1870A358013BA350002B67
:100D6000B7D108331AE0002E13D1FF2807D1012391
:100D7000AD2263513B00D2001433A350A9E702987F
:100D800002F065FE564BC01B9842A2D9504BE65468
:100D9000C8E7012E0ED1FE2802D10223635198E745
:100DA000002363514A4BE35C002B92D12000FFF7F4
:100DB000E5FD8EE7022E0AD10022484BE050464B5B
:100DC000E25003236351AB23DB00E05081E7032EA5
:100DD00006D1424B0002E2581018E0500423DDE730
:100DE000042E0CD13F4A134003D53F4A013B134325
:100DF0000133FF2B01D1FA3BD0E70023CEE7052ECC
:100E000004D1AA23DB00E0500623DBE7062E0AD13B
:100E1000AA23DB00E25800021018E05007236351B8
:100E20002E4BE3589BE7082E00D052E70022625178
:100E30002C4A134003D52C4A013B13430133FF2BAB
:100E400000D046E7AA23DB00E358002B0ED1200098
:100E5000FFF794FD2000FFF7A5FDAC230120DB0088
:100E6000E750059BE750404207B0F0BD0A2B07D181
:100E7000210020008031FFF7FBFD0123039328E7C9
:100E8000062B0AD1AE232100DB00E0188031FFF7EA
:100E9000D6FC0122154BE2541BE70B2B05D1002297
:100EA0000B4BE2540123019313E7D4339B00E31867
:100EB0005868002800D10CE72100036880311B68C6
:100EC000984706E70420CEE764050000F82A0000F2
:100ED0005C050000C4090000540500004C0500003A
:100EE00088130000FF00008000FFFFFF6C0500007A
:100EF00010B5144C201DE16D02F01DFEA922002347
:100F0000D200A350104AA350104AA350043AA35051
:100F10000F499A005218A258002A0FD11A003932EC
:100F2000FF320C499200A218643351604B602000DC
:100F3000FFF7AAFE012002F0A7FEF8E70133192B04
:100F4000E6D1F4E78CF1FF1F4C05000054050000CA
:100F5000E40400003CF7FF1FF0B5040085B00E006C
:100F6000632904DD00252B4BC35CAB424ED01368D4
:100F700029491B68611810009847A023FF229B0095
:100F8000E254264B013AE254254AC3B2A354254900
:100F90000212D2B262549B18A122DB439200A354E6
:100FA000214B0522E654214B360AE6540023851DC9
:100FB000AA4206DCA02189005118615C01325B184D
:100FC000F6E7DB43144A05002018801803708023DD
:100FD00008359B009D420BDC8033E7183E00F31B75
:100FE0009D4213DD3178201D00F039FA0136F6E715
:100FF0000F4B01AA0193032313710E4B072193603A
:10100000236820001B68012598476D42280005B021
:10101000F0BDC0465C0500008702000081020000B0
:1010200082020000830200008502000086020000A8
:10103000D4720000F173000010B50400024B08C028
:1010400000F034F9200010BD1C730000F7B5C7682C
:101050000600381C0C1C05F067F902000B0004F0B8
:10106000BDF800900191201C05F05EF90022204B94
:1010700004F044FE0B0002000098019904F0BEFB4E
:1010800005F0A4F980231B06FD18291C009003F02D
:1010900071F9002807D10099381C03F06BF93D1C49
:1010A000002800D1009D00F033FB281C05F03CF91E
:1010B000104A114B04F092F805F088F9011C300039
:1010C00002F078F900F03AFB0021201C03F052F9FD
:1010D000002808D1FE21201C890503F05FF90028B3
:1010E00003D17461F7BD0024FBE7FE24A405F8E7F3
:1010F0000000E03FFA7E6ABC7493583F70B504006C
:101100000D0000F005FB2900200002F04DF800F072
:1011100015FB094BE360094B236100F0F9FA20004D
:10112000074902F031F800F009FBFC212000890595
:10113000FFF78CFF200070BD6F12033A00003443AC
:101140000AD7A33CF8B50600081C316903F0E4FA9D
:10115000011C03F04FF9FE21F568890503F0ECFD51
:10116000291C03F0C9FC80231B06EC18211C071C5A
:1011700003F000F9002807D1391C281C03F0FAF805
:101180002C1C002800D13C1C00F0C2FA201C05F0E9
:10119000CBF8064A064B04F021F805F017F9011CBC
:1011A000300002F007F900F0C9FAF8BDFA7E6ABC17
:1011B0007493583F0748084A10B5121A002105F0E9
:1011C000B3FB02F025FE05F051FB02F028FE02F011
:1011D00069FEC04658F1FF1F6411002070B50D680C
:1011E00006000C002800064902F03CFF3368044961
:1011F00018183060280002F0BBFF216070BDC046A7
:1012000000CA9A3B436B806B181A431E9841704783
:101210000120704770B50400836B5A1C8263026B17
:10122000806BD55CE36B591E02F0A2FF2800A1631E
:1012300070BD10B5002801D01CC91CC010BD70477E
:1012400010B54468836861100268E00701D55858FA
:1012500082585818904710BDC36810B50400002B81
:1012600001D09B689847200010BD000070B50600B3
:10127000084B0C3604000360002E08D005002C3506
:10128000B54204D0103D2800FFF7E6FFF8E7200044
:1012900070BDC046D878000010B50400FFF7E6FF27
:1012A000200002F01DFE200010BD000030B500251A
:1012B0000400124B85B0083303602A006946039589
:1012C00002F088FC6846FFF7C7FF0122694620004C
:1012D000039502F07FFC6846FFF7BEFF2000403018
:1012E00000F032F92000303000F02EF9044B2000DD
:1012F0002360FFF7BBFF200005B030BD1075000074
:10130000C078000010B50400FFF7D0FF200002F005
:10131000E7FD200010BD7FB50400251D280002F068
:10132000DEFA00281DD0626CA36C9A420FD0A36C29
:101330005A1CA264226CA06CD65CE36C591E02F0AD
:1013400017FF2800A164310002F0D5FAE5E7002379
:10135000200001226946039302F03CFC6846FFF737
:101360007BFF7FBD10B5140086B0039308AA064B1F
:101370001278049102A90593029402F02BFC02A8B2
:10138000FFF76AFF06B010BD8C7400007FB51D002A
:10139000962304009B01089E02F0B2FB20000C4B38
:1013A000290008332360303000F0E1F831002000DC
:1013B0006943403000F0DBF8002320000093054A29
:1013C0002100FFF7CFFF20002565666504B070BDE2
:1013D000107500003D14000030B5040087B00430E3
:1013E00002F07DFA002816D00025012202A9200073
:1013F000059502F0EFFB02A8FFF72EFF2000FFF794
:101400008AFF0123054A009321002B00200002924D
:101410000395FFF7A7FF07B030BDC04617130000C4
:1014200010B5040043685A1C42600268D154E36856
:101430004068591E02F09CFE616010BD70B5051D2C
:101440000400280002F034FA002807D0280002F037
:101450003BFAC1B220003030FFF7E2FF70BD70B53B
:1014600005000C004030C9B2FFF7DAFF2800FFF793
:10147000B3FF200070BD70B506000D00081E11D02E
:101480000C00300021784030002903D00134FFF7F0
:10149000C7FFF6E70A21FFF7C3FF3000FFF79CFF05
:1014A000601B013070BDF8B505000E00081E12D09B
:1014B000002082420FD00C008F18BC4206D02800BA
:1014C00021784030FFF7ACFF0134F6E72800A41B79
:1014D000FFF782FF2000F8BD0EB408221C23F0B5F0
:1014E00086B002AFBA18D4186A4608CC05007B60F3
:1014F000036D00210733DB08DB00D31A9D4602AEE3
:10150000026D300005F010FA220079683000FC60AE
:1015100005F0F0FC2B6D020083420CD200905D229E
:101520000748084900F034F90020BD4604B0F0BC7B
:1015300008BC03B0184731002800FFF7B4FFF4E7F8
:10154000D67400009874000010B5040000680028EC
:1015500001D002F0BFFC200010BD0300002110B537
:10156000DA6841608160006805F0DEF910BD70B591
:10157000040008000D0002F0A1FCE56020602000DE
:10158000FFF7EBFF200070BD70B50D0004001600E2
:1015900001F0DEFB6B1C07D00021200001F0F8FBFE
:1015A0003100200001F0EEFB70BD70B5436804000F
:1015B0000D00002A0AD0C26813602000012101F04A
:1015C000E7FB2900200001F0DDFB70BD0269F3E7B5
:1015D00010B50222FFF7D8FF10BD70B50D00040052
:1015E000160001F0B5FB6B1C04D032000021200076
:1015F000FFF7DBFF70BD10B50022FFF7EEFF10BD57
:10160000004870474475000010B5024800F004F827
:1016100010BDC04644750000036870B5DB68040067
:10162000984763685A682368002A02D19B689847E4
:1016300070BD5B681568984763682D1A5A68002D5D
:1016400007DC916859601B68002BEAD05068984706
:10165000E7E7236810681B699847E9E710B5036856
:101660005B68984710BD000010B50400431C0CD106
:1016700010BD9C4208D12000896801F0ABFE00211A
:10168000200001F0C7FEF3E70C3100228B5E5A1CEC
:10169000EFD1024800F07CF8EAE7C04691750000FF
:1016A00010B5884208D0431C06D04B1C06D0044815
:1016B00000F06EF801214942080010BD0100FBE76F
:1016C0006075000000228B5E5A1C01D1180002E0F8
:1016D000834201D1486870470C31F3E710B504002C
:1016E000431C07D0FFF7EEFF0400431C02D1024861
:1016F00000F04EF8200010BD7175000010B500F02C
:1017000041F810BDEFF310830120984370470000AB
:1017100010B5FFF7F7FF72B6064A1368002B04D125
:1017200001335840044BC0B218701368136801337A
:10173000136010BD64F7FF1F60F7FF1F10B5094C61
:101740002368002B0CD0FFF7DDFF2368013B2360EB
:101750002368002B04D1044B1B78002B00D162B608
:1017600010BDC04664F7FF1F60F7FF1F30B585B09E
:101770006D461824201C291CABBE041C200005B09B
:1017800030BD0000014B18687047C046C4F0FF1F11
:101790000FB4012010B502F085FB000010B588B031
:1017A000FFF7B6FF094902A8FFF725FF9624039A21
:1017B000059B20001A60019202F066FA039A069BCC
:1017C00020001A60019202F05FFAF0E74810000072
:1017D00010B501F0EDFA10BD10B5024B1B6898472B
:1017E000FBE7C046C8F0FF1F10B50C4800F0D4FD61
:1017F00002000B4B0B481A6000F0CEFD02000A4BB2
:101800000A481A6000F0C8FD094B186005F02EF870
:101810000021002002F003FB10BDC046F07500005F
:10182000CC0B0020EC75000070F7FF1FE87500007E
:1018300068F7FF1F10B5FFF7CFFF10BD10B504000C
:1018400000F00AFD210002000148FFF7A1FF10BDD2
:10185000B075000010B502F047FB10BD80220A49A8
:101860000A4B10B55B1A92001800934200D9100081
:10187000074A1B1A074C1360CB18074A2360074B13
:101880001060196010BDC0466811002000300020B3
:101890000409002078F7FF1F74F7FF1F08090020D4
:1018A00000F060FEFFF7DAFF0348002100F006FEBB
:1018B00000F04AFCFEE70000CCF0FF1F012110B54C
:1018C000024B4942186800F089FD10BD70F7FF1FF8
:1018D00010B5024B186800F0ABFD10BD70F7FF1F8C
:1018E000027830B5013A8C784368D2B2002B02D02E
:1018F0009D78A54208D24B604160022A07D8002B90
:1019000000D09960886030BD18005B68EEE7002366
:101910008B60F8E7436810B504785968013C416072
:101920000022022C06D8914201D088605A609A6049
:10193000180010BD5A60FBE7034B5A684260002252
:10194000586082607047C046C0100020124A10B52F
:10195000D368002B13D0938AD4688B420DD3C46014
:10196000D060C4680261002C00D020615B1A9BB279
:101970008382918ACB1A938208E0002C07D100243D
:10198000CB1AC460D06002619382848210BDA28AA7
:101990009B182200E0E7C046D810002070B5194D12
:1019A000EB68002B09D00126AB8A013BAB82AA8AE7
:1019B000002A02D1EC68002C00D170BDA368002B76
:1019C00008D0616859606168002901D08B6062604D
:1019D0000023A36021000C48FFF782FFA38AAB829B
:1019E0006378042B04D1094BE28A1B689B18A382FD
:1019F0000022E3686670EB60934201D01D61E260F3
:101A00002261D4E7D8100020C0100020541100201B
:101A10008368002B06D042685A604268002A00D0D2
:101A200093607047044B5A68904202D142685A60F2
:101A3000F7E7131EF7D1F4E7C010002070B58468F3
:101A40000500002C05D14378012B0CD1064C03E096
:101A5000A4682378002BFBD02800FFF7D9FF2900CA
:101A60002000FFF73DFF70BDC0100020036910B5D6
:101A7000002B0DD0C268DA60C268002A09D0998AAA
:101A8000848A0919998213610023C36000230361CA
:101A900010BD9A82FAE7000070B5114AD478EFF3CE
:101AA0001086EFF3108372B693789C4211D90133FC
:101AB000937013785D1CAC4200D100251570002E88
:101AC00000D162B69C4206D9DB00D31858609960F9
:101AD00070BD002EF5D00220FFF7B0FEF8E7C0463B
:101AE000440B0020064B1B78002B04D18022054BB1
:101AF00052051A6070470122034B1A70FAE7C0467C
:101B0000CC07002004ED00E0CD0700201B4B70B592
:101B1000186801234370FFF70FFF194C6578A3780D
:101B2000002B06D165701748FFF7F4FE00F0ECFDBE
:101B300070BDEB00E31858680278002A14D1996848
:101B400089B200F019FAE37801359D4200D10025F1
:101B5000EFF31083EFF3108272B6A278013AA2700D
:101B6000002BDCD162B6DAE7012A03D1996800F0D4
:101B700091F9E8E701F0C8F8E5E7C0460C1100204C
:101B8000440B0020C0100020094B01201A68094BAB
:101B900040421A600022084B1A60084B07321A6054
:101BA000FF23074A1B0611680B4313607047C046AA
:101BB0001076000014E000E018E000E010E000E023
:101BC00020ED00E0704700000B4B10B518680123B2
:101BD0004370FFF7B1FE00F003FA084A13680133BF
:101BE0001360FFF7DBFE00F011FD0548FFF792FEE2
:101BF00000F08AFD10BDC0460C11002054110020D9
:101C0000C0100020074B10B51A68136BD26A9342BC
:101C100003D8054A1B68934202D00120FFF70EFE4D
:101C200010BDC0460C110020A52E5AE2F7B5836AFC
:101C300001919B0802D1204B1B889B08066B9C00DE
:101C40003419620700D5043C8027221F7F041760E7
:101C50002700019A2500083F3A600022403D2900F4
:101C60009446624604C18F42FBD12200C769203AE4
:101C70001760019AC56242630F4A12680192D2004E
:101C800012D5112B10D9103B5B08DB005B421A0008
:101C9000383AA4182A000949A24208D1EB180433A3
:101CA0009E4201D2054A1A60054B3360F7BD083ADF
:101CB00051601160F0E7C046F8750000CCCCCCCC88
:101CC000A52E5AE2C36A19627047C36A19625A6242
:101CD000704730B50300002A18DA0720102452009C
:101CE0005208073282430120002A16D015198D426E
:101CF00013D859181C19504259601C609A60091871
:101D0000A318994207D31B501C00F9E703200332A4
:101D100082430C24E7E70020206030BDEFF31082FF
:101D200072B601231A400368002B01D019680160C4
:101D3000002A00D162B618007047030001209942C2
:101D40000CD35A68914209D2EFF3108272B6186828
:101D5000086019600020D30700D462B670470123E1
:101D60000370002310398908437083704360038136
:101D700043818381C181704770B515008289040059
:101D8000002A3AD04389181D8000005901330860A9
:101D9000E1899BB26381994201D100236381636829
:101DA000002B1ED06378022B1BD12000FFF7B2FD61
:101DB00005000021FFF786FF2389E9691A1D9200BB
:101DC00011510133E2899BB223819A4201D1002350
:101DD00023812800FFF74AFE280000F0B3FC002012
:101DE00070BDEFF31083EFF3108172B60020013A5B
:101DF000A2818342F4D162B6F2E70120002DEFD038
:101E00006268094B002A09D019682000FFF768FDB5
:101E10002800082100F0B6FC0120E1E71B686360A0
:101E20005A609C606070F3E70C110020C3898089C0
:101E3000181A704710B5FFF72FFEFFF753FE10BDBD
:101E400010B5040083890020834222D063890433C3
:101E50009B001B590B606378022B05D10100200009
:101E6000FFF71AFEFFF73EFEEFF31083EFF3108249
:101E700072B6A289013AA281002B00D162B66389B1
:101E8000E28901339BB2638104209A4201D100238D
:101E9000638110BD436870B504000D00002B4AD06B
:101EA0004678022E1FD0032E0AD0012E42D1FFF712
:101EB00031FD04002A001021FFF707FF66700DE0D6
:101EC0000800FFF72BFF051E34D02000FFF722FD8E
:101ED00029000400FFF7F6FE012363702000FFF7DE
:101EE000C5FD210023E0FFF715FD05000021FFF7E8
:101EF000E9FE2389E9691A1D92001151EFF310825E
:101F0000EFF3108172B6A1890131A181002A00D1BD
:101F100062B60133E2899BB223819A4201D1002348
:101F20002381012328006B70FFF7A0FD29001148D1
:101F3000FFF7D6FC70BD8289C089824215D2238901
:101F4000191D89000D51EFF31081EFF3108572B662
:101F50000132A281002900D162B601339BB29842BE
:101F600001D02381E6E70023FBE70320FFF766FCAF
:101F7000E0E7C046C010002010B5038B427819433B
:101F800004000183438B062A14D11A000A409342AD
:101F90000FD1994321832000FFF768FD0123082119
:101FA00020006370628BFFF790FE21000548FFF769
:101FB00097FC10BD052AFCD11A000A40F9D04283D3
:101FC000E7E7C046C01000200022034B1A60034A16
:101FD0001268DA807047C046F8100020F4750000DF
:101FE00010B50D4B0D4C186862680D49904205D034
:101FF0001A60DA880868013A82189A8098880A88F4
:10200000904208D1002220001A60FFF783FC0100F3
:102010002000FFF765FC10BDF8100020C010002064
:1020200054110020002230B50B4C2368002B0AD13C
:1020300003608160002B02D09D68691A9960002AB4
:1020400008D0106030BD9D68A942F1D31A00491B29
:102050001B68EBE72060F5E708110020002313B5AB
:102060000200984215D0431C15D00C4C0C4923009B
:1020700088420ED8FA200B4B800050431B68019316
:10208000013BC018019901F0EDFF2300A04200D8E8
:1020900083B2180016BD044BFBE7C046FEFF0000EC
:1020A00000093D00AC750000FFFF0000002806D0CD
:1020B000830705D103785A4253415B421840704769
:1020C0000020FCE7B0B50F4D00AF2878002815D1EF
:1020D0000D4C23680533D97F00F076FB2368DA784E
:1020E000FF2A03D1DA6A203282F309886268002A63
:1020F00000D10CC400F01CFD01232B70BD46002054
:10210000B0BDC046051100200C110020014B18780D
:102110007047C0460511002090B5EFF31084002CE5
:1021200007D1EFF30584002C03D1EFF31484E40707
:1021300002D4034B187890BD024FBC4600DFFAE78B
:10214000051100200D210000F0B589B000AFEFF3BC
:1021500010838225002B3AD1EFF30583002B36D173
:10216000FFF7DAFF002807D11B4C2468002C03D0AE
:102170006468002C00D0A047EFF314840326344099
:10218000022C18D0B4421DD0FF25012C1FD02024D2
:102190003C1984F30988114C2478E4070FD50224F4
:1021A00084F31488BFF34F8FBFF36F8F0C4FBC467F
:1021B00000DF05000BE0094C2478E407F6D486F331
:1021C0001488EFE7054CFF252478E407EED52800B6
:1021D000BD4609B0F0BDC046F4100020DA7500001D
:1021E000C520000070B50B001500002802D10024A6
:1021F000200070BD0668002EF9D00422845EE21C27
:1022000092B2062AF3D80022C168914200D0026936
:10221000043409022143300000F016FB0028E6D008
:102220000A4B01388000C458094AE36A5A63094BD3
:102230001B68002B07D09B68002B04D0E078290096
:102240009847E063D4E7E563D2E7C046280B002057
:1022500001240000F410002010B500F0ADFA031EB8
:1022600003D00138024B8000C358180010BDC0468F
:10227000280B002010B5FFF719FF8023041E0FD094
:10228000084B1B68002B04D0DB68002B01D0C06B0F
:102290009847E07800F02AFB8123FF2800D0002334
:1022A000180010BDF4100020002310B5984204D08F
:1022B000FFF7D4FE00F022FD4023180010BD0000FF
:1022C000B0B50500EFF310848220002C07D1EFF3A6
:1022D0000584002C03D12800014FBC4600DFB0BDAF
:1022E000A9220000830706D1002807D043690169AD
:1022F0001B681800704700231900FAE70300FBE78A
:1023000090B504000800034FBC4600DF2060616008
:10231000200090BDE522000010B5031E0AD004681D
:10232000231E07D0002322789A4203D1200000F018
:1023300035FC2300180010BD70B5032405000E0005
:1023400004408023002C12D1002810D00278032AE8
:102350000DD10800FFF782FE0100280000F09AFC72
:102360002300012803D1C133002E00D1403B1800C7
:1023700070BD10B50324802304400AD1002808D082
:102380000278032A05D100F011FC8123FF2800D038
:102390002300180010BD0000F8B50500EFF310860B
:1023A000002086420FD1EFF305843000002C0AD1C3
:1023B000EFF31480C00707D406480078002803D143
:1023C0002800FFF7A9FFF8BD2800034FBC4600DF37
:1023D000F9E7C0460511002019230000B0B505003B
:1023E000EFF310848220002C07D1EFF30584002C3A
:1023F00003D12800014FBC4600DFB0BD39230000E7
:1024000001210848B0B549420068FFF7E7FF064FD1
:10241000BC4600DF0400FFF71DFA2000034FBC4656
:1024200000DFFEE7001100205922000075220000A5
:10243000B0B50500EFF310848220002C07D1EFF334
:102440000584002C03D12800014FBC4600DFB0BD3D
:1024500073230000F7B5060000910192EFF310829C
:102460000024A24210D1EFF305831400002B0BD1FE
:10247000EFF31483DB0709D40D4B1B78002B05D138
:10248000019AFFF7AFFE04002000FEBD0121094DB7
:1024900049422868FFF7A2FF30000099019A064FD1
:1024A000BC4600DF04002868FFF7C2FFECE7C04627
:1024B0000511002000110020E521000010B50022C8
:1024C000FFF7C8FF10BD10B50300041E0FD0016850
:1024D0000B1E0CD04068031E09D0002302789A42DC
:1024E00005D10431890089B2FFF739FC636818000F
:1024F00010BD000070B5124D2B78002B01D100F0FB
:102500009BFAFF220F4B2C781B689A70002C11D17C
:1025100021000D48FFF7D7FF0C4B22001860210067
:102520000B48FFF75FFE0B4B18600B48FFF734FFBB
:102530000A4B1860012300202B70094B187070BDE6
:10254000041100200C110020E0750000C80B0020D1
:10255000FC750000BC100020147600000011002063
:1025600005110020B0B5EFF310858224002D0AD1AB
:10257000EFF30585002D06D1EFF31484E40704D4AE
:10258000FFF7B8FF04002000B0BD024FBC4600DFDB
:10259000F8E70000F524000030B5040085B00D0018
:1025A000002817D00378012B14D10800FFF756FD3F
:1025B00002A902002000FFF7DFFB012808D1280054
:1025C000451EA841800102990022130005B030BDCC
:1025D0001020F8E780200021F6E770B58023040082
:1025E0000E00150000280ED0002A0CD10278012A16
:1025F00009D1FFF71BFC8123002804D03100200003
:10260000FFF718FC2B00180070BD0000F8B5124E43
:102610003468002C06D00127A368013BA360A268A0
:10262000002A00D0F8BD0D4B2568210018683560E0
:10263000FFF7D3FF002802D00420FFF7FFF86379EB
:10264000012B07D1E1682000FFF7ECFC002DE9D059
:102650002C00E4E72771F9E708110020C80B0020DF
:102660007FB504001600081E01D0002A04D0802384
:102670002360200004B070BD0B78012BF7D102A9B4
:1026800001ADFFF7DDFB042804D00196230007CD40
:1026900007C3EEE710230193F8E70000B0B504008C
:1026A0001500EFF31080002803D1EFF30580002818
:1026B00005D02A002000FFF7D3FF2000B0BD08009E
:1026C0001100034FBC4600DF20606160A260F4E7A8
:1026D0009925000010B5012486B06442094B220000
:1026E000196803A8FFF7DAFF039B102BF6D10499B2
:1026F00001A8FFF705FE019B002BEFD00298984739
:10270000ECE7C046C80B0020074B10B55860022309
:102710004370064B1B68002B04D01B69002B01D0B3
:10272000C06B984710BDC0460C110020F41000206B
:1027300010B50348FFF7EEF8FFF7E6FF10BDC046FF
:10274000C010002070B5041E02D1FFF7F1FF70BD6C
:102750000A4EA2783068012583789A4207D9FFF79C
:10276000EBF8336820005D70FFF7CEFFEFE7657090
:1027700021000348FFF7B4F8E9E7C0460C11002038
:10278000C010002070B50D0000280ED0074B084C7B
:10279000984203D001002068FFF7D8F82368054865
:1027A0005D70FFF7B7F8FFF7AFFF70BDFFFF0000E8
:1027B0000C110020C0100020024B1B68181E00D016
:1027C000D87870470C11002010B5002816D11A4B8C
:1027D0001B6899700533D977184843689B788B42FA
:1027E00002D80022100010BD134C2168FFF778F8C2
:1027F000012223685A70FFF79BFFF2E7104BFF227C
:102800001B889842EED8431E0E489B001C58002C93
:10281000E8D0631DA170D977074B1B689C42DBD0C1
:102820002000FFF70BF96378012BDAD10348FFF79B
:1028300071F8FFF787FFD4E70C110020C0100020CB
:10284000DC750000280B0020F7B51F00CBB2150087
:102850005A42534100902148CE18FFF75FFA041EF8
:1028600002D100252800FEBD056301251C4B320A5C
:10287000198882628D42F4D86B1E01931948AB000F
:10288000043BC358002B01D00135F3E70121F6B218
:102890006170611DE570E761A7632370A670CE7754
:1028A000A11D6360A360E36023612362A382E382CE
:1028B00023836383CB77002A03D10B48FFF72EFADB
:1028C000206320000099FFF7B1F96B1E054A9B00B9
:1028D0002000D450FFF736FFC4E7C046F00E0020BA
:1028E000DC750000280B002018090020F7B54C4DBE
:1028F000002803D02B68DB78984240D100232C6855
:102900000127637001F001FBE062FFF77BF92B68A0
:102910001C6A002C13D12A684249D3784248013BF3
:102920009B005C50116BFFF708FA29683F480C6365
:10293000FFF703FA2C60FFF7FBFE2000FEBD636883
:10294000002B16D02000FEF7E5FF06000021FFF760
:10295000B9F93000FFF78AF8777031003448FEF794
:10296000BFFFE368326A6780A660E26034621C00E1
:10297000CFE7E2686380A360E3601400C9E72D4BF2
:10298000FF241B889842D8D8013883000193019A0C
:10299000244BD658002ED0D03000FFF739F8300045
:1029A000FFF764F8346A002C17D11E4B019A316B83
:1029B0001D489C50FFF7C1F9310034631B48FFF7F5
:1029C000BCF91B48296843689A788B789A42B4D935
:1029D00001234B70FEF784FFADE76368002B18D02E
:1029E0002000FEF797FF07000021FFF76BF9380082
:1029F000FFF73CF8012339007B700D48FEF770FFAC
:102A00000122E36862803A6AA760E2603C621C00CF
:102A1000C9E7E2686380A360E3601400C3E7C046CF
:102A20000C110020280B002018090020F00E0020B7
:102A3000C0100020DC7500002D4B70B519880023F4
:102A40001C002C488B424ED32B4B402219882B481C
:102A5000FFF73FF980222A4B12061B88294E1A43A2
:102A6000294B30001968FFF734F9284B08221988E0
:102A7000274B00251868FFF72CF9FF23254C300061
:102A8000E370FE3B6370631DDD77A31DDD77A562F8
:102A90002570A5706560A560E56025612562A58249
:102AA000E58225836583FFF739F91B492063200000
:102AB000FFF7BCF80422194B20001A705D60184B18
:102AC0001A70DD601D619D82164B1C6002236370CD
:102AD000FFF71AFE144A154B12781D705D70DA70FC
:102AE000FFF772FA70BD9A00121814600133A9E75B
:102AF000DC750000280B0020A8750000F00E0020F7
:102B0000F875000018090020A4750000AA750000DF
:102B10006CF7FF1F1411002035180000C0100020B2
:102B2000D81000200C110020D9750000440B0020A3
:102B3000FF22154B1204196810B50A431A601B686E
:102B4000124A5B0211689B0E9B060B431360FFF752
:102B50001BF80F490860002815DB83080D4A9B000D
:102B60009B181822C0001040E73282401C682243A4
:102B70001A600A68084953099B005B181F210A4024
:102B80001E399140196010BD20ED00E01CED00E001
:102B9000F010002000E400E000E100E003230370F7
:102BA0000023438043608360C3607047F7B5438868
:102BB0000500FF20002B0BD0344AA968126801924F
:102BC000914205D1013B9BB26B80002B01D00020CC
:102BD000FEBD0B6A9D4235D1EB680B624B1DDB7F5E
:102BE0000C6A002C36D18B706A68294F002A3CD0C1
:102BF0002800FEF78FFE06002100FFF763F8300083
:102C0000FEF734FF01236B80336AAE60EB601F4B2D
:102C1000356219687B688A789B7830009A420DD2B9
:102C20003800FEF75DFE38003100FEF759FE012244
:102C3000164B20001B685A7001237370FFF782FD4A
:102C4000C5E71300002BC9D0DA689542F9D1EA68CC
:102C5000DA60C3E76268002A05D09078021C9842C7
:102C600000D21A1CD3B2E468BBE77A6892789A4221
:102C7000ADD93800FEF734FE0122044B20001B685A
:102C80005A70FFF75FFD2000A2E7C0460C1100203C
:102C9000C010002070B5428804000E00164D002AB6
:102CA00008D12B68196A8360C16018620020013264
:102CB000628070BD836829688B42F7D00120002EA6
:102CC000F7D08A789978914203D29A701800FEF76B
:102CD000B5FE6268002A09D029682000FEF700FED0
:102CE00030000921FFF74EFD0120E2E72B68636009
:102CF0005A609C60F4E7C0460C11002010B5032117
:102D0000FFF740FD10BD0000436810B5002B0ED04A
:102D1000FEF700FE0400FEF7A9FE0121200061700D
:102D2000FEF7D0FF21000448FEF7DAFD10BD43880E
:102D300001334380FAE7C046C010002010B50400FC
:102D4000012100F047FB01206406E40EA04010BD05
:102D500070B505000C0029804B1C0FD00800FFF750
:102D6000EDFF074B240BE418A401231DEB60043393
:102D70002B611434083368606B61AC6070BDC04671
:102D8000C03FE00310B50023C05E00F043FB10BD60
:102D9000002902D0012906D0704782684168136873
:102DA0008B431360F8E78268416813680B43F8E7C8
:102DB0002A22034B1A700022024B1A6130BF70475F
:102DC00000E0074000ED00E00022064B1A6098602A
:102DD000196840320A431A60012219680A431A60CE
:102DE0007047C0460000044080230D4A70B511684A
:102DF0000C4D0B4313602C68002C05D00A48013C95
:102E0000FFF7E2FF2C6070BD084D2888002803D032
:102E1000FFF7DAFF2C80F6E7FEF7F6FBF3E7C04694
:102E200000000440E4070020FFFF0000E807002046
:102E3000F7B5684B1A680192002A00D08FE0012490
:102E40001C608023644E654A1B04B158644D0B43DB
:102E5000B350019A634B644F1A6001235B426B616C
:102E60000533EB61EB692343EB61604B3868F15844
:102E70000723090C1940091901F0F4F85C4B5D496E
:102E8000C01801F0EFF85C4A01386860EC60B35894
:102E90005A4D2343B350019B1C202B60584900F02E
:102EA0008FFD8022574B52051A603F224F4B3F68DF
:102EB000F058554E000F3378001947439343802B49
:102EC00033D03378934364D173795B0653D4B379A9
:102ED000DB065ED43378383ADB0871781340293248
:102EE0009C40114203D0FF2364015B011C401F2260
:102EF000F3789343602B35D007D8202B0ED0402B8E
:102F00002ED0002B35D1A02106E0A02B2DD0C02B38
:102F10002DD0802B2DD1B721890001E0A021C9003F
:102F20002000784301F09EF80700002F31D031498E
:102F3000380001F01DF90C1E2BD12E49380001F08C
:102F400091F80723012842D02100012340080128DD
:102F50001AD17823C9001940753B19436960F7BD40
:102F6000F021DCE7A0210901DAE7B721D7E72749FB
:102F7000D6E72749D4E71F2330797179184001300B
:102F8000194078431831CDE7184202D10131400889
:102F9000DDE7022332781343337001237278134341
:102FA000737000230E226B60337A13400AD0022B19
:102FB0000CD0337A934333720423327A1A43327239
:102FC0006A6801E008236A68134300E06B686B607D
:102FD000C5E7C046E0070020007004403C10000038
:102FE000FC70034000700340E0F0FF1F441000003D
:102FF00020A1070040420F003810000000000440EC
:10300000E92D000000E100E00040064095080000C6
:10301000710B0000054B10B51B68002B01D1FFF7A9
:1030200007FF034B9869C04310BDC046E00700206E
:10303000FC7003404021024A13688B4313607047C1
:10304000000004407047000070B50400FFF7E2FF85
:10305000201A002800DC0120084D094E041480B21B
:103060002C603080002C05D00648013CFFF7ACFEF8
:103070002C6070BDFFF7A8FE3480FAE7E40700205B
:10308000E8070020FFFF00000C4A0D4B10B59858D0
:103090000C4A000F1268013050430B4A51790B4A19
:1030A000490604D499580A4C2140995010BD8021FA
:1030B0009C584902214399504008F7E7441000000A
:1030C00000700440E0F0FF1F0040064004100000C4
:1030D000FFFFFEFF70B50C1C05000021201C01F055
:1030E00049F9002818D1FE21201C890501F056F964
:1030F000002801D0FE24A4052B68AE6818680130B2
:1031000002F026F8211C01F0F7FC01F05BF9002227
:103110006B6830601A6070BD0024EDE703008268C0
:103120001B6870B510681C6802F012F8051C601C62
:1031300002F00EF8011C281C01F0EEFAFE218905B0
:10314000041C01F02BF9002801D0FE24A405201C4A
:1031500070BD0000F8B50F000400FFF7DFFF051C8D
:10316000380001F0A5FF074B2668196801F0C4FC80
:1031700001F028F901383060291C2000FFF7AAFF70
:10318000F8BDC046EC07002010B50400081C054936
:1031900001F0B2FC01F06CFF01002000FFF7DAFF44
:1031A00010BDC04600247449F0B585B000910600FA
:1031B0006A490098FEF792FA6B4601909B88684D29
:1031C0000393674B674C18783F2398430290664FF0
:1031D00067D1FFF759FF002863D08023E2595B04D1
:1031E00013433F22E3512B780298934301D1FFF719
:1031F0004BFF01F0ADFF5D4901F08EFA0025071C81
:10320000FE21381C890501F0C9F8002808D0FC21EE
:10321000381C890501F070FC0135071C072DEFD122
:10322000534B01211F60039B524F1B0A02936B46B5
:103230001A79E3599C46009B180B0B000930834018
:1032400018006346184318239C46029BE0519C4497
:10325000634699404848494B27580F4302992750E5
:10326000CB18082128200D43511C02321B03C90032
:10327000D20059189A181D604860B2601A000433D1
:1032800008323260736030003D49FFF763FF300061
:103290000021FFF71FFF31490098FEF7E5F905B05F
:1032A000F0BD8023E2599B0413433F22E351354B89
:1032B000E058354B000F1B68013058432B7893437F
:1032C000802B96D02B78934344D16B7901321340F5
:1032D00037D1AA79D2063FD4012230212B786F78DA
:1032E0009B065B0F9A400F4203D0FF2352015B0104
:1032F0001A401F21EB788B43602B19D007D8202B65
:103300000ED0402B12D0002B19D1A02106E0A02B0B
:1033100011D0C02B11D0802B11D1B721890001E031
:10332000A021C900504300F09DFE62E7F021F8E7BC
:10333000A0210901F6E7B721F3E71449F2E71449A0
:10334000F0E71F222B79697913400133114058436C
:103350001831E8E700204CE718004AE7187600002B
:10336000004006400070044004100000002474492E
:10337000EC070020381000003C100000380004006A
:10338000204E000044100000E0F0FF1F95080000F0
:10339000710B000010B58468080001F089FE044B31
:1033A000196801F0A9FB01F00DF8206010BDC046BE
:1033B000EC07002010B50400081C054901F09CFB37
:1033C00001F056FE01002000FFF7E4FF10BDC046EB
:1033D00000247449030BF0B51F0001220937BA40DD
:1033E000084D094C09022E5932432A51074A9B18AD
:1033F0007C221B03104018180368054A1340194328
:103400000160F0BD00700440381000004900040065
:10341000FFF8FFFF0322034BC018036893431943CF
:1034200001607047009004403F2100200E4A10B513
:1034300013788B4383420FD10C490D4B58580D49DB
:10344000000F09680130484351790B4A490604D4FA
:1034500099580A4C2140995010BD80219C5849022E
:10346000214399504008F7E700400640441000000F
:1034700000700440E0F0FF1F04100000FFFFFEFF9B
:1034800070B50A4D8C000600605900280DD073B24B
:10349000002B03DA064B01211B689847B30604D5BD
:1034A000034B00211B682859984770BDF407002082
:1034B000F007002010B5034B01211879C0B2FFF7C7
:1034C000DFFF10BD00B0064010B5034B0221187994
:1034D000C0B2FFF7D5FF10BD00C0064010B5074CC5
:1034E00000212079C0B2FFF7CBFF082322791A42CE
:1034F00002D022791343237110BDC04600A00640BC
:10350000F7B50D000C2103680600DC780C4001942F
:10351000DA788A43DA70414A934200D073E0FFF7C9
:1035200083FF002814D0FFF77FFF290100F09AFDE8
:103530001F253268030A11782B40A9430B431370EF
:10354000C0B253785070D378019C1C43D470F7BD3F
:10355000334B344AD758344B3F0F1A683F23013757
:103560005743324A9C46117899431300802953D01F
:1035700064461178A143D8D1517949063AD4927959
:10358000D206D2D419785A78890694460122490F76
:103590008A4030206146014203D0FF215201490197
:1035A0000A401F21DB788B43602B1AD007D8202BD1
:1035B0000ED0402B13D0002B1AD1A02106E0A02B57
:1035C00012D0C02B12D0802B12D1B721890001E07C
:1035D000A021C9007A43100000F044FDA5E7F021C6
:1035E000F7E7A0210901F5E7B721F2E71049F1E774
:1035F0001049EFE71F231079517918400130194025
:1036000078431831E8E7064B064AD158064B490380
:10361000490F01311868DFE7380086E700A006404F
:103620004410000000700440E0F0FF1F004006401E
:1036300095080000710B0000F0B50C270168C878F0
:10364000CE783840BE43CE70012A15D0002A13D060
:10365000022A14D064002C43E4B28C7020240A782F
:10366000013BA2430A700A785B011343DBB20B7083
:10367000CB781843C870F0BD15001400EAE70025A8
:103680000124E7E7F8B50E000400494930001700AF
:10369000FEF724F8474905003800FEF71FF801003F
:1036A0002800FDF7FDFF444B05002060984200D143
:1036B0006CE0424B984200D170E0414B984210D1EF
:1036C000FFF7B2FE3F4B404A00285BD0802198585C
:1036D000C9040143995080223C49D2005858024302
:1036E0005A500C212368DA788A43DA700822D97894
:1036F0000A43DA70402219791142FCD00C21DA78A1
:103700008A43DA702C4B9D424ED02C4B9D424DD0BB
:103710002B4B9D4201D1002363609621200089013B
:10372000FFF7EEFE0123002208212000FFF784FFAF
:103730001F493000FDF798FF1E493800FDF794FF40
:10374000731C08D0082322683000D1780B43D37053
:103750000221FFF75FFE7B1C08D00423226838009B
:10376000D1780B43D3700221FFF754FE144B9D42D6
:1037700007D10122164B21001A601648073203F0C8
:10378000B8F8F8BD802198580905A2E780230D49B3
:103790000E4A1B01885803438B50A2E78023094936
:1037A0000A4A5B018858F6E70123B5E70223B3E72D
:1037B00040780000D477000000B0064000C006400A
:1037C00000A0064000700440041000003410000007
:1037D0000008002058110020034B1960436803497A
:1037E0009B005A507047C046F0070020F4070020A5
:1037F0000368274810B5834216D02648834216D066
:103800002548834216D10C242448002A1DD00029C3
:1038100013D0012916D00100200000F0D1F80123B7
:10382000A3401F4A136010BD1E480D24EDE71E483B
:103830000E24EAE700200400E7E72022D9780A43B3
:10384000DA70E8E7DA788021F9E7002904D0012965
:103850000BD0002904D00CE02021DA788A43DA70FA
:10386000DB785BB2DB43DB0F07E07F21DA780A40CD
:10387000DA70DA78012352099343002BD3D0012365
:10388000A3400A4AD367BFF34F8FBFF36F8FCAE7D6
:1038900000B0064000C0064000A00640DD34000035
:1038A00000E100E0B5340000C934000004E100E0AC
:1038B000082203681979114202D019790A431A7152
:1038C000187920231840704710B504002000FFF736
:1038D000EFFF0028FAD02368D879C0B210BD0822C3
:1038E00003681979114202D019790A431A711879BB
:1038F0007F239843704770B505000C002800FFF740
:10390000EEFF0028FAD02B68E4B2DC7170BD7FB501
:1039100010216846FDF75CFE07B000BD882200203C
:103920001F4B520110B5985080221E4992005C58DE
:1039300022435A501C491D4A1D4C99501D4B996CED
:1039400021409964DA6C1F212240DA6489221A4BE3
:103950001A701A4B653A5A7076321A70DA780A4041
:10396000DA7001221A7158710F3299791142FCD123
:103970000C219A790A40082AFBD10C2138325A715D
:103980009A790A40082AFBD1383299791142FCD041
:103990001A220C211A709A790A400C2AFBD110BD08
:1039A00000700440381000000000011044100000B6
:1039B000FFF8FFFE00900440005006400040064023
:1039C0000A4AF0B5936895681C00002D0AD11D00C5
:1039D000074CC035E61A1F68F7500433AB42FAD1E2
:1039E0009460034C103080000151F0BD00ED00E008
:1039F00000F0FF1F10B50400FDF78AFE2368002BBE
:103A000005D1E068FDF72AFE012360602360FDF721
:103A100095FE10BD70B50500FDF77AFE2C68002CF0
:103A200004D0E868FDF71AFE6C68041BFDF786FEFB
:103A3000200070BD70B50500FDF76AFE2800AC6877
:103A4000FFF7E8FF2418FDF779FE200070BD10B5E0
:103A5000FFF7F0FFFA21890000F08EFB10BD10B5D2
:103A60000400FDF755FEE068FDF7F8FD00236060F7
:103A7000A360FDF763FE10BD002310B50360436033
:103A800083600400FDF7BCFDE0602000FFF7E7FF66
:103A9000200010BD10B50368984710BD002801D064
:103AA0000B6803607047704770B504000D008842D2
:103AB0000CD0FDF7D1FB002C08D0EB68002B03D015
:103AC0005B68290020009847EB68E360200070BD28
:103AD0007047000010B50400034B08330360FDF786
:103AE000C5FB200010BDC046B878000010B504002A
:103AF000FFF7F0FF200000F0F3F9200010BD0000F8
:103B000010B5040000F028F8024B200008332360B1
:103B100010BDC046B87800007047704770470B0171
:103B2000013110B5090141188A680C33C3181268B5
:103B30001800904710BD70B504000D0003681B68A5
:103B400098472900201DFFF7DBFC2368E5625B68CE
:103B50002000984770BD0000F0B587B00192194A67
:103B60000400083202600022174E184DC362426002
:103B70008260826182620F000C3002A90595029674
:103B8000FFF792FF02A8FDF767FB200002A91C3097
:103B900005950296251DFFF787FF02A8FDF75CFB40
:103BA000019A39002800FFF76DFDE16A2800FFF750
:103BB000A7FC280022000649FFF70EFE200007B0F0
:103BC000F0BDC046D0780000193B0000AC78000082
:103BD0001F3B0000F0B50F0004001500036887B01C
:103BE0001B689847FDF794FDFB6828010193261D8B
:103BF000002B11D00C3020183900FFF755FF01229F
:103C000029003000FFF7F4FDFDF798FD2368200040
:103C10005B68984707B0F0BD064B0C300293064B2B
:103C200002A920180593FFF73FFF02A8FDF714FB38
:103C3000019AE5E7193B0000AC78000010B502F0EE
:103C4000C5FE10BD10B502F01FFF10BD10B502F08B
:103C500073FE10BD70B50400FFF7DCF9FA21050012
:103C60008900200000F088FA061E03DDFDF74AFDFA
:103C7000002805D1FFF7CEF9401BA042FAD370BD52
:103C8000300000F03BF9F5E7FA2310B59B005843EC
:103C9000FFF7E0FF10BD0000084B10B51B68002BBC
:103CA0000AD1074C082120000422FFF7EBFC9621E3
:103CB00020008901FFF724FC10BDC0460008002049
:103CC000581100207047000010B50400022801DCE4
:103CD000002010BD02F022FC092300220360033CF7
:103CE000084BA400E058E250904208D003681B69DA
:103CF0009847041EECDA02F011FC644204600120D3
:103D00004042E6E70408002070B506000D001400EC
:103D100002F004FC09230360022E0EDC124B1B6828
:103D2000002B01D1FFF7B8FF2E19B54216D0297824
:103D30000E48FFF7E0FD0135F7E7033E0C4BB600F8
:103D4000F05800280CD003682200DB68290098474F
:103D5000041E03DA02F0E2FB63420360200070BD40
:103D600001246442FAE7C0460008002058110020F0
:103D70000408002070B504000D00160002F0CEFB10
:103D800009230360022C0CDC104B1B68002B01D1B3
:103D9000FFF782FF0E48FFF797FD012428702000EF
:103DA00070BD033C0B4BA400E05800280BD0036807
:103DB00032009B6829009847041EF0DA02F0AEFB3F
:103DC00063420360EBE701246442E8E70008002057
:103DD000581100200408002070B504000D001600E2
:103DE00002F09CFB092303600020022C0ADD033C47
:103DF000064BA400E058002805D003683200DB69B8
:103E00002900984770BD01204042FBE704080020CC
:103E100010B5FFF757FFFDF743FD10BD704710B514
:103E2000FFF7FCFFFDF764F810BD00000C4910B56A
:103E30000B681818EFF30882904205D30C2201207A
:103E4000084B40421A6010BD074A1468002C04D089
:103E5000064A126812199042F0D208601800F2E780
:103E6000E4F0FF1F60110020040900200809002071
:103E700070B50A4C05002368986802F00BFC2368B3
:103E8000D86802F007FCFDF739FC002801D0FDF7E7
:103E90006DFC002D01D0FDF781FCFEE7E8F0FF1F6F
:103EA0000120704710B5FFF7E3FF10B5FDF706FDE1
:103EB00010BD10B5FDF70CFD10BD000010B502F0EF
:103EC000F9FC041E02D10248FDF762FC200010BD7F
:103ED000E878000010B5002801D002F0F5FC10BD14
:103EE00010B5FFF7F7FF10BD034B10B51B68002B93
:103EF00000D0984710BDC0460C09002010B5FEF751
:103F0000DFF910BD80F309887047EFF3098070472F
:103F1000684680F309884A480078C00703D1032027
:103F200080F314887047022080F314887047454B53
:103F30009C46EFF305831B0605D1EFF31483DB07E3
:103F400001D000DF704760473F4B9C46EFF305838D
:103F50001B0605D1EFF31483DB0701D000DF7047A8
:103F60006047EFF3098081690239097800292BD174
:103F7000A6461FC8A4467446E047EFF3098307C36B
:103F8000324B06CB91421CD0083B00290DD0EFF3F9
:103F900009802038C862F0C044464D4656465F4608
:103FA000F0C00CB4FDF72EFE0CBC1A60D06A1030C5
:103FB000F0C8A046A946B246BB4680F3098820381F
:103FC000F0C80220C043004710B5214A1268914250
:103FD00009D8204C89006458A6461FC8A446F0475B
:103FE000EFF309840FC410BDFDF790FD174B06CB0E
:103FF00091421AD0083BEFF309802038C862F0C024
:1040000044464D4656465F46F0C00CB4FDF7FAFDF7
:104010000CBC1A60D06A1030F0C8A046A946B2465F
:10402000BB4680F309882038F0C80220C04300470F
:10403000FDF7CAFDDAE7FDF7C5FDFDF7C5FDD5E7DC
:10404000DA7500001D1D00003B1D00000C11002052
:1040500000000000FCFFFFFFFEE7FEE7FEE7FEE7D3
:10406000FEE7FEE7002243088B4274D303098B422C
:104070005FD3030A8B4244D3030B8B4228D3030C38
:104080008B420DD3FF22090212BA030C8B4202D3DA
:104090001212090265D0030B8B4219D300E0090A02
:1040A000C30B8B4201D3CB03C01A5241830B8B420B
:1040B00001D38B03C01A5241430B8B4201D34B03F4
:1040C000C01A5241030B8B4201D30B03C01A524159
:1040D000C30A8B4201D3CB02C01A5241830A8B42DE
:1040E00001D38B02C01A5241430A8B4201D34B02C7
:1040F000C01A5241030A8B4201D30B02C01A52412B
:10410000CDD2C3098B4201D3CB01C01A52418309DE
:104110008B4201D38B01C01A524143098B4201D318
:104120004B01C01A524103098B4201D30B01C01A43
:104130005241C3088B4201D3CB00C01A52418308BD
:104140008B4201D38B00C01A524143088B4201D3EA
:104150004B00C01A5241411A00D20146524110464A
:104160007047FFE701B5002000F0F0F802BDC0463F
:104170000029F7D076E7704703460B437FD400222F
:1041800043088B4274D303098B425FD3030A8B42EB
:1041900044D3030B8B4228D3030C8B420DD3FF2255
:1041A000090212BA030C8B4202D31212090265D023
:1041B000030B8B4219D300E0090AC30B8B4201D3D6
:1041C000CB03C01A5241830B8B4201D38B03C01A1D
:1041D0005241430B8B4201D34B03C01A5241030B94
:1041E0008B4201D30B03C01A5241C30A8B4201D345
:1041F000CB02C01A5241830A8B4201D38B02C01AF0
:104200005241430A8B4201D34B02C01A5241030A66
:104210008B4201D30B02C01A5241CDD2C3098B424B
:1042200001D3CB01C01A524183098B4201D38B01C8
:10423000C01A524143098B4201D34B01C01A52416B
:1042400003098B4201D30B01C01A5241C3088B42B0
:1042500001D3CB00C01A524183088B4201D38B009B
:10426000C01A524143088B4201D34B00C01A52413D
:10427000411A00D201465241104670475DE0CA0F14
:1042800000D04942031000D34042534000229C46D4
:1042900003098B422DD3030A8B4212D3FC228901DE
:1042A00012BA030A8B420CD3890192118B4208D3B4
:1042B000890192118B4204D389013AD0921100E016
:1042C0008909C3098B4201D3CB01C01A524183092A
:1042D0008B4201D38B01C01A524143098B4201D357
:1042E0004B01C01A524103098B4201D30B01C01A82
:1042F0005241C3088B4201D3CB00C01A52418308FC
:104300008B4201D38B00C01A5241D9D243088B4251
:1043100001D34B00C01A5241411A00D201466346F4
:1043200052415B10104601D34042002B00D5494258
:10433000704763465B1000D3404201B5002000F097
:1043400005F802BD0029F8D016E770477047C0464F
:104350008446081C6146FFE71FB500F08BFB002870
:1043600001D40021C8421FBD10B500F01DFB404222
:10437000013010BD10B500F07DFB002801DB0020EE
:1043800010BD012010BDC04610B500F073FB002821
:1043900001DD002010BD012010BDC04610B500F0A9
:1043A00029FB002801DC002010BD012010BDC04603
:1043B00010B500F01FFB002801DA002010BD01201D
:1043C00010BDC0469E2110B5C905041CFFF7F0FFC3
:1043D000002803D1201C00F04BFE10BD9E21201CA4
:1043E000C90500F0A9FC00F043FE80231B069C4693
:1043F0006044F2E7F0B5C6464E024702760A7B0AF1
:104400004400C50FF7004800984600B5240E2A0066
:10441000DB00000EC90FBC468D4267D0221A002A6D
:1044200000DCA5E000283AD1002F00D193E0511E16
:10443000002900D0BCE00124DB1B5A0146D59B01BA
:104440009E09300002F04CF805388640844200DDB9
:104450009DE0041B320020200134E240041BA640F2
:1044600033005E1EB341002413435A0704D00F22C9
:104470001A40042A00D004335A0129D50134FF2CF4
:1044800000D181E02A009B015B0AE4B25B02E405F3
:10449000580AD2072043104304BC9046F0BDFF2CBD
:1044A000E3D080213800C904084384461B2A00DD7C
:1044B00082E020206146D140821A6046904002008E
:1044C000501E82410A439B1A5A01B8D45A07CED1D2
:1044D000DE082A00FF2C3AD1002E00D1AEE0802366
:1044E000DB0333435B025B0AFF24CFE7211A002979
:1044F00052DD002831D0FF2CB7D080203E00C00410
:104500000643B4461B2900DDAAE020266046C840C9
:10451000711A66468E4031004E1EB14101435B1850
:104520005901D3D50134FF2C00D187E0012278490D
:104530001A405B080B40134397E7002C00D0A7E01C
:10454000002B00D0B6E03B1E62D100260022730291
:104550005B0AE4B29AE7140087E7002F4DD0481EAB
:10456000002857D1634401245A01AFD50224DDE766
:10457000002A24D1621CD2B2012ADEDDDE1B7201C8
:1045800035D5FE1A0D005CE72A0000237EE73300D4
:10459000604A241A134068E7002963D1611CC8B23D
:1045A00001284EDDFF2949D063445B080C005CE71D
:1045B000FF2A41D00A0079E701229B1A84E7002CE8
:1045C0001DD0FF2822D08024E404524223431B2A1A
:1045D00000DD8AE01C002025D440AA1A93405A1E10
:1045E0009341234362460400D31A0D0025E7002EB1
:1045F00000D026E700220024A9E70C0035E7002BB5
:104600004DD0D243002AEDD0FF28E0D16346FF24ED
:104610000D002AE7FF290FD0010073E7002B61D0BE
:10462000FF24002F00D120E780224146D20311420F
:1046300002D0164200D13B00FF2416E7FF240023DE
:1046400024E7002CEAD1002B58D0002F00D10CE732
:1046500063445A0100D439E72E4A0C00134004E7A2
:1046600001215CE7002C1ED1002B40D0C94300295A
:104670000BD0FF2836D01B2947DC1C002026CC405D
:10468000711A8B40591E8B4123436344040047E752
:10469000002B18D13B1E2DD00D00FF24E5E63B007A
:1046A00004000D00E1E6FF281CD08024E404494208
:1046B0002343E0E7002F00D1D7E6DE1B72011FD5B0
:1046C000FB1A0D00D1E6FF24002F00D1CDE6802299
:1046D0004046D2031042AFD01642ADD13B000D0090
:1046E000FF24C2E66346FF24BFE601237AE73B00CE
:1046F0000400BAE680260022F603F0E63B00B4E6AA
:10470000331E00D0E2E6002221E70123BDE7C046C8
:10471000FFFFFF7DFFFFFFFBF0B557464E46DE462D
:104720004546E0B544024300C60F83B00F1C640A3F
:104730001B0EB24653D0FF2B27D08022E400D204B8
:1047400014437F22524290469844002399469B4648
:104750007D027800FB0F6D0A000E009324D0FF2825
:1047600046D080230021ED00DB041D437F384746FF
:10477000381A4F460F43BF00B9463300009A874F9F
:1047800053404A46BA5801939746002C4ED108230D
:104790009946F7339846FD3B9B467D027800FB0F18
:1047A0006D0A000E0093DAD1002D26D100200121E0
:1047B0003300009A7A4F53404246101A4A460A4341
:1047C0009200BA581D009746009B2C009A468B46D3
:1047D0005B46022B31D15346FF21002438E0002CE8
:1047E00017D1042399460023984601339B46AFE72F
:1047F000FF20002D0BD10221DAE7280001F070FE26
:10480000431F9D4076235B42181A0021AFE7032126
:10481000ADE7200001F064FE431F9C4076235B421D
:104820001B1A9846002399469B4691E70C2399460C
:10483000F3339846FC3B9B468AE7032B00D1A5E067
:104840005546012B00D081E00123002100242B409C
:104850006402C905600ADB070843184303B03CBC87
:1048600090469946A246AB46F0BD80240023E4035F
:10487000FF21EDE7FF210024EAE70123591A1B2954
:1048800066DD019A134000210024E1E78023DB0369
:104890001C4238D01D4251D01C436402640A3300CC
:1048A000FF21D5E763016C01A3423BD21B26002107
:1048B000013801251F0049005B00002F01DB9C42ED
:1048C00001D81B1B2943013E002EF3D11C00631E9F
:1048D0009C410C4301007F310029CEDD630704D0E9
:1048E0000F232340042B00D00434230103D50100FF
:1048F0002C4B80311C40FE290DDD0123019AFF2144
:1049000013400024A4E78023DB031C436402640AF1
:104910003300FF219CE70123019AA401640AC9B274
:10492000134095E71B1B1A260121C2E7009B8B460B
:104930009A4600244CE76302E5D500258024E40371
:104940002C436402640A009BFF2181E70195C1E7C3
:1049500023002020CB40411A8C40611E8C411C4317
:10496000630704D00F232340042B00D004346301D9
:1049700005D50123019A01211340002468E7012392
:10498000019AA401640A1340002161E78023DB033C
:104990001C436402640A5346FF2159E7087900006A
:1049A00048790000FFFFFFF770B5420045024E0254
:1049B0004C00C30F6D0A120E760A240EC90F012097
:1049C000FF2A06D0FF2C03D0A24201D1B54206D067
:1049D00070BD002DFCD1FF2CFAD1002EF8D18B42F6
:1049E00006D00120002AF3D12800451EA841EFE798
:1049F0000020EDE7F0B5420045024C02C30F48002D
:104A00006D0A120E640A000EC90FFF2A1ED0FF287D
:104A100021D0002A0AD16E426E41F6B200280FD191
:104A2000002C0DD10020002D09D005E0002801D177
:104A3000002C01D08B4211D0012158420843F0BD17
:104A4000002EF7D0012001390843F8E7002DDED011
:104A500002204042F3E7002CDBD0F9E78242EBDC96
:104A600004DBA542E8D80020A542E8D20121581E67
:104A70000843E4E7F0B542004D024C004602760AD6
:104A8000120EC30F6D0A240EC90FFF2A16D0FF2C79
:104A900018D0002A0AD170427041C0B2002C15D043
:104AA000002805D0012001390843F0BD002C13D0A7
:104AB000994214D001205B421843F6E70220002EF1
:104AC000F3D1E4E70220002DEFD1E2E7002DE7D19A
:104AD0000020002EE9D0EDE7002DE9D1EAE7A2425F
:104AE00006DCDFDBAE4203D80020AE42DAD3DCE7DF
:104AF000012049420843D8E7F8B557464E46454697
:104B0000DE46E0B54702460088467F0A360EC40FEF
:104B1000002E47D0FF2E24D0FB008027FF041F4328
:104B2000002399469A467F3E43465D025800DB0FBC
:104B30006D0A000E984643D0FF283BD0EB0080253D
:104B40000022ED041D437F383618731C41469B46F6
:104B50004B46614013430F2B64D875489B00C358E4
:104B60009F46002F42D108239946063BFF269A46CE
:104B7000DAE74146022A28D0032A00D1CEE0012AF2
:104B800000D0ACE0114000200022CCB24002D2059F
:104B9000400AE407104320433CBC90469946A24695
:104BA000AB46F8BD002F15D104239946033B0026E0
:104BB0009A46B9E7FF200222002DC5D00322C3E7A1
:104BC000002D19D100200122BEE70124FF220C4054
:104BD0000020DBE7380001F083FC7626431F9F406E
:104BE00000237642361A99469A469DE70C23994649
:104BF000093BFF269A4697E7280001F071FC431F06
:104C00009D4076235B42181A00229DE780200024F5
:104C1000C003FF22BAE73D005246ABE73D0021004A
:104C20005246A7E73B0C9C462A04120C2B0C14009E
:104C3000604665463F043F0C7C4342435D437B43F3
:104C4000270C9B18FF18BA4203D980235B029C46AD
:104C5000654424043A04240C121993015C1EA341F8
:104C60003F0C920E7D191A43AD0115432B0104D55B
:104C700001235E466A081D40154332007F32002A38
:104C800025DD6B0704D00F232B40042B00D0043507
:104C90002B0103D53200274B80321D40FE2A94DCC5
:104CA0000124A801400AD2B20C406FE78020C00363
:104CB000074207D0054205D128434002400A444636
:104CC000FF2263E738434002400AFF225EE70124E7
:104CD000A31A1B2B05DD0C400022002056E75E4680
:104CE000CBE72A002020DA40C31A9D402B005D1E2E
:104CF000AB4113435A0704D00F221A40042A00D0B4
:104D000004335A0104D5012401220C4000203DE760
:104D100001249B01580A0C40002237E7802001241F
:104D2000C00328434002400A0C40FF222EE7C04641
:104D300088790000FFFFFFF7F0B54F46D64646469C
:104D40004400C0B5C20F47024802400A8446664686
:104D50007B0A4800C90F9A46240E1500DB00000E9E
:104D60008946F600FF2800D18FE001214F464F40D1
:104D70003900914266D0221A002A00DC9DE000280A
:104D80003DD1002E00D18BE0511E002900D0B5E0AE
:104D900001249B1B5A0144D59B019F09380001F057
:104DA0009FFB05388740844200DD96E0041B3A00F3
:104DB00020200134E240041BA7403B005F1EBB41A2
:104DC000002413435A0704D00F221A40042A00D0AB
:104DD00004335A0127D50134FF2C00D179E0012298
:104DE0009B015B0AE4B22A405B02E405580AD20741
:104DF000204310431CBC90469946A246F0BDFF2CB0
:104E0000E0D08021C9040E431B2A7BDC3100202026
:104E1000D140821A9640721E96410E439B1B5A0146
:104E2000BAD45A07D0D10122DF082A40FF2C33D14F
:104E3000002F00D1A8E08023DB033B435B025B0A29
:104E4000FF24D1E7211A00294CDD00282AD0FF2CAD
:104E5000B8D08020C00406431B2900DDAFE030003D
:104E60002027C840791A8E40711E8E4106439B1937
:104E70005901D6D50134FF2C00D185E001227A49B1
:104E80001A405B080B4013439CE7002E00D070E7EC
:104E90006BE73B1EC5D100227B025B0AE4B2A3E7AD
:104EA00014008FE7002E4DD0481E002857D19B19C3
:104EB00001245A01B5D50224E0E7002A25D1621C5D
:104EC000D2B2012A72DD9F1B7A0135D5F71A0D0087
:104ED00064E7012200232A4086E73B00634A241A44
:104EE00013406FE700296CD1611CC8B201284EDD68
:104EF000FF2949D09B195B080C0063E7FF2A41D0CA
:104F00000A0081E701269B1B89E7002C1CD0FF28A3
:104F100021D08024E404524223431B2A00DD96E082
:104F20001C002025D440AA1A93405A1E93412343C3
:104F3000F31A04000D002DE7002F00D02EE7002209
:104F40000024A9E70C003DE7002B58D0D243002AEB
:104F5000EED0FF28E1D13300FF240D0032E7FF2916
:104F600010D0010078E7002B6ED0FF24002E00D176
:104F700028E780225146D203114203D061461142F4
:104F800000D13300FF241DE7FF2400232CE7002C71
:104F9000E9D1002B63D0002E00D113E79B195A01F1
:104FA00000D43EE7314A0C0013400BE7002C1ED121
:104FB000002B2FD1002E4FD033000D0002E7012629
:104FC00055E7002C1FD1002B43D0C94300290BD03B
:104FD000FF2839D01B2944DC1C002027CC40791A3B
:104FE0008B40591E8B4123439B19040040E7002B43
:104FF0001AD1002E24D180270022FF031BE73300A3
:1050000004000D00DEE6FF281ED08024E40449429F
:105010002343DFE7002E00D1D4E69F1B7A0100D4A2
:1050200037E7F31A0D00CDE6FF24002E00D1C9E6C4
:1050300080225046D2031042A4D060461042A1D133
:1050400033000D00FF24BDE63300FF24BAE6012340
:105050006EE733000400B5E6002700221CE73300AA
:10506000B0E60123C0E7C046FFFFFF7DFFFFFFFB67
:1050700041024300C20F490A1B0E00207E2B0DDDAA
:105080009D2B0CDC802000040143952B0ADC96202C
:10509000C31AD9404842002A00D108007047034B88
:1050A000D018FBE7963B9940F4E7C046FFFFFF7F2F
:1050B00070B5002830D0C317C4185C40C50F20005D
:1050C00001F00EFA9E231B1A962B0DDC9622D21AA3
:1050D00094402A006402640ADBB26402DB05600AC1
:1050E000D2071843104370BD992B19DC9922D21AAC
:1050F000002A29DD94402200144C1440510704D0AA
:105100000F210A40042A00D00434620113D4A40100
:10511000640ADBB22A00E0E7002200230024DCE777
:1051200005222100121AD140B922D21A9440621EDF
:1051300094410C43DAE7054B2A001C409F23A4014D
:105140001B1A640ADBB2C8E72200D5E7FFFFFFFBAA
:1051500010B5041E27D001F0C3F99E231B1A962B0D
:105160000ADC9622D21A94406402640ADBB264021A
:10517000DB05600A184310BD992B17DC9922D21A5F
:10518000002A27DD94402200134C1440510704D01C
:105190000F210A40042A00D00434620112D4A40171
:1051A000640ADBB2E3E700230024E0E7B922210030
:1051B000D21A91400A00511E8A410521091ACC4099
:1051C0001443DBE7044B1C409F23A4011B1A640A11
:1051D000DBB2CCE72200D7E7FFFFFFFBF8B545467F
:1051E000DE4657464E460C03E0B54E00C90F8846D2
:1051F0000D00610A440F0C43C70019035800DB0F70
:105200009B464B0A510F0B43760D400D1900D200FF
:10521000D84500D1AEE0351A002D00DCF6E00028BC
:105220000FD1134300D1DBE06B1E002B00D037E120
:10523000BA1A9742BF41641A7F42E41B0126170045
:1052400024E0C64B9E424DD080231B041943382DC9
:1052500000DD07E11F2D00DD38E12020431B9A46C9
:105260000B0050468340994613004846EB401843D4
:10527000030050468240501E8241E9401A43BA1A48
:10528000611A9742A441170064420C1B230262D5A5
:105290006402650A002D00D1DFE0280001F020F94A
:1052A0000300083B1F2B00DDD2E020223C00D21A75
:1052B0009D40D4409F4025439E4200DDC4E09E1B9C
:1052C000731C1F2B00DDF1E0202238002900D21AC8
:1052D000D840914097402C000143781E8741DC4024
:1052E00000260F437B0709D00F233B40042B05D03A
:1052F0003B1DBB42BF417F42E4191F0023022CD556
:10530000964B01369E4200D19AE04546944BFF08E9
:105310001C406007760564020743240B760D0021CC
:105320002403230B0C0D8F4A24051C431440330522
:1053300023435B00ED075B082B43380019003CBC9E
:1053400090469946A246AB46F8BD6446044300D158
:1053500011E2040067467B07C6D145466007FF0897
:105360000743E4087D4B9E4230D024037605240B8E
:10537000760DD4E7331A9A46002B78DD002831D019
:1053800076488642AED08020000401435346382B35
:1053900000DCE9E00A43511E8A410021D219BA42D9
:1053A000BF4109197C4217000C192302D3D56B4B5E
:1053B00001369E4200D13AE10120694B1C407B0836
:1053C00007401F43E007074364088BE723003B4384
:1053D00000D1CBE18022120314432403240B9EE767
:1053E0002E007FE70800104300D1B4E0581E0028CB
:1053F00000D0DEE0BA18BA429B4164185B42E41860
:10540000170001262302A6D50226D5E7002D6ED16E
:10541000701C4005400D012800DCF9E0B81A8446F4
:1054200087428041E51A40422D1A280200D489E0C3
:10543000D71BBA4292411C1B5242A51AD84629E7F3
:105440004546002400276AE7454CF61A2C4049E7F8
:105450003D002838854000272EE7380001F040F84D
:1054600020301DE70A43511E8A41002107E7002B27
:1054700000D0F3E0701C43055B0D012B00DCADE0B8
:10548000364B984200D1D1E0BA18BA42BF416418F5
:105490007F42E419E707520817436408060021E732
:1054A0002E48854200D193E01D00D0E629001F3E22
:1054B000F140202B00D18DE04022D31A9D402F4394
:1054C0007D1EAF4100240F43002644E72B00080057
:1054D000203BD8400300202D00D17DE04020451B1B
:1054E000A9400A43511E8A4100211A43C7E6002EF3
:1054F00050D01A4EB04257D080266B42994636049F
:1055000034434B46382B00DDD6E01F2B00DD35E160
:105510002026F51A2600AE40B2463E00DE40AC46DC
:10552000350056462E436546AF407D1EAF41DC40F8
:105530003743D71BBA4292410C1B5242A41A0600B1
:10554000D846A3E6644667462C4300D0A2E6002571
:105550000026002706E71E00C4E6C046FF0700003D
:10556000FFFF7FFFFFFF0F801F2B63DC2020C31A8C
:10557000080098409C46834653461000D8400300DC
:105580005846184363469A40531E9A415346024375
:10559000D94003E726003E4306D0EB439946002B53
:1055A000C7D0944EB042ACD10C0017000600D846CC
:1055B00098E6904B9A450BD08246E7E6002800D04B
:1055C0009EE01800104300D1E9E01C001700D84607
:1055D000884E87E6002572E7002182E723003B43DF
:1055E000002E00D0ABE0002B00D1E7E00B0013430E
:1055F00000D177E6BA18BA42BF4164187F42E41975
:10560000230200D4F2E07C4B17001C40060069E640
:1056100020003843002ED1D100285BD11C00144358
:1056200000D1A8E01C001700D8465BE60600002465
:10563000002797E650460B002038C3409946534652
:10564000202B00D195E0402350461B1A99400A4375
:10565000511E8A414B4600211A439FE6002E30D14D
:1056600026003E4367D0DB439A46002B1CD0614E98
:10567000B04260D05346382B00DD96E01F2B00DD92
:105680009FE02026F31A26009E409C46B3465346D0
:105690003E00DE4033005E461E4363469F407B1E55
:1056A0009F415346DC403743BF18974292416418EC
:1056B0005242A418060078E627437C1EA741002426
:1056C00037E74C4EB04236D080265B4236049A46CD
:1056D0003443CFE71800104300D103E6B81A8446DC
:1056E0006745AD41E01A6D42401B050200D42CE62F
:1056F000D71BBA4292411C1B5242A41AD846F1E56C
:105700001800104300D163E7F808670707438020BB
:10571000E4080003044208D0DD08054205D1D208A0
:10572000590711430F002C00D8467B0FE4001C439F
:10573000FF00304ED6E50C0017000600D2E5002B26
:1057400038D00B00134300D142E7F808670707433E
:105750008020E40800030442E7D0CB080342E4D1F0
:10576000D208490711430F001C00DEE70027002480
:10577000D5E500216BE700250027F3E54E4625001F
:10578000203EF5404B462E00202B2DD04025ED1A13
:10579000AC4027437C1EA74100243743C9E6802440
:1057A00000252403134E0027DCE527437C1EA74178
:1057B000002479E70C0017000E4E93E50C0017004B
:1057C00090E556462300203EF34099465346202B51
:1057D0000ED0402356469B1B9C4027437C1EA7416E
:1057E0004B4600241F435FE70024D2E71700B2E5D1
:1057F0000024F2E7FF070000FFFF7FFFF0B55746E8
:105800004546DE464E46E0B50C0398464E00230B57
:1058100087B0070092469B46760DCD0F002E6BD0C9
:105820006D4B9E4235D080245B46420F2404DB0042
:1058300014431C43C3009946684BA3469C4600236F
:1058400000276644029343461C035A00DB0F504670
:10585000240B520D984600D176E05F4B9A426DD0F2
:105860008023410F1B040B435C49E4008C461C431E
:10587000C300002062444146B6186940721C019181
:10588000944607430F2F00D9B0E0554ABF00D259C4
:1058900097465B460343994600D087E000239B462A
:1058A000023308270293CEE742460192022867D0CE
:1058B000032800D10EE2012800D062E10023002479
:1058C0000022994601990140CDB2002112030B0D2F
:1058D000120B1B051343434A240513401C43640069
:1058E000ED0764082C434846210007B03CBC9046B5
:1058F0009946A246AB46F0BD034399464FD05B465E
:10590000002B00D189E1584600F0EAFD03000B3B73
:105910001C2B00DD7AE11D22D31A3A0001005C46FF
:10592000DA4008398C4013008F4023439B46B94628
:1059300000232D4E0027361A029384E75346234353
:105940002AD10024022096E75346234320D0002C7E
:1059500000D157E1200000F0C3FD03000B3B1C2BDE
:1059600000DD49E11D21CB1A51460200D9405346C2
:10597000083A944093400C431B4A121A00207AE7DD
:105980000125019B144C1D400023002299469CE7F1
:105990000024002201206EE7534603206BE700231A
:1059A0009B4601330427002602934CE703238146DC
:1059B0000C27029347E78022002300251203994613
:1059C000054C82E75C464B4602986FE75C464B46C7
:1059D000019502986AE7C046FF07000001FCFFFF3F
:1059E000C8790000FFFF0F800DFCFFFF4A464946C3
:1059F000170C1A0C1B041B0C08041900000C414363
:105A00001500884619007D4379430395894629008E
:105A1000150045434D44029545462D0CAA46029D6E
:105A20005544A94506D98A46802149028946CA4477
:105A300051460391290C0491414609042D04090C97
:105A400088462900250C24044144240C059121009A
:105A500041438846210079438A4668434146504481
:105A60008146080C48446F43824503D9802149028E
:105A700089464F44010C8946390049440291414608
:105A80000F0404993F0C88460004C0198044414625
:105A9000049159460F0C0904090C884659438A465B
:105AA00039005143894641464A435146090C8B46C9
:105AB0007B43D2185A44934203D980235B029B460E
:105AC000D94451460904090C8A46414661437C4346
:105AD000130C12044B445244A1468A463C004146F2
:105AE0006C434D4351464D440F0C7D19A94503D9D4
:105AF0008021490288464444049F0399B8464144A2
:105B00008B468345804141428846514608042F0414
:105B1000000C3F185846029910188946904292414D
:105B20004F44BA46524299469346C244D144CB446C
:105B30008F42BF41C245894199459B41934592415E
:105B40007F4249422D0C52420F435B4213437F195F
:105B5000FF185B463C19DB0D059A64021C434302A7
:105B600013435D1EAB415A46C00D0343520213431B
:105B7000E20156D501205A0803401343E2071343BC
:105B800064085A48604400284DDD5A0709D00F22A6
:105B90001A40042A05D01A1D9A429B415B42E41820
:105BA0001300E20104D58020514AC0001440604433
:105BB000504A904200DDE3E60125DB0862071A4304
:105BC0006402019B9146220B4405640D1D407CE656
:105BD000802259461203114208D0144206D12243B2
:105BE0001203120B45469946434C6EE65B461A4338
:105BF0001203120B404C68E603005446283B9C40BD
:105C00000023B9E600F06CFC2030A6E60300283B38
:105C10009F400023BB4699468AE600F061FC203095
:105C200074E6B446ADE701252A1A382A06DD019B41
:105C300000241D4000230022994646E61F2A21DC4D
:105C400020252000AD1A1E00AB40A840D6405D1EA6
:105C5000AB4130431843D440430709D00F230340DE
:105C6000042B05D00300181D98429B415B42E418A9
:105C7000230221D50125019B01241D400023002280
:105C8000994622E61F2521006D42281AC1400800CE
:105C9000202A1DD05F35AA1A944023435C1EA341DD
:105CA000072503431D400022002D09D00F220024A8
:105CB0001A401800042AD6D1030065076402220B9B
:105CC000DB082B4301259946019B00241D40FCE580
:105CD0000024E2E7802201251203224301991203E6
:105CE000120B0D409946044CEFE5C046FF0300003F
:105CF000FFFFFFFEFE070000FF070000F0B546466D
:105D0000D6464F460C03C0B5CD0F4E00610A440F76
:105D10000C43C1005800400D84468A460F00190309
:105D2000500F490A0143C648760DA846DB0FD20042
:105D3000844500D1D8E001204340AB4200D1A6E029
:105D40006046351A002D00DC05E1002810D10B005B
:105D5000134300D1D7E06B1E002B00D04BE153461C
:105D60009F1ABA458041641A4042241A01261EE057
:105D7000B34B9E4248D080231B041943382D00DDCD
:105D800019E11F2D00DD4CE120230F005B1B1000EB
:105D90009A409F40E840531E9A41E9400743174309
:105DA0005346DF1B611ABA45A44164420C1B23020F
:105DB00000D4C5E06402650A002D00D1F6E0280099
:105DC00000F08EFB0300083B1F2B00DDE9E02022E2
:105DD0003C00D21A9D40D4409F4025439E4200DDA6
:105DE000DBE09E1B731C1F2B00DD0AE12022380024
