:1000000000300020C1000000333400007F3B0000BE
:1000100000000000000000000000000000000000E0
:10002000000000000000000000000000873A00000F
:1000300000000000000000000D3B0000553B0000E8
:10004000873B0000873B0000873B0000873B0000A8
:10005000873B0000873B0000873B0000873B000098
:10006000873B0000873B0000873B0000873B000088
:10007000873B0000873B0000873B0000873B000078
:10008000873B0000873B0000873B0000873B000068
:10009000873B0000873B0000873B0000873B000058
:1000A000873B0000873B0000873B0000873B000048
:1000B000873B0000873B0000873B0000873B000038
:1000C0000749084A084B9B1A05DD002408591051BE
:1000D00004349C42FADB054880470548004700008D
:1000E0004C510000C0F0FF1F58F1FF1F41340000C9
:0400F00025100000D7
:10040000FFFFFFFFFFFFFFFFFFFFFFFFFEFFFFFFFD
:1004100010B5064C2378002B07D1054B002B02D0DA
:10042000044800E000BF0123237010BD58F1FF1FF6
:100430000000000040510000084B10B5002B03D015
:100440000749084800E000BF07480368002B00D1B7
:1004500010BD064B002BFBD09847F9E700000000C9
:100460005CF1FF1F4051000058F1FF1F0000000029
:1004700003790B7043681B0A4B7043681B0C8B702D
:1004800043681B0ECB70037A0B7183681B0A4B7198
:1004900083681B0C8B71836808201B0ECB7170471F
:1004A0000A7842604B781B021A4342608B781B0427
:1004B00013434360CA781206134343600A7982608B
:1004C0004B791B021A4382608B791B0413438360B0
:1004D000CA791206134383600820704700487047AA
:1004E000A84D000000487047874D00000048704745
:1004F000194D000000487047F84C00000048704754
:10050000E54C000000487047C44C000000487047AC
:10051000324D000000487047A34C00000020704797
:100520000020704700487047D74D000000487047D2
:10053000B64D0000030010B50C301B69984710BD84
:100540004069704700487047D74D00000048704729
:10055000B64D0000014BC05C7047C0465C05000012
:10056000054B5A6911685A680A4202D1DB681A6061
:1005700070471B69FBE7C04674F1FF1F002310B5ED
:100580000C00DA00D440C4540133042BF8D110BD60
:100590000379F7B50B7043680D001B0A4B70436875
:1005A0000A1D1B0C8B70436804001B0ECB700021CE
:1005B0006068531B81420CD2E0688B001B580131EC
:1005C000180A13705070180C1B0E9070D370043200
:1005D000EEE7227CEA542169EA18090A5170216980
:1005E0000433090C91702169EB18090ED1700021B8
:1005F00022695E1B91420CD2A0698A001258013117
:10060000100A1A705870100C120E9870DA700433B9
:10061000EEE70027237FAB55E269AB19120A5A7047
:10062000E2690436120C9A70E269120EDA70E3691C
:100630009F4215D2636ABA00985804F0E7F8019017
:100640000199A819FFF79AFF636ABA00043699580E
:10065000A819019A03F0F9FD019B01379E19E6E7FD
:100660003000FEBD70B5037906000B7080680D0088
:1006700004F0CCF80400681C2100FFF77FFF681D20
:10068000B168220003F0E1FD601D70BDF8B58388FC
:1006900006000B7083880C001B0A4B70806804F006
:1006A000B5F80500A01C2900FFF768FF2A00B16813
:1006B000A01D03F0CAFDF06804F0A8F80700AB1D08
:1006C000E01839000A35FFF759FF3A00F168601960
:1006D00003F0BBFD306904F099F87D19070060193B
:1006E00039000435FFF74AFF60193A00316903F019
:1006F000ACFD73697F19E3551A0AE41962701A0C8C
:100700001B0E381DA270E370F8BD002310B5036006
:10071000CA5CDC00A2400468013322430260042B5F
:10072000F6D110BDF7B50C000B780500037101314F
:1007300001A8FFF7EAFF221D13000199481D0133AC
:100740001E1BB04203D91F785E1E3770F7E70023E7
:1007500064182371AA60FEBDF0B50C000B7885B05B
:1007600083804A780600120213438380023101A875
:10077000FFF7CBFF611D0B00019A951D0133181B7C
:10078000854203D91F78581E0770F7E70023A21887
:10079000537102A8B1606119FFF7B7FF029A2B1DD0
:1007A0009D181A00AA4204D2A05C511E6054013266
:1007B000F8E700206119013BE3184A1E1070F3604E
:1007C00003A8FFF7A2FF039B0435E8182B00834220
:1007D00004D2E15C5A1EA1540133F8E7002122182B
:1007E000013D531E651919703561537891781B02CC
:1007F0000904D2780B43215C12060B4313430430E7
:10080000736105B0F0BDF7B54B780E781B0233432A
:100810008E78040036043343CE780D0036061E432E
:1008200043689E4204D9B100C06803F087FFE060CE
:10083000002366602F1D62685E1CB000934215D2D3
:1008400021007B78BA781B02120413433A780438EB
:100850001343FA78083112061343A360E3680422B5
:10086000181803F0F2FC04373300E4E72A1857782D
:100870009378295C1B043F021F433943D7782369CF
:100880003F060F43061D9F4204D9B900A06903F03B
:1008900055FFA06127610027AE192369721B9F4293
:1008A00015D221007378B2781B02120413433278F8
:1008B000B8001343F2781431120613436361A3693D
:1008C0000422181803F0C1FC01370436E5E7A91823
:1008D0004F788B78A85C1B043F021F433843CF78C6
:1008E000E3693F060743161D9F4204D9B900606AB9
:1008F00003F024FF6062E7610027E3699F421FD293
:10090000A91901A8FFF701FF019A331D9E181A00CB
:10091000B24204D2A85C511E68540132F8E70021AB
:10092000AA19013A11702100013BEB182362636A96
:10093000B80018180422203103F087FC0137DCE7E7
:100940003000FEBD1FB5084B040001930023029345
:100950000393036801AA1B680A21984720006030AE
:1009600002F007FE20671FBDFC4B00000022F0B51F
:100970002D4B89B0029302AB9A802C4B80270493B5
:100980000593069390230500DB00C418284B0792BB
:10099000C618BF002368002B17D01989586802AA0F
:1009A00091801A68036804929B68984723680590B1
:1009B00058680368DB68984721682B68069007979A
:1009C0001B6802AA0969280098470434B442E1D19F
:1009D000A9238026DB00EB180193B60020680028CD
:1009E00018D0828802AB9A808368049303689B685E
:1009F0009847059020680368DB6898472B68069045
:100A000020681F68036807965B68984702AA010080
:100A10002800B847019B0434A342DFD10122054BD3
:100A2000EA5409B0F0BDC046144C00006B4E000003
:100A3000E40400005C050000F0B5264B060087B01A
:100A4000039300230400603630000F0004930593E5
:100A500002F08FFD236F3900C51A03A8FFF720FDB0
:100A6000FA212800890003F08FF8FA21049B8900FD
:100A7000181804902800019303F00CF9164B30006D
:100A80005943059BC9180193059102F072FDFA21A3
:100A9000049B8900070001935D1E03F075F8FA219D
:100AA0002D1A65670D4B059D38008900ED1803F080
:100AB000F1F8094B20005943691AA16721007430ED
:100AC000783100F0C3FA300002F053FD044BE050DF
:100AD00007B0F0BDFC4B000040420F0000CA9A3B3B
:100AE0006405000073B5454C454B200000250422E9
:100AF00008C0260080230092082101955B00603623
:100B000000F07CFB300002F049FDE1231B02E365AD
:100B10003000802602F000FD2000B60029003200DF
:100B2000803025676567A567E56703F0A9FBA0230B
:100B30009B002900E018320003F0A2FB90239D3EA9
:100B4000DB00FF3E2900E018320003F099FB2D4B3B
:100B50002900E018320003F093FBA923DB00E550E5
:100B6000294B2A4AE5500433E550294B2949E550E1
:100B70000433E550284B2000E5540433E550274B5F
:100B80004C3EE5500433E550254BE5540433E25028
:100B90000022244BE5500433E550234BE550043349
:100BA000E550224BE2500433E550214B214AE550F9
:100BB0000433E550204BE55002F004FF1F4C320097
:100BC0002900200003F05CFB20001D4900F04BFCD5
:100BD0001C4C32002900200003F052FB1A4920006F
:100BE00000F041FC194B1A4A1A601A4ADA601A4A94
:100BF0001A6101225A61194A9A6073BDA4F1FF1F5C
:100C0000744C0000E40400004C050000444C00005B
:100C100054050000111000005C0500006405000090
:100C20006C050000740500007C05000084050000D0
:100C30008C050000C0F0FF1F9405000074F1FF1F39
:100C4000481000008CF1FF1F4C1000003CF7FF1F04
:100C5000884C00005C4C000061050000984C0000CE
:100C60000300F0B56033040087B01800029302F06F
:100C700080FC8B4A8B49A3580700C31A05928B420C
:100C800002D90022884BE254A923DB00E258002A53
:100C900006D0AD22D200A258BA4201D20022E250C0
:100CA0000023A92503930193ED00E36F002B1ED1D0
:100CB000261D300000F0DEF9002821D17A4BE35CDC
:100CC000002B0AD0AC25ED006359784AFB1A9342F9
:100CD00003D92000FFF736FE6751039B002B00D09D
:100CE000DCE0019B181E00D1AAE00320A7E00298D7
:100CF00002F03FFCE36FC01B9842D9D902209EE06E
:100D0000300000F0BFF90028D8DBAB23AB22DB00BA
:100D1000E35866590493D200C318A350072E0ED18E
:100D2000634AA358591CE318A1508033614A1870D4
:100D3000A358013BA350002BB7D108331AE0002E73
:100D400013D1FF2807D10123AD2263513B00D2000C
:100D50001433A350A9E7029802F00BFC564BC01BBA
:100D60009842A2D9504BE654C8E7012E0ED1FE2876
:100D700002D10223635198E7002363514A4BE35C9D
:100D8000002B92D12000FFF7DDFD8EE7022E0AD165
:100D90000022484BE050464BE25003236351AB2303
:100DA000DB00E05081E7032E06D1424B0002E258FF
:100DB0001018E0500423DDE7042E0CD13F4A134005
:100DC00003D53F4A013B13430133FF2B01D1FA3BCB
:100DD000D0E70023CEE7052E04D1AA23DB00E050A4
:100DE0000623DBE7062E0AD1AA23DB00E258000225
:100DF0001018E050072363512E4BE3589BE7082E51
:100E000000D052E7002262512C4A134003D52C4AED
:100E1000013B13430133FF2B00D046E7AA23DB003D
:100E2000E358002B0ED12000FFF78CFD2000FFF7C8
:100E30009DFDAC230120DB00E750059BE7504042BD
:100E400007B0F0BD0A2B07D1210020008031FFF749
:100E5000F3FD0123039328E7062B0AD1AE232100DB
:100E6000DB00E0188031FFF7CEFC0122154BE25485
:100E70001BE70B2B05D100220B4BE25401230193FE
:100E800013E7D4339B00E3185868002800D10CE71F
:100E90002100036880311B68984706E70420CEE7ED
:100EA00064050000F82A00005C050000C409000089
:100EB000540500004C05000088130000FF0000806E
:100EC00000FFFFFF6C05000010B5144C201DE16D04
:100ED00002F0C3FBA9220023D200A350104AA35062
:100EE000104AA350043AA3500F499A005218A2582E
:100EF000002A0FD11A003932FF320C499200A21891
:100F0000643351604B602000FFF7AAFE012002F01D
:100F10004DFCF8E70133192BE6D1F4E7A4F1FF1FEC
:100F20004C05000054050000E40400003CF7FF1FDE
:100F3000F0B5040085B00E00632904DD00252B4BBD
:100F4000C35CAB424ED0136829491B68611810007E
:100F50009847A023FF229B00E254264B013AE2541B
:100F6000254AC3B2A35425490212D2B262549B1837
:100F7000A122DB439200A354214B0522E654214BCE
:100F8000360AE6540023851DAA4206DCA02189000A
:100F90005118615C01325B18F6E7DB43144A050027
:100FA000201880180370802308359B009D420BDCBD
:100FB0008033E7183E00F31B9D4213DD3178201D7E
:100FC00000F085F90136F6E70F4B01AA01930323E0
:100FD00013710E4B07219360236820001B680125C5
:100FE00098476D42280005B0F0BDC0465C05000082
:100FF00087020000810200008202000083020000DC
:1010000085020000860200002C4C00004E4D0000BE
:1010100010B50400024B08C000F080F8200010BD9D
:10102000744C00000748084A10B5121A002103F05A
:1010300027F902F07FFC03F0C5F802F082FC02F011
:10104000C3FCC04658F1FF1F5C11002070B50D684D
:1010500006000C002800064902F096FD336804499A
:1010600018183060280002F015FE216070BDC046DF
:1010700000CA9A3B436B806B181A431E9841704715
:101080000120704770B50400836B5A1C8263026BA9
:10109000806BD55CE36B591E02F0FCFD2800A16358
:1010A00070BD10B5002801D01CC91CC010BD704710
:1010B00010B54468836861100268E00701D558588C
:1010C00082585818904710BDC36810B50400002B13
:1010D00001D09B689847200010BD000070B5060045
:1010E000084B0C3604000360002E08D005002C3598
:1010F000B54204D0103D2800FFF7E6FFF8E72000D6
:1011000070BDC0467850000010B50400FFF7E6FF40
:10111000200002F077FC200010BD000030B5002553
:101120000400124B85B0083303602A00694603951A
:1011300002F0E2FA6846FFF7C7FF01226946200085
:10114000039502F0D9FA6846FFF7BEFF2000403051
:1011500000F032F92000303000F02EF9044B20006E
:101160002360FFF7BBFF200005B030BD6C4E0000D0
:101170006050000010B50400FFF7D0FF200002F01F
:1011800041FC200010BD7FB50400251D280002F0A1
:1011900038F900281DD0626CA36C9A420FD0A36C62
:1011A0005A1CA264226CA06CD65CE36C591E02F03F
:1011B00071FD2800A164310002F02FF9E5E700235A
:1011C000200001226946039302F096FA6846FFF771
:1011D0007BFF7FBD10B5140086B0039308AA064BB1
:1011E0001278049102A90593029402F085FA02A8EC
:1011F000FFF76AFF06B010BDE84D00007FB51D0087
:10120000962304009B01089E02F00CFA20000C4B70
:10121000290008332360303000F0E1F8310020006D
:101220006943403000F0DBF8002320000093054ABA
:101230002100FFF7CFFF20002565666504B070BD73
:101240006C4E0000AD12000030B5040087B00430D1
:1012500002F0D7F8002816D00025012202A92000AC
:10126000059502F049FA02A8FFF72EFF2000FFF7CC
:101270008AFF0123054A009321002B0020000292DF
:101280000395FFF7A7FF07B030BDC04687110000E8
:1012900010B5040043685A1C42600268D154E368E8
:1012A0004068591E02F0F6FC616010BD70B5051D66
:1012B0000400280002F08EF8002807D0280002F071
:1012C00095F8C1B220003030FFF7E2FF70BD70B575
:1012D00005000C004030C9B2FFF7DAFF2800FFF725
:1012E000B3FF200070BD70B506000D00081E11D0C0
:1012F0000C00300021784030002903D00134FFF782
:10130000C7FFF6E70A21FFF7C3FF3000FFF79CFF96
:10131000601B013070BDF8B505000E00081E12D02C
:10132000002082420FD00C008F18BC4206D028004B
:1013300021784030FFF7ACFF0134F6E72800A41B0A
:10134000FFF782FF2000F8BD0EB408221C23F0B581
:1013500086B002AFBA18D4186A4608CC05007B6084
:10136000036D00210733DB08DB00D31A9D4602AE74
:10137000026D300002F084FF220079683000FC60CA
:1013800003F064FA2B6D020083420CD200905D22C0
:101390000748084900F034F90020BD4604B0F0BC0D
:1013A00008BC03B0184731002800FFF7B4FFF4E78A
:1013B000324E0000F44D000010B504000068002813
:1013C00001D002F019FB200010BD0300002110B570
:1013D000DA6841608160006802F052FF10BD70B5AC
:1013E000040008000D0002F0FBFAE5602060200018
:1013F000FFF7EBFF200070BD70B50D000400160074
:1014000001F0DEFB6B1C07D00021200001F0F8FB8F
:101410003100200001F0EEFB70BD70B543680400A0
:101420000D00002A0AD0C26813602000012101F0DB
:10143000E7FB2900200001F0DDFB70BD0269F3E746
:1014400010B50222FFF7D8FF10BD70B50D000400E3
:10145000160001F0B5FB6B1C04D032000021200007
:10146000FFF7DBFF70BD10B50022FFF7EEFF10BDE8
:1014700000487047A04E000010B5024800F004F884
:1014800010BDC046A04E0000036870B5DB680400C4
:10149000984763685A682368002A02D19B68984776
:1014A00070BD5B681568984763682D1A5A68002DEF
:1014B00007DC916859601B68002BEAD05068984798
:1014C000E7E7236810681B699847E9E710B50368E8
:1014D0005B68984710BD000010B50400431C0CD198
:1014E00010BD9C4208D12000896801F005FD002153
:1014F000200001F021FDF3E70C3100228B5E5A1C25
:10150000EFD1024800F07CF8EAE7C046ED4E00005B
:1015100010B5884208D0431C06D04B1C06D00448A6
:1015200000F06EF801214942080010BD0100FBE700
:10153000BC4E000000228B5E5A1C01D1180002E054
:10154000834201D1486870470C31F3E710B50400BD
:10155000431C07D0FFF7EEFF0400431C02D10248F2
:1015600000F04EF8200010BDCD4E000010B500F088
:1015700041F810BDEFF3108301209843704700003D
:1015800010B5FFF7F7FF72B6064A1368002B04D1B7
:1015900001335840044BC0B218701368136801330C
:1015A000136010BD60F7FF1F5CF7FF1F10B5094CFB
:1015B0002368002B0CD0FFF7DDFF2368013B23607D
:1015C0002368002B04D1044B1B78002B00D162B69A
:1015D00010BDC04660F7FF1F5CF7FF1F30B585B038
:1015E0006D461824201C291CABBE041C200005B02D
:1015F00030BD0000014B18687047C046C4F0FF1FA3
:101600000FB4012010B502F0DFF9000010B588B06A
:10161000FFF7B6FF094902A8FFF725FF9624039AB2
:10162000059B20001A60019202F0C0F8039A069B05
:1016300020001A60019202F0B9F8F0E748100000AB
:1016400010B501F0EDFA10BD10B5024B1B689847BC
:10165000FBE7C046C8F0FF1F10B50C4800F0D4FDF2
:1016600002000B4B0B481A6000F0CEFD02000A4B43
:101670000A481A6000F0C8FD094B186002F0A2FD8C
:101680000021002002F05DF910BDC0464C4F000063
:10169000C40B0020484F00006CF7FF1F444F0000B0
:1016A00064F7FF1F10B5FFF7CFFF10BD10B50400A2
:1016B00000F00AFD210002000148FFF7A1FF10BD64
:1016C0000C4F000010B502F0A1F910BD80220A49AC
:1016D0000A4B10B55B1A92001800934200D9100013
:1016E000074A1B1A074C1360CB18074A2360074BA5
:1016F0001060196010BDC04660110020003000204D
:10170000FC08002074F7FF1F70F7FF1F000900207E
:1017100000F060FEFFF7DAFF0348002100F006FE4C
:1017200000F04AFCFEE70000CCF0FF1F012110B5DD
:10173000024B4942186800F089FD10BD6CF7FF1F8D
:1017400010B5024B186800F0ABFD10BD6CF7FF1F21
:10175000027830B5013A8C784368D2B2002B02D0BF
:101760009D78A54208D24B604160022A07D8002B21
:1017700000D09960886030BD18005B68EEE70023F8
:101780008B60F8E7436810B504785968013C416004
:101790000022022C06D8914201D088605A609A60DB
:1017A000180010BD5A60FBE7034B5A6842600022E4
:1017B000586082607047C046B8100020124A10B5C9
:1017C000D368002B13D0938AD4688B420DD3C460A6
:1017D000D060C4680261002C00D020615B1A9BB20B
:1017E0008382918ACB1A938208E0002C07D10024CF
:1017F000CB1AC460D06002619382848210BDA28A39
:101800009B182200E0E7C046D010002070B5194DAB
:10181000EB68002B09D00126AB8A013BAB82AA8A78
:10182000002A02D1EC68002C00D170BDA368002B07
:1018300008D0616859606168002901D08B606260DE
:101840000023A36021000C48FFF782FFA38AAB822C
:101850006378042B04D1094BE28A1B689B18A3828E
:101860000022E3686670EB60934201D01D61E26084
:101870002261D4E7D0100020B81000204C110020C5
:101880008368002B06D042685A604268002A00D064
:1018900093607047044B5A68904202D142685A6084
:1018A000F7E7131EF7D1F4E7B810002070B584688D
:1018B0000500002C05D14378012B0CD1064C03E028
:1018C000A4682378002BFBD02800FFF7D9FF29005C
:1018D0002000FFF73DFF70BDB8100020036910B570
:1018E000002B0DD0C268DA60C268002A09D0998A3C
:1018F000848A0919998213610023C360002303615C
:1019000010BD9A82FAE7000070B5114AD478EFF35F
:101910001086EFF3108372B693789C4211D901338D
:10192000937013785D1CAC4200D100251570002E19
:1019300000D162B69C4206D9DB00D318586099608A
:1019400070BD002EF5D00220FFF7B0FEF8E7C046CC
:101950003C0B0020064B1B78002B04D18022054B4A
:1019600052051A6070470122034B1A70FAE7C0460D
:10197000C807002004ED00E0C90700201B4B70B52C
:10198000186801234370FFF70FFF194C6578A3789F
:10199000002B06D165701748FFF7F4FE00F0ECFD50
:1019A00070BDEB00E31858680278002A14D19968DA
:1019B00089B200F019FAE37801359D4200D1002583
:1019C000EFF31083EFF3108272B6A278013AA2709F
:1019D000002BDCD162B6DAE7012A03D1996800F066
:1019E00091F9E8E701F0C8F8E5E7C04604110020E6
:1019F0003C0B0020B8100020094B01201A68094B4D
:101A000040421A600022084B1A60084B07321A60E5
:101A1000FF23074A1B0611680B4313607047C0463B
:101A20006C4F000014E000E018E000E010E000E07F
:101A300020ED00E0704700000B4B10B51868012343
:101A40004370FFF7B1FE00F003FA084A1368013350
:101A50001360FFF7DBFE00F011FD0548FFF792FE73
:101A600000F08AFD10BDC046041100204C1100207A
:101A7000B8100020074B10B51A68136BD26A934256
:101A800003D8054A1B68934202D00120FFF70EFEDF
:101A900010BDC04604110020A52E5AE2F7B5836A96
:101AA00001919B0802D1204B1B889B08066B9C0070
:101AB0003419620700D5043C8027221F7F04176079
:101AC0002700019A2500083F3A600022403D290086
:101AD0009446624604C18F42FBD12200C769203A76
:101AE0001760019AC56242630F4A12680192D200E0
:101AF00012D5112B10D9103B5B08DB005B421A009A
:101B0000383AA4182A000949A24208D1EB18043334
:101B10009E4201D2054A1A60054B3360F7BD083A70
:101B200051601160F0E7C046544F0000CCCCCCCCE3
:101B3000A52E5AE2C36A19627047C36A19625A62D3
:101B4000704730B50300002A18DA0720102452002D
:101B50005208073282430120002A16D015198D42FF
:101B600013D859181C19504259601C609A60091802
:101B7000A318994207D31B501C00F9E70320033236
:101B800082430C24E7E70020206030BDEFF3108291
:101B900072B601231A400368002B01D01968016056
:101BA000002A00D162B61800704703000120994254
:101BB0000CD35A68914209D2EFF3108272B61868BA
:101BC000086019600020D30700D462B67047012373
:101BD00003700023103989084370837043600381C8
:101BE00043818381C181704770B5150082890400EB
:101BF000002A3AD04389181D80000059013308603B
:101C0000E1899BB26381994201D1002363816368BA
:101C1000002B1ED06378022B1BD12000FFF7B2FDF2
:101C200005000021FFF786FF2389E9691A1D92004C
:101C300011510133E2899BB223819A4201D10023E1
:101C400023812800FFF74AFE280000F0B3FC0020A3
:101C500070BDEFF31083EFF3108172B60020013AEC
:101C6000A2818342F4D162B6F2E70120002DEFD0C9
:101C70006268094B002A09D019682000FFF768FD47
:101C80002800082100F0B6FC0120E1E71B68636032
:101C90005A609C606070F3E704110020C38980895A
:101CA000181A704710B5FFF72FFEFFF753FE10BD4F
:101CB00010B5040083890020834222D06389043355
:101CC0009B001B590B606378022B05D1010020009B
:101CD000FFF71AFEFFF73EFEEFF31083EFF31082DB
:101CE00072B6A289013AA281002B00D162B6638943
:101CF000E28901339BB2638104209A4201D100231F
:101D0000638110BD436870B504000D00002B4AD0FC
:101D10004678022E1FD0032E0AD0012E42D1FFF7A3
:101D200031FD04002A001021FFF707FF66700DE067
:101D30000800FFF72BFF051E34D02000FFF722FD1F
:101D400029000400FFF7F6FE012363702000FFF76F
:101D5000C5FD210023E0FFF715FD05000021FFF779
:101D6000E9FE2389E9691A1D92001151EFF31082EF
:101D7000EFF3108172B6A1890131A181002A00D14F
:101D800062B60133E2899BB223819A4201D10023DA
:101D90002381012328006B70FFF7A0FD2900114863
:101DA000FFF7D6FC70BD8289C089824215D2238993
:101DB000191D89000D51EFF31081EFF3108572B6F4
:101DC0000132A281002900D162B601339BB2984250
:101DD00001D02381E6E70023FBE70320FFF766FC41
:101DE000E0E7C046B810002010B5038B42781943D5
:101DF00004000183438B062A14D11A000A4093423F
:101E00000FD1994321832000FFF768FD01230821AA
:101E100020006370628BFFF790FE21000548FFF7FA
:101E200097FC10BD052AFCD11A000A40F9D0428364
:101E3000E7E7C046B81000200022034B1A60034AAF
:101E40001268DA807047C046F0100020504F000042
:101E500010B50D4B0D4C186862680D49904205D0C5
:101E60001A60DA880868013A82189A8098880A8885
:101E7000904208D1002220001A60FFF783FC010085
:101E80002000FFF765FC10BDF0100020B810002006
:101E90004C110020002230B50B4C2368002B0AD1D6
:101EA00003608160002B02D09D68691A9960002A46
:101EB00008D0106030BD9D68A942F1D31A00491BBB
:101EC0001B68EBE72060F5E700110020002313B545
:101ED0000200984215D0431C15D00C4C0C4923002D
:101EE00088420ED8FA200B4B800050431B680193A8
:101EF000013BC018019901F047FE2300A04200D821
:101F000083B2180016BD044BFBE7C046FEFF00007D
:101F100000093D00084F0000FFFF0000002806D028
:101F2000830705D103785A4253415B4218407047FA
:101F30000020FCE7B0B50F4D00AF2878002815D180
:101F40000D4C23680533D97F00F076FB2368DA78DF
:101F5000FF2A03D1DA6A203282F309886268002AF4
:101F600000D10CC400F01CFD01232B70BD460020E5
:101F7000B0BDC046FD10002004110020014B1878B0
:101F80007047C046FD10002090B5EFF31084002C80
:101F900007D1EFF30584002C03D1EFF31484E40799
:101FA00002D4034B187890BD024FBC4600DFFAE71D
:101FB000FD1000207D1F0000F0B589B000AFEFF3E9
:101FC00010838225002B3AD1EFF30583002B36D105
:101FD000FFF7DAFF002807D11B4C2468002C03D040
:101FE0006468002C00D0A047EFF31484032634402B
:101FF000022C18D0B4421DD0FF25012C1FD0202464
:102000003C1984F30988114C2478E4070FD5022485
:1020100084F31488BFF34F8FBFF36F8F0C4FBC4610
:1020200000DF05000BE0094C2478E407F6D486F3C2
:102030001488EFE7054CFF252478E407EED5280047
:10204000BD4609B0F0BDC046EC100020364F000080
:10205000351F000070B50B001500002802D10024C8
:10206000200070BD0668002EF9D00422845EE21CB8
:1020700092B2062AF3D80022C168914200D00269C8
:10208000043409022143300000F016FB0028E6D09A
:102090000A4B01388000C458094AE36A5A63094B65
:1020A0001B68002B07D09B68002B04D0E078290028
:1020B0009847E063D4E7E563D2E7C046200B0020F1
:1020C00071220000EC10002010B500F0ADFA031EE4
:1020D00003D00138024B8000C358180010BDC04621
:1020E000200B002010B5FFF719FF8023041E0FD02E
:1020F000084B1B68002B04D0DB68002B01D0C06BA1
:102100009847E07800F02AFB8123FF2800D00023C5
:10211000180010BDEC100020002310B5984204D028
:10212000FFF7D4FE00F022FD4023180010BD000090
:10213000B0B50500EFF310848220002C07D1EFF337
:102140000584002C03D12800014FBC4600DFB0BD40
:1021500019210000830706D1002807D043690169CF
:102160001B681800704700231900FAE70300FBE71B
:1021700090B504000800034FBC4600DF206061609A
:10218000200090BD5521000010B5031E0AD0046840
:10219000231E07D0002322789A4203D1200000F0AA
:1021A00035FC2300180010BD70B5032405000E0097
:1021B00004408023002C12D1002810D00278032A7A
:1021C0000DD10800FFF782FE0100280000F09AFC04
:1021D0002300012803D1C133002E00D1403B180059
:1021E00070BD10B50324802304400AD1002808D014
:1021F0000278032A05D100F011FC8123FF2800D0CA
:102200002300180010BD0000F8B50500EFF310869C
:10221000002086420FD1EFF305843000002C0AD154
:10222000EFF31480C00707D406480078002803D1D4
:102230002800FFF7A9FFF8BD2800034FBC4600DFC8
:10224000F9E7C046FD10002089210000B0B5050067
:10225000EFF310848220002C07D1EFF30584002CCB
:1022600003D12800014FBC4600DFB0BDA92100000A
:1022700001210848B0B549420068FFF7E7FF064F63
:10228000BC4600DF0400FFF71DFA2000034FBC46E8
:1022900000DFFEE7F8100020C9200000E520000064
:1022A000B0B50500EFF310848220002C07D1EFF3C6
:1022B0000584002C03D12800014FBC4600DFB0BDCF
:1022C000E3210000F7B5060000910192EFF31082C0
:1022D0000024A24210D1EFF305831400002B0BD190
:1022E000EFF31483DB0709D40D4B1B78002B05D1CA
:1022F000019AFFF7AFFE04002000FEBD0121094D49
:1023000049422868FFF7A2FF30000099019A064F62
:10231000BC4600DF04002868FFF7C2FFECE7C046B8
:10232000FD100020F81000205520000010B50022FC
:10233000FFF7C8FF10BD10B50300041E0FD00168E1
:102340000B1E0CD04068031E09D0002302789A426D
:1023500005D10431890089B2FFF739FC63681800A0
:1023600010BD000070B5124D2B78002B01D100F08C
:102370009BFAFF220F4B2C781B689A70002C11D10E
:1023800021000D48FFF7D7FF0C4B220018602100F9
:102390000B48FFF75FFE0B4B18600B48FFF734FF4D
:1023A0000A4B1860012300202B70094B187070BD78
:1023B000FC100020041100203C4F0000C00B002046
:1023C000584F0000B4100020704F0000F81000209B
:1023D000FD100020B0B5EFF310858224002D0AD146
:1023E000EFF30585002D06D1EFF31484E40704D440
:1023F000FFF7B8FF04002000B0BD024FBC4600DF6D
:10240000F8E700006523000030B5040085B00D003A
:10241000002817D00378012B14D10800FFF756FDD0
:1024200002A902002000FFF7DFFB012808D12800E5
:10243000451EA841800102990022130005B030BD5D
:102440001020F8E780200021F6E770B58023040013
:102450000E00150000280ED0002A0CD10278012AA7
:1024600009D1FFF71BFC8123002804D03100200094
:10247000FFF718FC2B00180070BD0000F8B5124ED5
:102480003468002C06D00127A368013BA360A26832
:10249000002A00D0F8BD0D4B256821001868356072
:1024A000FFF7D3FF002802D00420FFF7FFF863797D
:1024B000012B07D1E1682000FFF7ECFC002DE9D0EB
:1024C0002C00E4E72771F9E700110020C00B002081
:1024D0007FB504001600081E01D0002A04D0802316
:1024E0002360200004B070BD0B78012BF7D102A946
:1024F00001ADFFF7DDFB042804D00196230007CDD2
:1025000007C3EEE710230193F8E70000B0B504001D
:102510001500EFF31080002803D1EFF305800028A9
:1025200005D02A002000FFF7D3FF2000B0BD08002F
:102530001100034FBC4600DF20606160A260F4E739
:102540000924000010B5012486B06442094B220022
:10255000196803A8FFF7DAFF039B102BF6D1049943
:1025600001A8FFF705FE019B002BEFD002989847CA
:10257000ECE7C046C00B0020074B10B558600223A3
:102580004370064B1B68002B04D01B69002B01D045
:10259000C06B984710BDC04604110020EC1000200D
:1025A00010B50348FFF7EEF8FFF7E6FF10BDC04691
:1025B000B810002070B5041E02D1FFF7F1FF70BD06
:1025C0000A4EA2783068012583789A4207D9FFF72E
:1025D000EBF8336820005D70FFF7CEFFEFE7657022
:1025E00021000348FFF7B4F8E9E7C04604110020D2
:1025F000B810002070B50D0000280ED0074B084C15
:10260000984203D001002068FFF7D8F823680548F6
:102610005D70FFF7B7F8FFF7AFFF70BDFFFF000079
:1026200004110020B8100020024B1B68181E00D0B7
:10263000D87870470411002010B5002816D11A4B25
:102640001B6899700533D977184843689B788B428B
:1026500002D80022100010BD134C2168FFF778F853
:10266000012223685A70FFF79BFFF2E7104BFF220D
:102670001B889842EED8431E0E489B001C58002C25
:10268000E8D0631DA170D977074B1B689C42DBD053
:102690002000FFF70BF96378012BDAD10348FFF72D
:1026A00071F8FFF787FFD4E704110020B81000206D
:1026B000384F0000200B0020F7B51F00CBB21500EB
:1026C0005A42534100902148CE18FFF75FFA041E8A
:1026D00002D100252800FEBD056301251C4B320AEE
:1026E000198882628D42F4D86B1E01931948AB00A1
:1026F000043BC358002B01D00135F3E70121F6B2AA
:102700006170611DE570E761A7632370A670CE77E5
:10271000A11D6360A360E36023612362A382E3825F
:1027200023836383CB77002A03D10B48FFF72EFA6C
:10273000206320000099FFF7B1F96B1E054A9B004A
:102740002000D450FFF736FFC4E7C046E80E002053
:10275000384F0000200B002010090020F7B54C4D29
:10276000002803D02B68DB78984240D100232C68E6
:102770000127637001F05BF9E062FFF77BF92B68DA
:102780001C6A002C13D12A684249D3784248013B85
:102790009B005C50116BFFF708FA29683F480C63F7
:1027A000FFF703FA2C60FFF7FBFE2000FEBD636815
:1027B000002B16D02000FEF7E5FF06000021FFF7F2
:1027C000B9F93000FFF78AF8777031003448FEF726
:1027D000BFFFE368326A6780A660E26034621C0073
:1027E000CFE7E2686380A360E3601400C9E72D4B84
:1027F000FF241B889842D8D8013883000193019A9E
:10280000244BD658002ED0D03000FFF739F83000D6
:10281000FFF764F8346A002C17D11E4B019A316B14
:102820001D489C50FFF7C1F9310034631B48FFF786
:10283000BCF91B48296843689A788B789A42B4D9C6
:1028400001234B70FEF784FFADE76368002B18D0BF
:102850002000FEF797FF07000021FFF76BF9380013
:10286000FFF73CF8012339007B700D48FEF770FF3D
:102870000122E36862803A6AA760E2603C621C0061
:10288000C9E7E2686380A360E3601400C3E7C04661
:1028900004110020200B002010090020E80E002069
:1028A000B8100020384F00002D4B70B51988002358
:1028B0001C002C488B424ED32B4B402219882B48AE
:1028C000FFF73FF980222A4B12061B88294E1A4334
:1028D000294B30001968FFF734F9284B0822198872
:1028E000274B00251868FFF72CF9FF23254C3000F3
:1028F000E370FE3B6370631DDD77A31DDD77A5628A
:102900002570A5706560A560E56025612562A582DA
:10291000E58225836583FFF739F91B492063200091
:10292000FFF7BCF80422194B20001A705D60184BA9
:102930001A70DD601D619D82164B1C60022363705E
:10294000FFF71AFE144A154B12781D705D70DA708D
:10295000FFF772FA70BD9A00121814600133A9E7EC
:10296000384F0000200B0020044F0000E80E00202C
:10297000544F000010090020004F0000064F0000D7
:1029800068F7FF1F0C110020A5160000B8100020EA
:10299000D010002004110020354F00003C0B002017
:1029A000FF22154B1204196810B50A431A601B6800
:1029B000124A5B0211689B0E9B060B431360FFF7E4
:1029C0001BF80F490860002815DB83080D4A9B009F
:1029D0009B181822C0001040E73282401C68224336
:1029E0001A600A68084953099B005B181F210A40B6
:1029F0001E399140196010BD20ED00E01CED00E093
:102A0000E810002000E400E000E100E00323037090
:102A10000023438043608360C3607047F7B54388F9
:102A20000500FF20002B0BD0344AA96812680192E0
:102A3000914205D1013B9BB26B80002B01D000205D
:102A4000FEBD0B6A9D4235D1EB680B624B1DDB7FEF
:102A50000C6A002C36D18B706A68294F002A3CD052
:102A60002800FEF78FFE06002100FFF763F8300014
:102A7000FEF734FF01236B80336AAE60EB601F4BBF
:102A8000356219687B688A789B7830009A420DD24B
:102A90003800FEF75DFE38003100FEF759FE0122D6
:102AA000164B20001B685A7001237370FFF782FDDC
:102AB000C5E71300002BC9D0DA689542F9D1EA685E
:102AC000DA60C3E76268002A05D09078021C984259
:102AD00000D21A1CD3B2E468BBE77A6892789A42B3
:102AE000ADD93800FEF734FE0122044B20001B68EC
:102AF0005A70FFF75FFD2000A2E7C04604110020D6
:102B0000B810002070B5428804000E00164D002A4F
:102B100008D12B68196A8360C160186200200132F5
:102B2000628070BD836829688B42F7D00120002E37
:102B3000F7D08A789978914203D29A701800FEF7FC
:102B4000B5FE6268002A09D029682000FEF700FE61
:102B500030000921FFF74EFD0120E2E72B6863609A
:102B60005A609C60F4E7C0460411002010B50321B0
:102B7000FFF740FD10BD0000436810B5002B0ED0DC
:102B8000FEF700FE0400FEF7A9FE0121200061709F
:102B9000FEF7D0FF21000448FEF7DAFD10BD4388A0
:102BA00001334380FAE7C046B810002010B5040096
:102BB000012100F0A1F901206406E40EA04010BD3F
:102BC00070B505000C0029804B1C0FD00800FFF7E2
:102BD000EDFF074B240BE418A401231DEB60043325
:102BE0002B611434083368606B61AC6070BDC04603
:102BF000C03FE00310B50023C05E00F09DF910BD9A
:102C0000002902D0012906D0704782684168136804
:102C10008B431360F8E78268416813680B43F8E759
:102C20002A22034B1A700022024B1A6130BF7047F0
:102C300000E0074000ED00E00022064B1A609860BB
:102C4000196840320A431A60012219680A431A605F
:102C50007047C0460000044080230D4A70B51168DB
:102C60000C4D0B4313602C68002C05D00A48013C26
:102C7000FFF7E2FF2C6070BD084D2888002803D0C4
:102C8000FFF7DAFF2C80F6E7FEF7F6FBF3E7C04626
:102C900000000440E0070020FFFF0000E4070020E0
:102CA000F7B5684B1A680192002A00D08FE0012422
:102CB0001C608023644E654A1B04B158644D0B436D
:102CC000B350019A634B644F1A6001235B426B61FE
:102CD0000533EB61EB692343EB61604B3868F158D6
:102CE0000723090C1940091900F04EFF5C4B5D49A0
:102CF000C01800F049FF5C4A01386860EC60B358C6
:102D00005A4D2343B350019B1C202B60584900F0BF
:102D1000E9FB8022574B52051A603F224F4B3F6818
:102D2000F058554E000F3378001947439343802BDA
:102D300033D03378934364D173795B0653D4B3793A
:102D4000DB065ED43378383ADB08717813402932D9
:102D50009C40114203D0FF2364015B011C401F22F1
:102D6000F3789343602B35D007D8202B0ED0402B1F
:102D70002ED0002B35D1A02106E0A02B2DD0C02BCA
:102D80002DD0802B2DD1B721890001E0A021C900D1
:102D90002000784300F0F8FE0700002F31D03149C1
:102DA000380000F077FF0C1E2BD12E49380000F0C0
:102DB000EBFE0723012842D021000123400801280F
:102DC0001AD17823C9001940753B19436960F7BDD2
:102DD000F021DCE7A0210901DAE7B721D7E727498D
:102DE000D6E72749D4E71F2330797179184001309D
:102DF000194078431831CDE7184202D1013140081B
:102E0000DDE70223327813433370012372781343D2
:102E1000737000230E226B60337A13400AD0022BAA
:102E20000CD0337A934333720423327A1A433272CA
:102E30006A6801E008236A68134300E06B686B600E
:102E4000C5E7C046DC070020007004403C100000CD
:102E5000FC70034000700340E0F0FF1F44100000CE
:102E600020A1070040420F0038100000000004407D
:102E7000592C000000E100E00040064095080000E9
:102E8000710B0000054B10B51B68002B01D1FFF73B
:102E900007FF034B9869C04310BDC046DC07002004
:102EA000FC7003404021024A13688B431360704753
:102EB000000004407047000070B50400FFF7E2FF17
:102EC000201A002800DC0120084D094E041480B2AD
:102ED0002C603080002C05D00648013CFFF7ACFE8A
:102EE0002C6070BDFFF7A8FE3480FAE7E0070020F1
:102EF000E4070020FFFF0000030BF0B51F000122D4
:102F00000937BA40084D094C09022E5932432A515B
:102F1000074A9B187C221B03104018180368054AB7
:102F2000134019430160F0BD0070044038100000E8
:102F300049000400FFF8FFFF0322034BC018036899
:102F40009343194301607047009004403F210020E3
:102F50000E4A10B513788B4383420FD10C490D4BA9
:102F600058580D49000F09680130484351790B4A00
:102F7000490604D499580A4C2140995010BD80212B
:102F80009C584902214399504008F7E70040064009
:102F90004410000000700440E0F0FF1F0410000027
:102FA000FFFFFEFF70B50A4D8C0006006059002837
:102FB0000DD073B2002B03DA064B01211B68984732
:102FC000B30604D5034B00211B682859984770BDF0
:102FD000EC070020E807002010B5034B0121187909
:102FE000C0B2FFF7DFFF10BD00B0064010B5034BC5
:102FF00002211879C0B2FFF7D5FF10BD00C006400E
:1030000010B5074C00212079C0B2FFF7CBFF082391
:1030100022791A4202D022791343237110BDC0468F
:1030200000A00640F7B50D000C2103680600DC780F
:103030000C400194DA788A43DA70414A934200D016
:1030400073E0FFF783FF002814D0FFF77FFF29010B
:1030500000F09AFD1F253268030A11782B40A9431E
:103060000B431370C0B253785070D378019C1C434B
:10307000D470F7BD334B344AD758344B3F0F1A68DE
:103080003F2301375743324A9C4611789943130036
:10309000802953D064461178A143D8D1517949068B
:1030A0003AD49279D206D2D419785A7889069446BD
:1030B0000122490F8A4030206146014203D0FF219E
:1030C000520149010A401F21DB788B43602B1AD043
:1030D00007D8202B0ED0402B13D0002B1AD1A021C3
:1030E00006E0A02B12D0C02B12D0802B12D1B7211A
:1030F000890001E0A021C9007A43100000F044FDDE
:10310000A5E7F021F7E7A0210901F5E7B721F2E7EC
:103110001049F1E71049EFE71F2310795179184062
:103120000130194078431831E8E7064B064AD15878
:10313000064B4903490F01311868DFE7380086E77D
:1031400000A006404410000000700440E0F0FF1FA3
:103150000040064095080000710B0000F0B50C27F8
:103160000168C878CE783840BE43CE70012A15D0A9
:10317000002A13D0022A14D064002C43E4B28C70CD
:1031800020240A78013BA2430A700A785B011343AA
:10319000DBB20B70CB781843C870F0BD150014007B
:1031A000EAE700250124E7E7F8B50E0004004949E5
:1031B00030001700FEF7CAF9474905003800FEF74E
:1031C000C5F901002800FEF7A3F9444B0500206073
:1031D000984200D16CE0424B984200D170E0414BE4
:1031E000984210D1FFF7B2FE3F4B404A00285BD017
:1031F00080219858C9040143995080223C49D2004B
:10320000585802435A500C212368DA788A43DA70FE
:103210000822D9780A43DA70402219791142FCD089
:103220000C21DA788A43DA702C4B9D424ED02C4B1D
:103230009D424DD02B4B9D4201D1002363609621CE
:1032400020008901FFF7EEFE012300220821200063
:10325000FFF784FF1F493000FEF73EF91E49380092
:10326000FEF73AF9731C08D0082322683000D178A1
:103270000B43D3700221FFF75FFE7B1C08D00423B1
:1032800022683800D1780B43D3700221FFF754FE37
:10329000144B9D4207D10122164B21001A6016489B
:1032A000073200F0D2FFF8BD802198580905A2E747
:1032B00080230D490E4A1B01885803438B50A2E717
:1032C000802309490A4A5B018858F6E70123B5E7DC
:1032D0000223B3E7E04F0000744F000000B0064047
:1032E00000C0064000A0064000700440041000002A
:1032F00034100000F807002050110020034B196023
:10330000436803499B005A507047C046E8070020B5
:10331000EC0700200368274810B5834216D02648E2
:10332000834216D02548834216D10C242448002A13
:103330001DD0002913D0012916D00100200000F073
:10334000D1F80123A3401F4A136010BD1E480D246D
:10335000EDE71E480E24EAE700200400E7E72022FC
:10336000D9780A43DA70E8E7DA788021F9E70029AA
:1033700004D001290BD0002904D00CE02021DA78F8
:103380008A43DA70DB785BB2DB43DB0F07E07F2137
:10339000DA780A40DA70DA78012352099343002B75
:1033A000D3D00123A3400A4AD367BFF34F8FBFF3A3
:1033B0006F8FCAE700B0064000C0064000A006407C
:1033C0000130000000E100E0D92F0000ED2F0000E7
:1033D00004E100E0082203681979114202D019794A
:1033E0000A431A71187920231840704710B5040059
:1033F0002000FFF7EFFF0028FAD02368D879C0B289
:1034000010BD082203681979114202D019790A43C4
:103410001A7118797F239843704770B505000C0026
:103420002800FFF7EEFF0028FAD02B68E4B2DC7129
:1034300070BD7FB510216846FEF702F807B000BDE9
:10344000882200201F4B520110B5985080221E493F
:1034500092005C5822435A501C491D4A1D4C9950F9
:103460001D4B996C21409964DA6C1F212240DA646B
:1034700089221A4B1A701A4B653A5A7076321A70B2
:10348000DA780A40DA7001221A7158710F3299798C
:103490001142FCD10C219A790A40082AFBD10C2157
:1034A00038325A719A790A40082AFBD13832997910
:1034B0001142FCD01A220C211A709A790A400C2A67
:1034C000FBD110BD00700440381000000000011056
:1034D00044100000FFF8FFFE00900440005006403A
:1034E000004006400A4AF0B5936895681C00002D1C
:1034F0000AD11D00074CC035E61A1F68F750043387
:10350000AB42FAD19460034C103080000151F0BD01
:1035100000ED00E000F0FF1F10B50400FEF730F8EA
:103520002368002B05D1E068FDF7D0FF0123606020
:103530002360FEF73BF810BD70B50500FEF720F8DC
:103540002C68002C04D0E868FDF7C0FF6C68041BF1
:10355000FEF72CF8200070BD70B50500FEF710F8DE
:103560002800AC68FFF7E8FF2418FEF71FF82000DA
:1035700070BD10B5FFF7F0FFFA21890000F08EFB57
:1035800010BD10B50400FDF7FBFFE068FDF79EFFDE
:1035900000236060A360FEF709F810BD002310B59A
:1035A0000360436083600400FDF762FFE060200079
:1035B000FFF7E7FF200010BD10B50368984710BD66
:1035C000002801D00B6803607047704770B5040095
:1035D0000D0088420CD0FDF777FD002C08D0EB6879
:1035E000002B03D05B68290020009847EB68E3605C
:1035F000200070BD7047000010B50400034B083375
:103600000360FDF76BFD200010BDC0465850000060
:1036100010B50400FFF7F0FF200000F0F3F92000E0
:1036200010BD000010B5040000F028F8024B200087
:103630000833236010BDC0465850000070477047E3
:1036400070470B01013110B5090141188A680C332C
:10365000C31812681800904710BD70B504000D0023
:1036600003681B6898472900201DFFF7DBFC2368CF
:10367000E5625B682000984770BD0000F0B587B038
:103680000192194A0400083202600022174E184DB8
:10369000C36242608260826182620F000C3002A9C4
:1036A00005950296FFF792FF02A8FDF70DFD200099
:1036B00002A91C3005950296251DFFF787FF02A879
:1036C000FDF702FD019A39002800FFF76DFDE16A60
:1036D0002800FFF7A7FC280022000649FFF70EFE8E
:1036E000200007B0F0BDC046705000003D3600001D
:1036F0004C50000043360000F0B50F0004001500E8
:10370000036887B01B689847FDF73AFFFB682801FC
:103710000193261D002B11D00C3020183900FFF723
:1037200055FF012229003000FFF7F4FDFDF73EFFB1
:10373000236820005B68984707B0F0BD064B0C304B
:103740000293064B02A920180593FFF73FFF02A83A
:10375000FDF7BAFC019AE5E73D3600004C50000049
:1037600010B500F0DFFD10BD10B500F039FE10BD42
:1037700010B500F08DFD10BD70B50400FFF782FBA1
:10378000FA2105008900200000F088FA061E03DDFA
:10379000FDF7F0FE002805D1FFF774FB401BA042A7
:1037A000FAD370BD300000F03BF9F5E7FA2310B50D
:1037B0009B005843FFF7E0FF10BD0000084B10B519
:1037C0001B68002B0AD1074C082120000422FFF7B8
:1037D000EBFC962120008901FFF724FC10BDC046B8
:1037E000F8070020501100207047000010B50400B9
:1037F000022801DC002010BD00F03CFB0923002260
:103800000360033C084BA400E058E250904208D00B
:1038100003681B699847041EECDA00F02BFB644236
:10382000046001204042E6E7FC07002070B5060076
:103830000D00140000F01EFB09230360022E0EDCB5
:10384000124B1B68002B01D1FFF7B8FF2E19B542B0
:1038500016D029780E48FFF7E0FD0135F7E7033E63
:103860000C4BB600F05800280CD003682200DB682F
:1038700029009847041E03DA00F0FCFA6342036053
:10388000200070BD01246442FAE7C046F80700201A
:1038900050110020FC07002070B504000D00160038
:1038A00000F0E8FA09230360022C0CDC104B1B68C3
:1038B000002B01D1FFF782FF0E48FFF797FD01248F
:1038C0002870200070BD033C0B4BA400E05800287A
:1038D0000BD0036832009B6829009847041EF0DA79
:1038E00000F0C8FA63420360EBE701246442E8E7B2
:1038F000F807002050110020FC07002070B50400DC
:103900000D00160000F0B6FA092303600020022C17
:103910000ADD033C064BA400E058002805D00368EC
:103920003200DB692900984770BD01204042FBE767
:10393000FC07002010B5FFF757FFFDF7E9FE10BDAB
:10394000704710B5FFF7FCFFFDF7BEFA10BD000091
:103950000C4910B50B681818EFF30882904205D394
:103960000C220120084B40421A6010BD074A14681F
:10397000002C04D0064A126812199042F0D2086056
:103980001800F2E7E4F0FF1F58110020FC080020A7
:103990000009002070B50A4C05002368986800F003
:1039A00025FB2368D86800F021FBFDF7DFFD002828
:1039B00001D0FDF713FE002D01D0FDF727FEFEE735
:1039C000E8F0FF1F0120704710B5FFF7E3FF10B5C7
:1039D000FDF7ACFE10BD10B5FDF7B2FE10BD000046
:1039E00010B500F013FC041E02D10248FDF708FEDA
:1039F000200010BD8850000010B5002801D000F054
:103A00000FFC10BD10B5FFF7F7FF10BD034B10B54D
:103A10001B68002B00D0984710BDC0460409002049
:103A200010B5FEF785FB10BD80F309887047EFF3F2
:103A300009807047684680F309884A480078C007C3
:103A400003D1032080F314887047022080F3148888
:103A50007047454B9C46EFF305831B0605D1EFF3FA
:103A60001483DB0701D000DF704760473F4B9C4663
:103A7000EFF305831B0605D1EFF31483DB0701D0B9
:103A800000DF70476047EFF30980816902390978E8
:103A900000292BD1A6461FC8A4467446E047EFF381
:103AA000098307C3324B06CB91421CD0083B002947
:103AB0000DD0EFF309802038C862F0C044464D466F
:103AC00056465F46F0C00CB4FDF7D4FF0CBC1A603C
:103AD000D06A1030F0C8A046A946B246BB4680F373
:103AE00009882038F0C80220C043004710B5214A99
:103AF0001268914209D8204C89006458A6461FC814
:103B0000A446F047EFF309840FC410BDFDF736FF5C
:103B1000174B06CB91421AD0083BEFF309802038AF
:103B2000C862F0C044464D4656465F46F0C00CB4ED
:103B3000FDF7A0FF0CBC1A60D06A1030F0C8A04698
:103B4000A946B246BB4680F309882038F0C8022057
:103B5000C0430047FDF770FFDAE7FDF76BFFFDF7A5
:103B60006BFFD5E7364F00008D1B0000AB1B00003C
:103B70000411002000000000FCFFFFFFFEE7FEE74D
:103B8000FEE7FEE7FEE7FEE7002243088B4274D320
:103B900003098B425FD3030A8B4244D3030B8B424E
:103BA00028D3030C8B420DD3FF22090212BA030C57
:103BB0008B4202D31212090265D0030B8B4219D338
:103BC00000E0090AC30B8B4201D3CB03C01A524158
:103BD000830B8B4201D38B03C01A5241430B8B42A0
:103BE00001D34B03C01A5241030B8B4201D30B0389
:103BF000C01A5241C30A8B4201D3CB02C01A5241B0
:103C0000830A8B4201D38B02C01A5241430A8B4272
:103C100001D34B02C01A5241030A8B4201D30B025B
:103C2000C01A5241CDD2C3098B4201D3CB01C01A75
:103C3000524183098B4201D38B01C01A524143097F
:103C40008B4201D34B01C01A524103098B4201D36D
:103C50000B01C01A5241C3088B4201D3CB00C01ADA
:103C6000524183088B4201D38B00C01A5241430852
:103C70008B4201D34B00C01A5241411A00D2014677
:103C8000524110467047FFE701B5002000F0F0F800
:103C900002BDC0460029F7D076E7704703460B43C4
:103CA0007FD4002243088B4274D303098B425FD335
:103CB000030A8B4244D3030B8B4228D3030C8B4261
:103CC0000DD3FF22090212BA030C8B4202D3121247
:103CD000090265D0030B8B4219D300E0090AC30B1C
:103CE0008B4201D3CB03C01A5241830B8B4201D3C9
:103CF0008B03C01A5241430B8B4201D34B03C01AB2
:103D00005241030B8B4201D30B03C01A5241C30A29
:103D10008B4201D3CB02C01A5241830A8B4201D39A
:103D20008B02C01A5241430A8B4201D34B02C01A84
:103D30005241030A8B4201D30B02C01A5241CDD229
:103D4000C3098B4201D3CB01C01A524183098B4274
:103D500001D38B01C01A524143098B4201D34B015D
:103D6000C01A524103098B4201D30B01C01A5241C0
:103D7000C3088B4201D3CB00C01A524183088B4247
:103D800001D38B00C01A524143088B4201D34B0030
:103D9000C01A5241411A00D20146524110467047A2
:103DA0005DE0CA0F00D04942031000D340425340A7
:103DB00000229C4603098B422DD3030A8B4212D367
:103DC000FC22890112BA030A8B420CD38901921199
:103DD0008B4208D3890192118B4204D389013AD0D6
:103DE000921100E08909C3098B4201D3CB01C01AAB
:103DF000524183098B4201D38B01C01A52414309BE
:103E00008B4201D34B01C01A524103098B4201D3AB
:103E10000B01C01A5241C3088B4201D3CB00C01A18
:103E2000524183088B4201D38B00C01A5241D9D230
:103E300043088B4201D34B00C01A5241411A00D2B1
:103E40000146634652415B10104601D34042002BAD
:103E500000D54942704763465B1000D3404201B52C
:103E6000002000F005F802BD0029F8D016E77047E1
:103E70007047C046014B18687047C046E8F0FF1F06
:103E8000F7B58A8905000C00130760D44B68002B36
:103E900004DC0B6C002B01DC0020FEBDE76A002F68
:103EA000FAD000232E682B6080235B011A4034D0A7
:103EB000606DA3895B0706D56368C01A636B002B2E
:103EC00001D0236CC01A0200216A00232800E76A8F
:103ED000B847A189431C06D12B681D2B31D82C4A29
:103EE000DA40D3072DD50023636023692360CB0418
:103EF00005D5431C02D12B68002B00D16065616B96
:103F00002E600029C8D023004433994202D02800F3
:103F1000FFF72EFC00206063BFE70123216A280021
:103F2000B847431CC5D12B68002BC2D01D2B01D034
:103F3000162B01D12E60AFE74023A2891343A38142
:103F4000ABE740230B430120A3814042A5E70F6963
:103F5000002FA1D00B680F60DB1B01930023920799
:103F600000D14B69A360019B002B00DC94E7019B0F
:103F70003A00216A2800A66AB047002803DC4023E3
:103F8000A2891343DFE7019B3F181B1A0193EAE75D
:103F9000010040200B6970B505000C00002B01D119
:103FA000002070BD002804D08369002B01D100F0EF
:103FB00073F80B4B9C4209D16C680C22A35E002B5A
:103FC000EED021002800FFF75BFFEAE7054B9C429B
:103FD00001D1AC68F1E7044B9C42EED1EC68ECE710
:103FE000C8500000E8500000A850000010B5011EA5
:103FF00005D1054B0549186800F0C2F810BD044B07
:104000001868FFF7C7FFF9E708510000953F000067
:10401000E8F0FF1F10B5024900F0B2F810BDC0462D
:10402000953F0000002310B50400036043608360E7
:1040300081814366C2810361436183611900082263
:104040005C3000F01DF9054B24626362044BA362EF
:10405000044BE362044B236310BDC0467547000068
:104060009D470000D54700000148000070B5682555
:104070004A1E55430E0029007431FFF771FB041EE0
:1040800008D000212A00016046600C30A060683230
:1040900000F0F6F8200070BD836913B50400002B12
:1040A00028D18364C3640365134B144A1B6882627E
:1040B0000193984201D101238361200000F020F890
:1040C0006060200000F01CF8A060200000F018F8EC
:1040D0000022E06004216068FFF7A4FF01220921AB
:1040E000A068FFF79FFF02221221E068FFF79AFF06
:1040F0000123A36113BDC046085100001540000014
:10410000F8B51E4B07001E68B369002B02D13000C2
:10411000FFF7C2FF4836B4687368013B04D53368C3
:10412000002B07D03668F6E70C22A55E002D0DD0D7
:104130006834F2E704213800FFF798FF3060002868
:10414000F0D10C2304003B602000F8BD01232000C7
:104150005B42E3810233A38165662560A5606560EB
:1041600025616561A561082229005C3000F088F8AE
:104170006563A563A564E564E6E7C04608510000F1
:10418000F7B504000700002601914834002C01D146
:104190003000FEBD6368A5680093009B013B00935F
:1041A00001D52468F2E7AB89012B08D90E22AB5E5A
:1041B000013304D029003800019B98470643683535
:1041C000EBE7000070B500260C4D0D4C641BA410ED
:1041D000A64209D1002600F001FD0A4D0A4C641BDD
:1041E000A410A64205D170BDB300EB589847013624
:1041F000EEE7B300EB5898470136F2E74CF1FF1FAA
:104200004CF1FF1F4CF1FF1F54F1FF1F10B5034B82
:1042100001001868FFF7A4FA10BDC046E8F0FF1FC0
:1042200010B5034B01001868FFF7A2FA10BDC04695
:10423000E8F0FF1FC9B28218904201D100207047F8
:1042400003788B42FBD00130F6E7002310B59A4289
:1042500000D110BDCC5CC4540133F8E710B58842DE
:1042600002D98B18984208D300239A4207D0CC5C1D
:10427000C4540133F9E78B5C8354013AFBD210BD7F
:1042800003008218934200D1704719700133F9E797
:1042900070B50500002910D00C1F2368002B00DA30
:1042A000E4182800FFF793FB1D4A1368002B05D183
:1042B000636014602800FFF78EFB70BDA34209D92C
:1042C000216860188342F3D118685B684118216047
:1042D000EEE713005A68002A01D0A242F9D9196802
:1042E0005818A0420BD1206809185818196082424A
:1042F000E0D110685268411819605A60DAE7A042AC
:1043000002D90C232B60D5E721686018824203D1C3
:10431000106852684118216062605C60CAE7C0465C
:1043200008090020032370B5CD1C9D430835060005
:104330000C2D1ED20C25A9421DD83000FFF747FBDB
:10434000254A14682100002919D1244C2368002B28
:1043500003D1300000F0FCF920602900300000F0AB
:10436000F7F9431C2CD10C2330003360FFF733FBEB
:1043700003E0002DDFDA0C233360002070BD0B68F2
:104380005B1B1AD40B2B03D90B60CC18256003E000
:104390008C420ED1636813603000FFF71CFB2000D5
:1043A00007220B30231D9043C31AE7D05A42E25034
:1043B000E4E74B6863600C00EEE70C004968C2E775
:1043C0000323C41C9C43A042E0D0211A300000F01B
:1043D000BFF9431CDAD1C6E7080900200C09002008
:1043E000F8B507000D001600002905D11100FFF7F0
:1043F000B7F904002000F8BD002A03D1FFF7B8F98F
:104400003400F7E700F068FA2C008642F2D9310058
:104410003800FFF7A5F9041EECD029003200FFF7A1
:1044200014FF29003800FFF7A3F9E3E7F7B51500FB
:1044300001938A680B6900900C00934200DA130024
:1044400022002B6043321278002A01D001332B6006
:1044500023689B0602D52B6802332B60062723684E
:104460001F4027D0230043331B785A1E93412268F4
:10447000920630D42200019943320098089EB0473A
:10448000431C25D0062320682A68E16803400025E4
:10449000042B03D18D1AEB43DB171D40A36822695F
:1044A000934201DD9B1AED180027BD4220D1002068
:1044B00010E00137E3682A689B1A9F42D2DA220093
:1044C0000123193201990098089EB047431CF0D18E
:1044D00001204042FEBD3020E11843310870210028
:1044E0005A1C45310978A218433202331170C1E7D2
:1044F000220001231A3201990098089EB047431CFC
:10450000E6D00137D1E70000F0B58BB006920A0083
:1045100043320793059004920A7E0C00109B6E2A8A
:1045200000D18FE017D8632A2CD008D8002A00D1F8
:1045300099E0582A54D026004236327029E0642A85
:1045400001D0692AF7D121681A68080623D5111D00
:104550001960156825E0732A00D188E008D86F2A11
:1045600029D0702AE7D1202209680A43226003E09B
:10457000752A20D0782ADED12200782145321170A8
:104580006C4A30E00E001A684236111D196013683B
:104590003370012379E04906D9D5111D1960002334
:1045A000D55E002D03DA2D23049A6D421370624B01
:1045B0000A2703932FE020681968050603D5081D14
:1045C00018600D6805E04006F9D50D68081D1860F3
:1045D000ADB2594B082703936F2A18D00A2716E06B
:1045E00045310A70544A03921A682168101D1860F8
:1045F0001568080622D5CB0702D520231943216070
:104600001027002D03D1202322689A432260230023
:10461000002243331A706368A360002B5CDB042222
:10462000216891432160002D58D1049E002B64D055
:104630002600039B42361B7833705EE04806DAD5CD
:10464000ADB2D8E709681A68080605D5111D1960CA
:10465000136862691A6006E04906F7D5111D1960F2
:104660001368A28A1A800023049E236154E01A680A
:10467000111D19601668002162683000FFF7DAFD2D
:10468000002801D0801B6060636823610023049AC6
:10469000137041E02369320006990598079DA847E9
:1046A000431C43D0236800259B070FD4099BE06877
:1046B00098423DDA18003BE02200012319320699A6
:1046C0000598079EB047431C30D00135E368099A2E
:1046D0009B1A9D42F0DBE9E7002DA9D0049E28003B
:1046E0003900FFF7D7FA039B013E5B5C280033706B
:1046F0003900FFF749FA051EF1D1082F09D12368C7
:10470000DB0706D563682269934202DC3023013E51
:104710003370049B9B1B2361079B09AA0093210014
:10472000069B0598FFF782FE431CB3D1012040424F
:104730000BB0F0BD1D5100000C51000010B5034B33
:104740000A0001001868FFF70FF810BDE8F0FF1F1E
:10475000002370B5064C050008002360FFF7F8F849
:10476000431C03D12368002B00D02B6070BDC046D2
:104770005811002070B50C000E25495F00F01AFAA0
:10478000002803DB636D1B18636570BDA389024AB3
:104790001340A381F9E7C046FFEFFFFFF8B51F0004
:1047A0008B8905000C001600DB0505D50E23C95EBC
:1047B0000022022300F07CF8A389054A2800134058
:1047C000A38132000E23E15E3B0000F04BF8F8BD00
:1047D000FFEFFFFF70B50C000E25495F00F068F891
:1047E000A389421C03D1054A1340A38170BD8022D6
:1047F00052011343A3816065F8E7C046FFEFFFFF56
:1048000010B50E23C95E00F041F810BD0023C25C54
:104810000133002AFBD1581E7047000030B59BB011
:104820000091049108496D4602910591012182246D
:104830004942E981A4006946AC8100F0B7F8002341
:10484000009A13701BB030BDFFFFFF7F10B513003F
:104850000A00010002480068FFF7E0FF10BDC046F3
:10486000E8F0FF1F70B50500080011000022064C9B
:1048700022601A00FEF7DAFF431C03D12368002BE5
:1048800000D02B6070BDC04658110020002370B5C9
:10489000064C050008002360FEF7A8FF431C03D167
:1048A0002368002B00D02B6070BDC046581100203B
:1048B00070B50500080011000022064C22601A00A5
:1048C000FFF71CF8431C03D12368002B00D02B609A
:1048D00070BDC046581100200B1F1B68181F002B0D
:1048E00001DA0B58C0187047F0B58E6885B0070024
:1048F0000C00039201939E4239D890238A89DB00F1
:104900001A4234D00325096923685B1A029363694C
:1049100002985D43EB0F5D19019B6D1001331B186D
:10492000AB4200D91D00530532D529003800FEF7EF
:1049300017FF061E09D10C233B6040230120A289EA
:1049400040421343A38105B0F0BD029A2169FFF7ED
:104950007CFCA389144A1A4080231343A381029B41
:104960002661F61826606561019EED1AA560019B1F
:10497000B34200D21E00320003992068FFF76EFC9C
:10498000A36800209B1BA36023689E192660DAE7BA
:104990002A003800FEF7E8FE061EE0D12169380043
:1049A000FEF7E6FEC7E7C0467FFBFFFFF0B59FB00E
:1049B000029005938B890F0016001B0611D50B6919
:1049C000002B0ED14021FEF7CBFE38603861002865
:1049D00005D10C23029A013813601FB0F0BD4023AB
:1049E0007B61002306AD6B6120336B761033AB76B1
:1049F00034002378002B47D1A31B04930DD0A31BB5
:104A0000320039000298FFF76FFF431C00D1B5E078
:104A10006A69049B944663446B612378002B00D140
:104A2000ACE00122002352426A6002A954325218BB
:104A300001342B60EB60AB601370AB65584E052200
:104A400021783000FFF7F6FB621C002820D129688E
:104A5000CB0604D5532302AE20309B1918700B07E8
:104A600004D553232B2002AE9B19187023782A2BD0
:104A700016D000200A21099B2278303A092A55D9FC
:104A8000002815D0099313E0252BB5D00134B0E7E9
:104A90000123801B8340296814000B432B60CDE762
:104AA000059B181D1B680590002B39DB099314002A
:104AB00023782E2B0BD16378621C2A2B3ED1059BC9
:104AC00002341A1D1B680592002B34DB0793354E08
:104AD000217803223000FFF7ADFB002806D04023E9
:104AE000801B83402A68013413432B6021780622FF
:104AF0002D48661C2976FFF79DFB002846D02B4BDE
:104B0000002B2FD12968059B0722C90528D59B18A2
:104B10009343083305936B69039A9B186B6167E7AE
:104B20005B42EB6002230B432B60C0E74B43013435
:104B30009B180120A0E701235B42C7E70023140074
:104B40000A201A006B6021783039092903D9002B1B
:104B5000BDD00792BBE74243013452180123F2E76C
:104B60000733D5E705AB00933A00114B29000298B3
:104B700000E000BF0390039B0133CCD1BB890B98AD
:104B80005B0600D429E70120404226E705AB0093ED
:104B90003A00074B29000298FFF7B6FCEAE7C04647
:104BA0002E51000034510000385100000000000078
:104BB000E948000070B50500080011000022064C0D
:104BC00022601A00FEF768FE431C03D12368002B05
:104BD00000D02B6070BDC04658110020F8B5C0460B
:104BE000F8BC08BC9E467047F8B5C046F8BC08BC87
:104BF0009E467047000000000000000071040000A5
:104C0000A1040000DD040000E50400000000000035
:104C1000000000008D06000059070000ED040000B0
:104C2000F504000000000000000000006506000020
:104C300025070000FD04000005050000000000003D
:104C40000000000091050000070800000D050000AD
:104C50001505000000000000000000001D05000018
:104C600021050000250500002D05000000000000C2
:104C700000000000310F0000610C0000550500002D
:104C800000000000000000003505000041050000A4
:104C9000450500004D050000746F67676C655F6C2B
:104CA0006564003966306539386264613635393893
:104CB0003139383664646635336166613761343062
:104CC00065343900313161626437333163323539EB
:104CD00033333236316364363138336264313264AF
:104CE0003632393500726F7373657269616C5F6D4E
:104CF0007367732F4C6F67003061643531663838E5
:104D0000666334343839326638633130363834309B
:104D1000373736343630303500726F7373657269E9
:104D2000616C5F6D7367732F546F706963496E6652
:104D30006F00726F7373657269616C5F6D73677317
:104D40002F52657175657374506172616D004D65A8
:104D500073736167652066726F6D20646576696341
:104D6000652064726F707065643A206D657373615D
:104D70006765206C6172676572207468616E20627D
:104D800075666665722E0063643731363663373474
:104D9000633535326333313166626363326665355C
:104DA00061376263323839007374645F6D7367739F
:104DB0002F54696D65006434316438636439386632
:104DC00030306232303465393830303939386563E3
:104DD000663834323765007374645F6D7367732FA0
:104DE000456D707479000000B1100000A310000040
:104DF000AF1000002F686F6D652F6E696869742FA2
:104E0000726F732F6C69622F726F735F6C69622FA0
:104E1000427566666572656453657269616C2F429E
:104E20007566666572656453657269616C2E637040
:104E30007000257320256420627566666572206F98
:104E4000766572777269746520286D61785F627526
:104E5000665F73697A653A202564206578636565C5
:104E60006465643A20256429210D0A0000000000D1
:104E700000000000F5350000F53500001D110000B0
:104E800075110000751000008110000085100000F1
:104E9000CF120000E71200004913000017130000B2
:104EA000A84E000054F7FF1FA12C0000852E000023
:104EB000A52E0000B52E0000B92E000070696E6DA1
:104EC0006170206D69732D6D617463680070696E27
:104ED0006D6170206E6F7420666F756E6420666FF2
:104EE00072207065726970686572616C00636F75BD
:104EF0006C64206E6F742070696E6F7574000000B2
:104F000010020000CC010000E803000052545820B9
:104F10006572726F7220636F64653A203078253055
:104F200038582C207461736B2049443A203078251E
:104F30003038580A0010010007000000040000008B
:104F400078F7FF1F98F7FF1FA8F7FF1FB8F7FF1F9D
:104F500005000100000200014525000002000000DC
:104F60000100000020030000C80B00207FBB0000F0
:104F7000CC0700200C20000000B006400300000019
:104F80000400000000A006400200000010300000F5
:104F900000C00640030000000830000000C00640CA
:104FA000030000001830000000A0064003000000CD
:104FB0005C40000000C006400400000054400000B7
:104FC00000A00640040000000440000000B00640BD
:104FD00003000000FFFF0000FFFFFFFF00000000D4
:104FE0001020000000B00640030000000800000090
:104FF00000A00640020000001430000000C006407F
:10500000030000000C30000000C006400300000058
:105010001C30000000A006400300000050400000CB
:1050200000A00640040000005840000000C00640F8
:10503000040000000040000000B006400300000033
:10504000FFFF0000FFFFFFFF00000000B935000078
:10505000C1350000CB35000000000000000000005A
:10506000F5350000F5350000F93500001136000077
:1050700000000000000000003F3600004136000044
:10508000DD100000091100004F70657261746F72CD
:10509000206E65775B5D206F7574206F66206D658F
:1050A0006D6F72790D0A0000000000000000000022
:1050B00000000000000000000000000000000000F0
:1050C00000000000000000000000000000000000E0
:1050D00000000000000000000000000000000000D0
:1050E00000000000000000000000000000000000C0
:1050F00000000000000000000000000000000000B0
:105100000000000000000000ECF0FF1F30313233DF
:105110003435363738394142434445460030313220
:105120003334353637383961626364656600232D60
:10513000302B2000686C4C006566674546470000D0
:04514000000000006B
:08514400E4E8FF7F0100000018
:10514C00000000000100000041160000591600008C
:10515C00000000000100000000100000C8F7FF1F55
:10516C00006CDC0260110020ECF0FF1F000000005E
:10517C00C8500000E8500000A850000000000000DB
:10518C000000000000000000000000000000000013
:10519C000000000000000000000000000000000003
:1051AC0000000000000000000000000000000000F3
:1051BC0000000000000000000000000000000000E3
:1051CC000000000000000000000000003904000096
:0851DC00E50A000011040000C7
:04000003000000C138
:00000001FF
