:020000040800F2
:1000000000800120E14C0008154D0008154D000846
:10001000154D0008154D0008154D000800000000A2
:10002000000000000000000000000000A54B0008D8
:10003000154D0008000000004B4C0008AB4C0008B8
:10004000154D0008154D0008154D0008154D000808
:10005000154D0008154D0008154D0008154D0008F8
:10006000154D0008154D0008154D0008154D0008E8
:10007000154D0008154D0008154D0008154D0008D8
:10008000154D0008154D0008154D00080000000032
:10009000000000000000000000000000154D0008F6
:1000A000154D0008154D0008154D0008154D0008A8
:1000B000154D0008154D0008154D0008154D000898
:1000C000154D0008154D0008154D0008154D000888
:1000D000154D0008154D0008154D000800000000E2
:1000E000154D0008154D0008154D000800000000D2
:1000F000000000000000000000000000154D000896
:1001000000000000154D0008154D0008154D0008B1
:1001100000000000000000000000000000000000DF
:10012000154D0008154D0008154D0008154D000827
:10013000154D000800000000000000000000000055
:10014000000000000000000000000000154D000845
:10015000154D0008154D0008154D0008154D0008F7
:10016000154D0008154D00080000000000000000BB
:10017000000000000000000000000000000000007F
:1001800000000000154D0008000000000000000005
:10019000154D000810B5054C237833B9044B13B145
:1001A0000448AFF300800123237010BD300200200B
:1001B000000000008C6A00080C4B43B10C480D494C
:1001C00010B5AFF300800C48036823B910BD0A488E
:1001D000036833B97047094B002BF7D0BDE81040D6
:1001E0001847064B002BF5D0184700BF0000000051
:1001F0008C6A0008340200202C020020000000005D
:1002000043680B7043681B0A4B70C3888B70C379BB
:10021000CB7083680B7183681B0A4B7143898B71A8
:10022000C37ACB71082070470B7843604A7843EA61
:10023000022343608A7843EA02434360CA7843EA70
:10024000026343600B7983604A7943EA0223836047
:100250008A7943EA02438360CA7943EA026383608E
:100260000820704700487047C06400080048704785
:100270009F640008004870473164000800487047D8
:100280001064000800487047FD630008004870478C
:10029000DC630008004870474A6400080048704763
:1002A000BB63000883880B7083881B0A4B70022095
:1002B00070470B7883804A7843EA022383800220C8
:1002C0007047000000487047EF640008004870471E
:1002D000CE64000870B5054600F10C042046FFF717
:1002E000E8FF6B692046BDE8704018478069704799
:1002F00000487047EF64000800487047CE6400086B
:1003000090F8E8057047000081880A4807EE901AC7
:10031000F8EE677A08B517EE901A00F0EDFD064A80
:1003200053681968136819420EBF9268D2681B049B
:10033000136008BD700800209408002081880A48D6
:1003400007EE901AF8EE677A08B517EE901A00F0EB
:10035000D3FD064A53681968136819420EBF9268A4
:10036000D2681B04136008BDCC080020F0080020F0
:100370000138002321FA03F20833202B00F8012F63
:10038000F8D1704743682DE9F0410B7043681B0AB0
:100390004B70C3888B70C379CB700D460A1D044621
:1003A000002160688142A2EB050302F104020FD232
:1003B000E36853F8213002F8043C180A02F8030CF1
:1003C000180C1B0E02F8020C02F8013C0131E8E7A0
:1003D0002269EA542169EA18090A5170618A917008
:1003E000E17CD17004332B44002122699142A3EBBC
:1003F000050603F104030FD2A26952F8212003F885
:10040000042C100A03F8030C100C120E03F8020C53
:1004100003F8012C0131E8E7E369AB55E269AB1958
:10042000120A5A70E28B9A70E27FDA700436002763
:10043000E3699F4214D2636A53F8270005F091FDE7
:1004400080460146A819FFF793FF636A043653F804
:100450002710A819424605F093FA46440137E7E70A
:100460003046BDE8F081F8B50E46037906F8013B49
:10047000054680680F4605F074FD04460146304687
:10048000FFF776FF2246A968781D05F079FA601D0E
:10049000F8BD83882DE9F0410B7083881B0A4B70EF
:1004A000054680680C4605F05CFD07460146A01C29
:1004B000FFF75EFF3A46A968A01D05F061FAE868FB
:1004C00005F04FFD07F10608064601460A3704EB22
:1004D0000800FFF74DFF3246E968E01905F050FAD1
:1004E000286905F03EFD3E4401460746A019043642
:1004F000FFF73EFF3A46A01929693E4405F040FA4D
:100500006B69A35534441A0A62701A0C1B0EA27050
:10051000E370301DBDE8F08110B5002303600139A0
:1005200011F8012F02FA03F4026808332243202B4A
:100530000260F5D110BD37B50C4611F8013B0371CF
:10054000054601A8FFF7E8FF019B621D581D111B1E
:10055000884204D912F8011B02F8021CF7E7234471
:10056000002204341A71AC6003B030BDF0B50B78D2
:1005700083804A7885B043EA022383800C4606468E
:10058000023101A8FFF7C8FF019FA31DBD1D1A1B63
:10059000954204D913F8012B03F8022CF7E7E3196D
:1005A00000225A71631DB360611902A8FFF7B4FFFE
:1005B0002B1D029D07F10A021D442244111B8D428E
:1005C00004D912F8011B02F8021CF7E76119013B7C
:1005D0002344002201F8012C03A8F360FFF79CFFDD
:1005E00003980435284463191A1B904204D913F860
:1005F000012B03F8022CF7E72218013D00232544C4
:1006000002F8013C356193785178D2781B0443EAB3
:100610000123215C0B4343EA02630430736105B09C
:10062000F0BD2DE9F34143680D689D4204460E4636
:1006300004D9A900C06805F039FCE0606560321D8E
:10064000002160688142A2EB060302F1040213D28A
:1006500012F8023C12F8030C1B0443EA002312F8C0
:10066000040C034312F8010C43EA0063E068A36042
:1006700040F821300131E4E7F218F15C95785078C8
:10068000D2782D0445EA00250D431F1D236945EA54
:1006900002659D4204D9A900A06905F007FCA0618C
:1006A0002561F319002122699142A3EB060503F1AC
:1006B000040313D213F8022C13F8030C120442EAB9
:1006C000002213F8040C024313F8010C42EA006202
:1006D000A069626140F821200131E4E77319725D7D
:1006E0009F785978DB783F0447EA0127174347EAA8
:1006F0000367E3699F4205F1040504D9B900606A04
:1007000005F0D4FB6062E7610027B846E3699F42C9
:100710001AD2711901A8FFF7FFFE2B1D019DF218D7
:100720001D44911BA94204D212F8011B02F8021CBD
:10073000F7E77219013B02F8018C626A33442362C5
:1007400042F827300137E1E7284602B0BDE8F081E2
:1007500030B585B00446094B0193002302930393FF
:1007600054F8EC3B01AA1B680A210546984720462D
:1007700003F03EFFC5F8FC0005B030BD146300086F
:100780002DE9F04186B02B4B009300222A4BADF8A7
:1007900004200546029303930493059200F20C543F
:1007A00000F5AE664FF400772368BBB158689A68CD
:1007B000ADF804201A68036802929B689847236882
:1007C000039058680368DB68984721682B68049099
:1007D00005971B6809696A46284698470434B4425D
:1007E000E2D105F2D4564FF400772068C8B14368CF
:1007F000ADF804308368029303689B6898470390C0
:1008000020680368DB6898472B6804902068D3F859
:100810000080036805975B6898476A46014628464A
:10082000C0470434A642E0D1012385F8E83506B07C
:10083000BDE8F0812C63000883650008F0B585B041
:1008400000F1EC051F4B0193044600232846029358
:1008500003930E4603F0CCFED4F8FC203146871AF1
:1008600001A8FFF7E1FC029B4FF47A76B7FBF6F2A2
:100870001344029306FB1272039B134F284607FB97
:100880000232039203F0B4FE029AB0FBF6F3013A8F
:10089000D21A0399C4F800210C4A06FB13030A4438
:1008A00007FB1323C4F8043104F5827104F580704A
:1008B00000F076FB284603F09BFEC4F8F00505B077
:1008C000F0BD00BF1463000840420F0000CA9A3B0D
:1008D00073B5514C514B2046002540F8043B04238E
:1008E0000322022104F1EC068DE828004FF4807306
:1008F00000F04CFC304603F091FE4FF46143C4F825
:10090000E83030464FF4007603F046FE3246294682
:1009100004F58670C4F8FC50C4F80051C4F80451C2
:10092000C4F8085105F051F832462946642604F50A
:10093000437005F04AF83246294604F20C5005F09F
:1009400044F83246294604F5AE6005F03EF8344BD3
:10095000C4F8FC3504F5C26300221A60C4F80056DE
:10096000304AC4F80456C4F80856C4F80C56C4F803
:100970001456C4F81856C4F81C56C4F820562A4910
:10098000C4F8D4552046C4F8D855C4F8DC55C4F88A
:10099000E055C4F8E45584F8E855C4F8EC55C4F8BB
:1009A000F055C4F8F45584F8F85504F0A3F81F4C3A
:1009B0001F48092100F07CFA1C2627211D4800F061
:1009C00077FA32462946204604F0FFFF20461A4CAB
:1009D000052100F00DFD32462946204604F0F5FFC2
:1009E0002046052100F004FD144B154A5A611548B4
:1009F0001549164CD96001229A6118601D829C60CD
:100A0000134BD9609A611349134A18601D825961CA
:100A10009A6002B070BD00BF4C0200208C630008D9
:100A20005C63000894010020C90D0008F008002054
:100A300070080020CC08002094080020B008002096
:100A400009030008A063000874630008B06300088D
:100A50000C0900203D030008B56300082DE9F74F9D
:100A600000F1EC090446484603F0C2FDD4F8F03525
:100A700042F6F822C31A934284BF002384F8E83573
:100A8000D4F8D435054633B1D4F8F43583423CBFAD
:100A90000023C4F8D4350027BA4604F1040B3E46BF
:100AA00004F58678D4F80831E3B9584600F086FAA0
:100AB00018BB94F8E8355BB1D4F8EC3540F6C412B5
:100AC000EB1A934204D92046FFF742FEC4F8EC55D6
:100AD000002F40F0D780BAF1000F14BF6FF0020072
:100AE0000020A7E0484603F083FDD4F80831401BFE
:100AF0009842DAD96FF001009CE0584600F068FA9D
:100B00000028D6DBD4F8E435D4F8D4250344072AEA
:100B1000C4F8E43510D1D4F8E0355A1C2344C4F8A5
:100B2000E02583F80C01D4F8D835013BC4F8D8355A
:100B3000002BB7D108231CE0B2B9FF2807D101234D
:100B4000C4F8D43505F11403C4F8F435AAE74846CF
:100B5000019203F04DFD41F28833401B9842019A07
:100B6000A0D984F8E825C5E7012A0FD1FE2803D1D2
:100B70000223C4F8D43595E794F8E835C4F8D46571
:100B8000002B8FD12046FFF7E3FD8BE7022A09D126
:100B9000C4F8D805C4F8E0650323C4F8D435C4F814
:100BA000E4057FE7032A07D1D4F8D83503EB00200A
:100BB000C4F8D8050423DCE7042A0BD15A42D2B288
:100BC000DBB258BF5342FF2B01D10523D1E7C4F854
:100BD000D46567E7052A03D1C4F8DC050623DCE702
:100BE000062A0BD1D4F8DC3503EB00200723C4F828
:100BF000D435C4F8DC05D4F8D83599E7082A7FF451
:100C000051AF5A42D2B2DBB258BF5342FF2BC4F8A5
:100C1000D4657FF447AFD4F8DC3573B92046FFF7CD
:100C200097FD2046FFF7ACFDC4F8EC55C4F8F0552D
:100C30004FF0FF3003B0BDE8F08F0A2B05D14146DD
:100C40002046FFF7FBFD01272CE7062B08D1414684
:100C500004F2FC50FFF7E5FC012384F8F83521E7A6
:100C60000B2B04D184F8E8654FF0010A1AE7F8333A
:100C700054F8230000283FF415AF036841461B6871
:100C800098470FE76FF00300D4E700001B4C08B54E
:100C9000D4F8E810201D03F027FD002304F26C5265
:100CA000C4F8D435C4F8D835C4F8E035C4F8DC3518
:100CB000114651F8040FC8B903F5AE70104944F855
:100CC000201064334B60002352F8041F91B903F5E0
:100CD000AE710C4A44F8212064335360074C20461F
:100CE000FFF7BCFE012003F003FEF8E70133192BE8
:100CF000DFD1E8E70133192BE6D1EFE74C02002002
:100D0000B00800200C090020F0B5632985B0044626
:100D10000E4603DD90F8E855002D4DD0136804F21F
:100D200013311B6810469847FF2384F80C33FE23C9
:100D3000C0F3072284F80D33C3B284F80E33134492
:100D4000DB4384F8116346F3072684F80F2384F805
:100D5000103384F8126304F2113105220023861D3A
:100D6000B24204DC11F8015B01322B44F8E700F1D8
:100D700008052044DB43B5F5007F80F813330CDC15
:100D800004F543773E460434F31B9D4214DD16F808
:100D9000011B204600F06AFAF6E7094B0193032392
:100DA0008DF80830074B0393236801AA1B680721BD
:100DB000204698474FF0FF35284605B0F0BD00BFEC
:100DC000446300086664000810B5044B044640F80C
:100DD000043B00F08FF9204610BD00BF8C63000873
:100DE000D0B52DED048BD0ED068A044618EE900A9E
:100DF00008EE101A04F0F4F802460B4603F092FFD6
:100E0000064618EE100A0F4604F0EAF80022264BB8
:100E100003F086FF02460B463046394604F034F9AB
:100E200004F044FB07EE900AB1EE689AF4EEC97A3A
:100E3000F1EE10FA08D4F4EEE78AF1EE10FA54BF9E
:100E4000B0EE679AB0EE689A00F074FB19EE100AE3
:100E500004F0C6F812A3D3E9002303F063FF04F003
:100E600025FB0146204602F0C7F900F079FBB5EEFC
:100E7000C08AF1EE10FA0DD4F7EE007AB4EE678A6C
:100E8000F1EE10FAC8BFB0EE678A84ED088ABDECB7
:100E9000048BD0BD9FED058AF7E700BFAFF300805C
:100EA000FA7E6ABC7493583F0000E03F00000000E7
:100EB00038B504460D4600F03DFB2946204602F0B9
:100EC000CFF800F04DFB094BA361094BE36100F043
:100ED00031FB2046074902F073F900F041FB204640
:100EE0004FF07C51FFF77CFF204638BD6F12033A6C
:100EF000000034430AD7A33CD0ED077A90ED067A80
:100F000006EE901A86EEA76A10B50446FFEE007A48
:100F1000F0EE006AE6EE267A2DED028B67EE877A18
:100F2000B1EE478AF4EEC87AF1EE10FA08D4B4EEC6
:100F3000E77AF1EE10FA54BFB0EE678AB0EE478A56
:100F400000F0F8FA18EE100A04F04AF808A3D3E902
:100F5000002303F0E7FE04F0A9FA0146204602F060
:100F60004BF9BDEC028BBDE8104000F0F9BA00BFB0
:100F7000FA7E6ABC7493583F0748084A08B5121AAB
:100F8000002104F022FD03F073FD04F073FC03F074
:100F900076FD03F0B1FD00BF30020020882800205C
:100FA00030B502680D68044CB5FBF4F31A4404FB39
:100FB000135302600B6030BD00CA9A3BD0F8C020CA
:100FC000D0F8C400101A18BF0120704701207047E4
:100FD00010B5D0F8C420D0F8BC100346501CC3F89C
:100FE000C400885CD3F8C820D3F8C440013AB4FBED
:100FF000F2F102FB1142C3F8C42010BD034610B148
:1010000007C983E807007047704742688168036832
:1010100012F0010F4FEA62021CBF8858C3588818AB
:101020001847C36810B504460BB19B689847204623
:1010300010BD30B5044685B000F14C05284602F0DD
:1010400061FB30B3D4F8D020D4F8D4309A4216D013
:10105000D4F8D430D4F8CC20591CC4F8D410D15CC6
:10106000D4F8D830D4F8D400013BB0FBF3F203FB42
:101070001203C4F8D430284602F04EFBDEE700230A
:10108000204601226946039303F0AAFB6846FFF756
:10109000C8FF05B030BDC36810B504460BB19B68EE
:1010A0009847204610BD000070B506460B4B46F829
:1010B000983B044646B100F1B805B54204D0103D56
:1010C0002846FFF7AEFFF8E704F13800FFF7E3FF2B
:1010D00004F12800FFF7DFFF204670BDC469000857
:1010E00010B50446FFF7E0FF204603F021FD20463F
:1010F00010BD000030B5134B036085B000252A46B3
:1011000069460446039503F06BFB6846FFF789FFC9
:10111000012269462046039503F062FB6846FFF70B
:1011200080FF04F1CC0000F023F904F1BC0000F0D2
:101130001FF9054B23602046FFF7B6FF204605B098
:1011400030BD00BF8C650008AC69000810B50446CE
:10115000FFF7D0FF204603F0EBFC204610BD000057
:1011600010B586B08DE80C00019B029203930491A8
:10117000054B9DF82020059302A903F031FB02A83E
:10118000FFF74FFF06B010BD006500087FB50446AD
:101190001D464FF41653089E03F068FA20460F4B85
:1011A00040F8BC3B294600F0F2F806FB05F104F1DB
:1011B000CC0000F0ECF80A4B029300230393009359
:1011C00004AB204613E90C002146FFF7C9FF204677
:1011D000C4F8DC50C4F8E06004B070BD8C65000851
:1011E0004B12000870B5044686B04C3002F08AFA03
:1011F000C0B102AD0122294600262046059603F023
:10120000EFFA2846FFF70DFF2046FFF712FF064BC7
:10121000029301230396009395E80C002146204693
:10122000FFF79EFF06B070BD3310000843680268E8
:1012300010B55C1C4460D154C3684168013BB1FBEC
:10124000F3F203FB1213436010BD38B500F14C05F7
:101250000446284602F03AFA38B1284602F040FA2D
:10126000C1B204F1BC00FFF7E1FF38BD38B5054657
:101270000C46CC30C9B2FFF7D9FF2846FFF7B2FFC2
:10128000204638BD2DE9F04107460C46B1B10D4668
:1012900000F1CC082E4616F8011B21B14046FFF79D
:1012A000C5FF3546F6E70A214046FFF7BFFF2C1B76
:1012B0003846FFF797FF601CBDE8F0810846BDE89F
:1012C000F0812DE9F04107460D4691B1A2B18C188D
:1012D0000E4600F1CC08B44205D016F8011B40467A
:1012E000FFF7A4FFF7E73846FFF77CFF601BBDE878
:1012F000F0810846BDE8F0811046BDE8F0810000AD
:101300000EB42DE9F04185B0D0F8DC2002AFD31D3A
:1013100023F0070307F12404ADEB030D54F8048B0D
:1013200002AE05460021304604F04FFB22464146FE
:1013300030467C6004F036FED5F8DC30834202464D
:101340000CD200905D220848084900F01DF90020E9
:101350000C37BD46BDE8F04103B070473146284622
:10136000FFF7AFFFF4E700BF4A6500080C6500080F
:1013700010B50446006808B103F0D6FB204610BD46
:1013800000214160C2688160006804F01EBB38B56E
:10139000044608460D4603F0BBFBE560206020468E
:1013A000FFF7EEFF204638BD38B504460D4603680A
:1013B0005AB1826813602046012101F0BDFC294624
:1013C0002046BDE8384001F0B3BCC2681B04F1E719
:1013D00070B50E460446154601F08AFC013606D06B
:1013E0002A4620460021BDE87040FFF7DDBF70BDF2
:1013F0000022FFF7EDBF000000487047B865000805
:10140000014800F003B800BFB8650008036870B574
:10141000DB680446984763685A6823681AB99B6872
:10142000BDE8704018475B68156898476368281ADC
:1014300000285A6807DC916859601B68002BEAD0C5
:1014400050689847E7E7236810681B69BDE870405B
:10145000184703685B68184710B5044601300DD182
:1014600010BD9C4209D12046896801F0F1FE20465A
:101470000021BDE8104001F06FBF0C31B1F9003020
:101480005A1CEED10248BDE8104000F07DB800BF04
:1014900023660008884208B508D0431C06D00131F5
:1014A00006D0044800F070F84FF0FF31084608BD40
:1014B0000146FBE7F2650008B1F900305A1C01D182
:1014C00018467047834201D1486870470C31F3E7F2
:1014D000421C10B5044607D0FFF7EEFF431C04463C
:1014E00002D1024800F050F8204610BD0366000803
:1014F000B1F900305A1C01D118467047834201D11E
:10150000886870470C31F3E7421C10B5044607D0D9
:10151000FFF7EEFF431C044602D1024800F034F806
:10152000204610BDD4650008EFF31080C04300F0E2
:101530000100704708B5FFF7F7FF72B6064B1A684F
:1015400022B980F00100054AC0B210701A681A680A
:1015500001321A6008BD00BF3409002030090020A4
:1015600008B5074B1A6852B1FFF7DEFF1A68013A57
:101570001A601B681BB9034B1B7803B962B608BD20
:1015800034090020300900200FB4012008B503F011
:10159000B3FA00B589B0FFF7CDFF052101A8FFF729
:1015A00027FF039B019A1A60962003F0A1F9019B83
:1015B000049A1B041360962003F09AF9F1E701F0F6
:1015C000E4BB000008B5024C23689847FCE700BF65
:1015D0009801002008B50B4800F09CFD0A4B1860EC
:1015E0000A4800F097FD0A4B18600A4800F092FD87
:1015F000094B186004F03EF900210846BDE8084098
:1016000003F03DBA806600086C2000207C6600086C
:10161000400900207866000838090020FFF7D2BF93
:1016200010B5044600F0E4FC21460246BDE8104037
:101630000148FFF7A9BF00BF4066000803F07ABA6F
:101640000B4A0C4B0C4830B41A60C2F1005303F53E
:10165000C033B3F5806F194628BF4FF48061074D42
:10166000074C01605B1A1A442A60236030BC704743
:1016700088280020841D00204409002048090020FB
:10168000801D002000F01AFEFFF7DAFF034800215A
:1016900000F0C8FD00F02EFCFEE700009C010020D9
:1016A000024B4FF0FF31186800F052BD4009002096
:1016B000014B186800F074BD4009002030B5027875
:1016C0008C784368013AD2B213B19D78A54207D213
:1016D000022A4B60416006D803B19960886030BD32
:1016E00018465B68F0E700238B6030BD02784368E2
:1016F000013A59684160022A4FF0000205D809B149
:1017000088605A609A60184670475A60FBE700008C
:10171000034B5A684260002282605860704700BFE5
:1017200060270020104BDA6810B58AB19A8ADC680D
:101730008A420CD3C460D860C468036104B12061DC
:10174000521A92B28282998A8A1A9A8210BD3CB940
:1017500000248A1AC460D86003619A82848210BD12
:10176000A38A1A442346E2E7782700202DE9F041B6
:10177000174DEB6853B1AB8A164FDFF85C80013B25
:10178000AB820026AA8A0AB9EC680CB9BDE8F081E0
:10179000A36833B161685960616809B18B606260A8
:1017A000A66021463846FFF789FFA38AAB8263789B
:1017B000042B01BFD8F80030E28A9B18A3820123D2
:1017C0006370E368EB600BB11D61E6602661D9E7E9
:1017D0007827002060270020F427002083682BB1A1
:1017E00042685A6042685AB193607047054B5A6824
:1017F000904202D142685A6070471346002AF6D1DF
:10180000704700BF6027002010B5846801462CB9DE
:101810004378012B0DD1074C03E0A4682378002BFB
:10182000FBD00846FFF7DAFF2046BDE81040FFF77F
:1018300045BF10BD60270020036910B563B1C268C1
:10184000DA60C2684AB1998A848A21449982136114
:101850000023C3600023036110BD9A82FAE70000F1
:1018600070B4114BDD78EFF31086EFF3108272B68F
:101870009A78954211D901329A701A78541CA5426F
:1018800008BF00241C7006B962B6954207D903EB65
:10189000C20370BC586099607047002EF4D00220DB
:1018A00070BCFFF7BDBE00BFE41F0020054B1B78D6
:1018B00023B9054B4FF080521A607047034B012249
:1018C0001A7070479C19002004ED00E09D1900205B
:1018D00038B51A4B1A4C186801234370FFF718FFEC
:1018E0006578A3783BB917486570FFF7FFFEBDE840
:1018F000384000F0BDBD04EBC503586802789AB9C2
:10190000198900F01BFAE37801359D4208BF0025D4
:10191000EFF31083EFF3108272B6A278013AA2704F
:10192000002BDED162B6DCE7012A03D1996800F012
:1019300093F9E8E701F0A4F8E5E700BFAC27002041
:10194000E41F002060270020084B1A68084B1A602B
:1019500000225A60072243F8042C064A136843F019
:101960007F4313604FF0FF30704700BFA066000850
:1019700014E000E020ED00E07047000008B50B4BDC
:10198000186801234370FFF7C3FE00F00DFA084A00
:10199000136801331360FFF7E9FE00F0F1FC05481E
:1019A000FFF7A4FEBDE8084000F062BDAC270020B0
:1019B000F427002060270020064B1A68136BD26AB8
:1019C000934203D81A68044B9A4202D00120FFF7D1
:1019D00027BE7047AC270020A52E5AE2836A9B08D9
:1019E00004BF224B1B88F0B5056B08BF9B0805EBB5
:1019F0008302540748BF043A4FF0807602E9420060
:101A0000A2F14004A2F14406A2F10C074FF0000E2F
:101A100046F804EFBE42FBD1C66942F8206C416330
:101A20001249C4620968C90017D5112B15D9103B9A
:101A30006FF007015B084B43A3F138010A444FF0F4
:101A4000CC30214691420BD108331C44231F9D42C8
:101A50003CBF4FF0CC3344F8043C054B2B60F0BD49
:101A600041F8040C41F8080DECE700BF8866000857
:101A7000A52E5AE290F82520C36A12B1603319608E
:101A800070472033FBE710B590F82540C36A1CB1BE
:101A9000603383E8060010BD2033FAE7002ABBBF9D
:101AA00022F000420732033222F00702A8BF22F0E0
:101AB000030210B5B4BF10230C2392B1D4188C428A
:101AC0000FD80144034454424160036082602144C2
:101AD0009818814202D300510346F9E700201860AC
:101AE00010BD012010BDEFF3108372B6026803F041
:101AF00001030AB11168016003B962B6104670476C
:101B000081420DD3436899420AD2EFF3108372B633
:101B100002680A60016013F0010003D162B67047E9
:101B20000120704700207047012310390370890895
:101B30000023437083704360038143818381C181AB
:101B40007047000070B5858904461646002D38D0D0
:101B500043891A1D013350F822200A60C2899BB2C2
:101B60009A42438104BF002343814368F3B1437821
:101B7000022B1BD1FFF7BAFD00210546FFF77AFFC4
:101B80002389E9691A1D013344F82210E2899BB2C6
:101B90009A42238108BF0023284608BF2381FFF70C
:101BA0004BFE284600F07EFC002070BDEFF3108055
:101BB000EFF3108372B6013DA5810028F4D162B61F
:101BC00070BD4AB14268094B42B11968FFF776FD12
:101BD0000821304600F08AFC012070BD1B6843607C
:101BE0005A60986001234370F2E700BFAC270020E1
:101BF000C2898089101A704708B5FFF731FEBDE829
:101C00000840FFF753BE838910B504460BB34389E0
:101C1000043350F823300B604378022B04D10021A9
:101C2000FFF71EFEFFF742FEEFF31083EFF3108283
:101C300072B6A289013AA28103B962B66389E289C8
:101C400001339BB29A42638101D100236381042056
:101C500010BD184610BD0000436870B504460E461E
:101C6000002B4BD04578022D20D0032D0AD0012D1A
:101C700061D1FFF73BFD044632461021FFF703FF19
:101C800065700EE00846FFF72EFF0546002852D08B
:101C90002046FFF72BFD29460446FFF7EBFE012304
:101CA00063702046FFF7C8FD214622E0FFF71EFDC6
:101CB00000210546FFF7DEFE2389E9691A1D44F875
:101CC0002210EFF31082EFF3108172B6A189013177
:101CD000A18102B962B6E28901339BB29A422381A3
:101CE00004BF0023238101236B702846FFF7A4FD66
:101CF00029461148BDE87040FFF7E0BC8089E189C2
:101D0000884213D223891A1D44F82260EFF310820F
:101D1000EFF3108572B60130A08102B962B60133CB
:101D20009BB2994208BF0023238170BD0320BDE808
:101D30007040FFF775BC70BD6027002010B5038BA5
:101D400042781943062A04460183438B15D133EAAE
:101D5000010219D121EA030121832046FFF76CFD1E
:101D6000012320466370628B0821FFF78CFE214619
:101D70000648BDE81040FFF7A1BC052A04D111EACE
:101D8000030201D04283E5E710BD00BF60270020B9
:101D9000034B00221A60034A1268DA80704700BFC2
:101DA000982700208466000808B50E4B5A680E4B31
:101DB000196891420D4905D01A60DA880868013A1D
:101DC00002449A8098880A8890420AD100220548E5
:101DD0001A60FFF78BFCBDE8084001460148FFF799
:101DE0006DBC08BD6027002098270020F427002044
:101DF0000B4A136830B5002443B90360816013B106
:101E00009D68691A996044B1206030BD9D68A942FF
:101E1000F3D31C46491B1B68EEE7106030BD00BFC2
:101E2000A8270020C0B1431C11D00C4B984211D8F8
:101E30000B4B1B684FF47A715A1E01FB0020B0FB5C
:101E4000F3F34FF6FE70834206D898B270474FF610
:101E5000FF7070474FF6FE70704700BF00093D00ED
:101E60003C66000838B1830704D10378002B18BF03
:101E70000020704700207047B0B50E4D287800AFA5
:101E8000A8B90D4C236893F8241000F051FB236887
:101E9000DA78FF2A03D1DA6A203282F3098862688D
:101EA0000AB984E80C0000F0FBFC01232B70002031
:101EB000B0BD00BFA5270020AC270020014B18783B
:101EC000704700BFA527002010B5EFF3108434B988
:101ED000EFF305841CB9EFF31484E40702D4034B39
:101EE000187810BDDFF808C000DF10BDA52700205E
:101EF000BD1E000890B589B000AFEFF31083002B32
:101F000037D1EFF30583002B33D1FFF7DDFF28B97D
:101F1000194C246814B1646804B1A047EFF3148429
:101F200004F00304022C18D0032C1CD0012C1ED06A
:101F300007F1200484F30988104C2478E40710D5B5
:101F4000022484F31488BFF34F8FBFF36F8FDFF841
:101F500030C000DF2437BD4690BD084C2478E4072C
:101F6000F5D40324EDE7054C2478E407EFD5FF20F2
:101F7000F0E78220EEE700BF942700206A660008A1
:101F8000791E000870B50B461646024610B90024AB
:101F9000204670BD00680028F9D0B2F90440E51C65
:101FA000ADB2062DF3D8D168C1B11269043444EA48
:101FB000012100F0FBFA0028E9D00A4B0A4A013857
:101FC00053F82040E36A5A63084B1B6843B19B688F
:101FD00033B13146E0789847E063D9E70A46E5E750
:101FE000E663D5E7A81F0020712100089427002090
:101FF00008B500F095FA18B10138024B53F82000EB
:1020000008BD00BFA81F002010B5FFF72BFF044636
:1020100070B1084B1B681BB1DB680BB1C06B9847F4
:10202000E07800F019FBFF280CBF8120002010BDD4
:10203000802010BD9427002008B528B1FFF7F2FEDC
:1020400000F01AFD402008BD08BD000010B5EFF3F8
:10205000108434B9EFF305841CB9DFF80CC000DF3D
:1020600010BD822010BD000039200008830705D173
:1020700038B1436901691B68184670470023194647
:10208000FAE70346FBE7000010B504460846DFF810
:102090000CC000DF84E80300204610BD6D2000085E
:1020A00010B548B1046824B1237823B9204600F064
:1020B0003DFC204610BD002010BD70B510F003049B
:1020C00005460E4611D180B10378032B0DD1084689
:1020D000FFF7A8FE0146284600F0A0FC012806D123
:1020E000002E14BFC120812070BD802070BD20460D
:1020F00070BD820708B50AD148B10378032B06D119
:1021000000F01CFCFF280CBF8120002008BD8020AF
:1021100008BD000070B50546EFF3108494B9EFF3E5
:1021200005867EB9EFF31484E40706D4064C2478C0
:102130001CB9BDE87040FFF7B3BF2846DFF80CC0FC
:1021400000DF70BD002070BDA5270020A120000881
:1021500010B5EFF3108434B9EFF305841CB9DFF840
:102160000CC000DF10BD822010BD0000BB200008A5
:10217000084808B54FF0FF310068FFF7E9FFDFF8C6
:1021800018C000DF0446FFF759FA2046DFF80CC0FC
:1021900000DFFEE7A0270020F11F0008092000084B
:1021A00010B5EFF3108434B9EFF305841CB9DFF8F0
:1021B0000CC000DF10BD822010BD0000F32000081D
:1021C0002DE9F04180460F461646EFF3108404BB1C
:1021D000EFF30583D3B9EFF31483DB0706D40E4B7B
:1021E0001B781BB9BDE8F041FFF7CCBE0B4D4FF09B
:1021F000FF312868FFF7ACFF404639463246DFF82A
:1022000020C000DF04462868FFF7CAFF2046BDE86B
:10221000F0810024FAE700BFA5270020A0270020B6
:10222000851F00080022FFF7CBBF10B5044660B140
:10223000016851B1406848B1037833B9043189006D
:1022400089B2FFF771FC606810BD002010BD00006E
:1022500038B5114C23780BB900F0A8FA0F4B25784C
:102260001B68FF229A708DB929460D48FFF7DDFFE4
:102270000C4B2A46186029460B48FFF783FE0B4B90
:1022800018600B48FFF746FF0A4B186001232370C4
:10229000094B0020187038BDA4270020AC2700206F
:1022A00070660008682000208C6600085C2700200B
:1022B000A4660008A0270020A527002010B5EFF392
:1022C000108474B9EFF305845CB9EFF31484E40768
:1022D00003D4BDE81040FFF7BBBFDFF80CC000DF40
:1022E00010BD822010BD0000512200082DE9FF41E1
:1022F0000C46804618B30378012B25D10846FFF71A
:1023000091FD02A902464046FFF71CFC012811D1AD
:102310000020002C0246034618BF402002990446C4
:102320000D4616461F462046294632463B4604B017
:10233000BDE8F0810020024603461020EEE780242D
:10234000054606460746EEE7002580242E462F4622
:10235000E9E770B50E461446054660B15AB90378F0
:10236000012B08D1FFF744FC38B128463146FFF76E
:1023700043FC204670BD802070BD812070BD0000F0
:10238000F8B5114E34682CB1A368104F013BA3601F
:10239000A26802B1F8BD2568386835602146FFF7AC
:1023A000D8FF10B10420FFF73BF96379012B07D167
:1023B000E1682046FFF71CFD002DEBD02C46E7E737
:1023C00001232371F8E700BFA82700206820002020
:1023D0007FB504461646084601B122B1802323602A
:1023E000204604B070BD0B78012BF7D102A9FFF78E
:1023F0000AFC042808BF102301AD14BF0196019305
:1024000095E8070084E80700EAE7000038B50446CD
:102410001546EFF3108010B9EFF3058028B12A4676
:102420002046FFF7D5FF204638BD08461146DFF8A5
:102430000CC000DF84E80700F5E70000ED2200088B
:102440007FB50A4C21684FF0FF3203A8FFF7DEFF8B
:10245000039B102BF6D1049901A8FFF715FE019BF1
:10246000002BEFD002989847ECE700BF68200020CF
:10247000054B586002234370044B1B681BB11B695A
:102480000BB1C06B18477047AC2700209427002081
:1024900008B50348FFF72AF9BDE80840FFF7E8BF91
:1024A0006027002070B5044618B9BDE87040FFF7FA
:1024B000EFBF0C4EA278306883789A424FF0010546
:1024C00008D9FFF725F933685D702046BDE87040F4
:1024D000FFF7CEBF657021460348BDE87040FFF7A7
:1024E000EDB800BFAC2700206027002038B50D46AE
:1024F000014680B14FF6FF739842074C02D0206826
:10250000FFF710F9236805485D70FFF7EFF8BDE8A5
:102510003840FFF7ADBF38BDAC2700206027002052
:10252000024B186800B1C078704700BFAC2700208C
:1025300010B5A8B9194B1B68997083F82410184876
:1025400043689B788B4201D8002010BD134C216852
:10255000FFF7B4F8236801225A70FFF799FFF3E7F9
:10256000104B1B88984217D801380F4B53F8204066
:1025700094B10A4BA1701B6884F824109C42DED0F1
:102580002046FFF741F96378012BDDD10448FFF7BE
:10259000ADF8FFF787FFD7E7FF2010BDAC2700207D
:1025A000602700206C660008A81F00202DE9F04776
:1025B00011F0FF0F0D468046234816469A4608BF85
:1025C0000135FFF790FA044620B94FF0000948465C
:1025D000BDE8F0871D4B06631B881D4E280AA062CC
:1025E00000218B4201F10109EFD006EB89020F4671
:1025F00052F8042C4946002AF3D1EDB2012384F8A5
:102600000390C4F81CA0C4F838A022706370A570B1
:1026100084F824506260A260E26022612262A28299
:10262000E2822283628384F8252018B90948FFF7E3
:102630005AFA206320464146FFF7D0F9204646F873
:102640002740FFF72FFFC2E7902300206C660008A9
:10265000A81F0020981D00202DE9F84F4D4D18B1FE
:102660002B68DB78984241D12C68DFF83C8100234D
:10267000637002F06CFAE062FFF79EF92B681C6A47
:102680000127A4B92A684449D3784448013B41F85A
:102690002340116BFFF734FA296841480C63FFF7B8
:1026A0002FFA2C60FFF7F4FE2046BDE8F88F636830
:1026B000B3B12046FFF71AF800210646FFF7DAF912
:1026C0003046FFF7B9F8777031464046FEF7F6FF1F
:1026D000E368326A6780A660E26034621C46D0E735
:1026E000E2686380A360E3601446CAE72D4B1B8851
:1026F00098424DD8284B471E994653F82760002E24
:1027000046D03046FFF76AF83046FFF795F8DFF815
:1027100098B0346A4FF0010AB4B9316B1F4849F8D8
:102720002740FFF7EDF9314634631D48FFF7E8F91C
:102730001D48296843689A788B789A42B4D9012356
:102740004B70FEF7BBFFADE76368DBB12046FEF7D9
:10275000CDFF00218046FFF78DF94046FFF76CF86A
:1027600088F801A041465846FEF7A8FFE368D8F86C
:102770002020A4F802A0C4F80880E260C8F8204035
:102780001C46C9E7E2686380A360E3601446C3E7C0
:10279000FF2489E7AC270020A81F0020981D0020F7
:1027A000902300206C6600086027002038B52C4B71
:1027B0002C491A880023184693424DD32A4B2B48A4
:1027C00019882B4C4022FFF769F92A4B2A481A88AE
:1027D0002A4B42F000421968FFF760F9284B19882C
:1027E000284B08221868FFF759F9FF230025E370EA
:1027F0002148A562012363702570A57084F82450D8
:102800006560A560E56025612562A582E582258376
:10281000658384F82550FFF766F91B49206320463D
:10282000FFF7DCF8194B04221A705D60184B1A7020
:10283000DD601D619D82174B20461C600223637082
:10284000FFF716FE144A154B12781D705D70DA7092
:10285000BDE83840FFF79CBA41F823000133ABE7ED
:102860006C660008A81F002038660008902300202E
:10287000B427002088660008981D002034660008F0
:102880003A6600083C0900201D1600086027002059
:1028900078270020AC27002069660008E41F00208C
:1028A00008B51E4B1A6842F47F021A601B681B02AF
:1028B00003F07F43DB43B3FA83F3194A19481268E4
:1028C0000168DBB2C3F10803C2F30222934298BF4E
:1028D000531C6FF0807202FA03F303F07F4321F080
:1028E0007F4213430360FFF72FF80F4B0028186057
:1028F00012DB00F1604000F56440FF2202701A68AC
:1029000053099B0003F1604303F5614302F01F028A
:10291000012101FA02F21A6008BD00BF20ED00E0BB
:102920000CED00E01CED00E0902700200323037075
:102930000023438043608360C36070472DE9F84300
:1029400043880546002B63D0324F81683A68914234
:102950005ED1013B9BB243801BB100242046BDE801
:10296000F8830B6A984229D1C3680B6291F824302E
:102970000C6A5CBB8B706A68DFF89C80002A3BD0D5
:102980002846FEF7B3FE21460646FFF773F83046A9
:10299000FEF752FF336AEB604FF001093968D8F84F
:1029A0000430A5F80290AE6035628A789B789A422E
:1029B00014D33046FFF776FDD0E71346002BD5D071
:1029C000DA689542F9D1EA68DA60CFE762681AB14D
:1029D0009278934238BF1346E468CAE74046FEF750
:1029E0006DFE31464046FEF769FE3B6883F8019074
:1029F00086F801902046DDE7D8F8042092789A42C4
:102A0000ABD94046FEF75AFE3B6801225A70F1E707
:102A1000FF24A3E7AC27002060270020438870B57F
:102A200004460E46134D43B92A688260116AC1609C
:102A3000106201336380002070BD80682A68904274
:102A4000F7D081B1937882789A4202D28370FEF7F0
:102A5000DBFE62684AB129682046FEF72FFE092195
:102A60003046FFF743FD012070BD2B6863605A605C
:102A70009C60F4E7AC2700200321FFF737BD00007E
:102A8000426810B57AB1FEF731FE0446FEF7D4FE77
:102A9000012161702046FEF7EDFF21460448BDE8A4
:102AA0001040FEF70BBE42880132428010BD00BFCD
:102AB0006027002070B5134C23681A69950707D565
:102AC000DA68900704D56FF002021A61FEF798FCED
:102AD00023681A69510713D5DA68520710D56FF0C9
:102AE0000402094E1A615D6A3368EB1AB3F57A7F06
:102AF00006D301F043FD236805F57A729A633560C9
:102B000070BD00BFF8270020B019002030B589B093
:102B100001A903A801F0FAFC01F0C8FC002302930C
:102B2000244B01901A6C244C42F008021A641A6C6F
:102B300002F008020292029A1A6A42F008021A622D
:102B40001A6A22F008021A62069AA3F50B33236070
:102B50004FF0FF33E360194B4ABBB0FBF3F0013891
:102B60000025606014482561A560656100F0E0FF04
:102B70001349322000F0FAFE124B0F484FF4802226
:102B80005A60294601F0B8F804210B4801F0B4F866
:102B900023680D4A596A1160126802F57A729A63C5
:102BA000DA68284642F00402DA6009B030BD40001D
:102BB000D3E700BF00380240F827002040420F0052
:102BC000B52A000800E100E0B0190020034B044AD8
:102BD0001360DA6822F00402DA607047000C0040EB
:102BE000F8270020034B044A1360DA6842F004021D
:102BF000DA607047000C0040F82700207FB5002302
:102C0000072855D8DFE800F00413202D3A54544724
:102C100000932A4B2A481A6B42F001021A631B6B7D
:102C200003F001030093009B07B05DF804FB0193E0
:102C3000224B24481A6B42F002021A631B6B03F00A
:102C400002030193019BEFE702931C4B1E481A6B92
:102C500042F004021A631B6B03F004030293029B0D
:102C6000E2E70393154B19481A6B42F008021A6306
:102C70001B6B03F008030393039BD5E704930F4BEF
:102C800013481A6B42F010021A631B6B03F0100317
:102C90000493049BC8E70593084B0E481A6B42F057
:102CA00080021A631B6B03F080030593059BBBE74F
:102CB0000948FEF769FC0020B6E700BF0038024073
:102CC000000002400004024000080240000C0240E4
:102CD00000100240001C0240A866000810B5002148
:102CE000044604F00F0400F0B3FA0120A04010BD28
:102CF00070B504464B1C0E46218216D0C1F303105A
:102D0000FFF77CFF05463046FFF7E8FF238A074AB6
:102D1000656103F00F03206052F82330A36105F1D1
:102D2000100318356360A560E56070BDF8660008A3
:102D3000B0F9100000F010BB10B58369446971B997
:102D4000216893FAA3F2B2FA82F20320520000FA49
:102D500002F221EA020293FAA3F3226010BD226874
:102D600093FAA3F1B1FA81F193FAA3F30320490096
:102D700000FA01F1B3FA83F322EA01025B000121B8
:102D800001FA03F31343236010BD08B5FFF71EFFDC
:102D90000121002001F01AF9BDE80840FFF722BF29
:102DA000054B186830B901221A60044B044A1A60B6
:102DB000FFF7ACBE704700BFB4190020F827002011
:102DC000000C004008B5044B1B680BB9FFF7E8FF87
:102DD000024B586A08BD00BFB4190020000C004027
:102DE000044B054A13605863DA6842F00202DA6065
:102DF000704700BF000C0040F8270020034B044A36
:102E00001360DA6822F00202DA607047000C0040BA
:102E1000F8270020034A044B13606FF002021A6186
:102E2000704700BFF8270020000C004030B507EEC7
:102E3000101A284B02681A60B5EEC07AF1EE10FA4B
:102E400089B0054628D4F7EE007AB4EE677AF1EE41
:102E500010FAC8BFB0EE677AD5ED037AF8EE677A5C
:102E6000602267EE877A0192FCEEE77AAA68C5EDE8
:102E7000047A17EE903AB3FBF2F302930023039324
:102E800005930693049307932B7D013B032B16D8E0
:102E9000DFE803F01B0517199FED0F7ADCE7042428
:102EA000224601A90B4800F0A3FE10B10B48FEF723
:102EB0006BFB6B7D074821464BB100F02BFF09B03F
:102EC00030BD0824ECE70C24EAE70024E8E700F032
:102ED000FDFEF4E7B819002000000000DE660008DF
:102EE000C368ABB107EE903AD0ED046AB8EE677AEA
:102EF000F8EE666AC6EE877AB7EE007AF4EE477AA5
:102F0000F1EE10FAC8BFF0EE477A17EE900A70475C
:102F1000DFED017AF9E700BF000000002DE9F0477E
:102F20004A4C0268226086B000230E460093054694
:102F3000FFF7D6FF116A41F211131942074608D173
:102F4000116A40F24443194202BF136823F001039F
:102F50001360694601A801F0D9FA3D4829680023A9
:102F600080465FFA83F9013350F839208A42F8D15C
:102F700011B93848FEF708FB08EBC90898F8043087
:102F800053BB01F093FA0090049800990123AB60C1
:102F9000314B30BBB1FBF3F3013B636006F1FF3C07
:102FA0002D4B6268B1FBF3FE4FEA41080021B8FBEC
:102FB000F3F8C4F80CC063468A464FF6FE79B3F5C1
:102FC000803F12D2B2F5803F0FD2BAF1000F00D08D
:102FD0006260F1B1E3601CE001F080FA00900598B6
:102FE000D3E74A00B2FBF3F3D6E7AB685B00AB6014
:102FF00030BB0EFB03F2BCFBF3F34B4502F1FF3297
:1030000021D8B2F5803F1ED314486260E360FEF71A
:10301000BBFA00230D482361A36000F0A3FD10B1AB
:103020000E48FEF7B1FAEE6039462846FFF7FEFE7D
:103030002268136843F00103136006B0BDE8F0870F
:1030400008FB03F2D7E701218A46B8E7B819002048
:1030500038670008C966000840420F00DE660008B5
:1030600030B50D46044689B04C492846FEF730FA83
:103070004A4920602846FEF747FAC0F30433484A1D
:1030800023752368C0F34040934260754FF00002FF
:103090001AD10092434A516C41F001015164526CC3
:1030A00002F001020092009A3F4A934229D1002384
:1030B00005933C4B5A6C42F480325A645B6C03F4C7
:1030C00080330593059B58E0B3F1804F0BD10192FB
:1030D000344A116C41F001011164126C02F00102DA
:1030E0000192019AE0E731498B421AD102922D4AAE
:1030F000116C41F002011164126C02F002020292A2
:10310000029A2B4A93421AD100230693254B5A6CFC
:1031100042F400325A645B6C03F400330693069B5E
:103120002BE024498B421AD103921E4A116C41F0C4
:1031300004011164126C02F004020392039A1E4A05
:1031400093421AD100230793164B5A6C42F4802203
:103150005A645B6C03F480230793079B0DE01749C7
:103160008B42A1D10F4B04921A6C42F008021A64F0
:103170001B6C03F008030493049B08492846FEF7E0
:103180006BF90023E36023610123A580A36044F66B
:1031900020612046FFF7C2FE09B030BD98670008E5
:1031A000000001400038024000400140000400409F
:1031B000004401400008004000480140000C00406D
:1031C00007EE101ADFED047A67EE277AFDEEE77A54
:1031D00017EE901AFFF7A2BE0024744907EE901A6A
:1031E000B8EEE77AD0ED037AF8EE677AC7EE276A91
:1031F00016EE901AFFF71ABE07EE101ADFED047AEA
:1032000067EE277AFDEEE77A17EE901AFFF7E6BF32
:103210000024744930B5C36891FAA1F4B4FA84F477
:1032200091FAA1F10325B1FA81F1640005FA04F4E1
:10323000490023EA040302FA01F11943C16030BDD9
:10324000012A02D0022A18BF0022FFF7E3BF0000C4
:103250002DE9F0413F4B00F00F08C0F3031053F885
:1032600028400E4601F00705FFF7C8FC836894FA72
:10327000A4F1B1FA81F194FAA4F20327490007FA04
:1032800001F1B2FA82F223EA01035200022101FAAB
:1032900002F213438D42836028D0BD4241D0012DFC
:1032A0003FD00023026894FAA4F7B7FA87F794FA9C
:1032B000A4F14FF0030EB1FA81F17F000EFA07F787
:1032C000490022EA07028B40013D1343012D0360B0
:1032D00005D8436832074CBF2343A3434360C6F37A
:1032E00001122146BDE8F041FFF7AABFB8F1070F70
:1032F000C6F3032717D9426A230A93FAA3F1B1FA56
:1033000081F193FAA3F34FF00F0EB3FA83F3890020
:103310000EFA01F19B0022EA010207FA03F31343BC
:1033200043622B46BEE7026A94FAA4F3B3FA83F32E
:1033300094FAA4F14FF00F0EB1FA81F19B000EFA4E
:1033400003F3890022EA030207FA01F3134303623D
:10335000E7E700BFF866000838B500F00F02194B28
:10336000C0F3031053F822400D46FFF747FC04FB5F
:1033700004F2016802EB42030B40B3FBF2F3013BA2
:10338000012B05D8EB1E022B436809D82343436069
:10339000032D08D101222146BDE83840FFF750BF78
:1033A00023EA04034360012DF4D0052D01D0022D42
:1033B00001D10222EFE721460022BDE83840FFF7A5
:1033C00029BF00BFF86600084309012200F01F0072
:1033D00002FA00F02033044A42F82300BFF34F8F73
:1033E000BFF36F8F704700BF00E100E042681649ED
:1033F000920110B58B1804688C5082685A60C268BC
:103400009A600269DA6042691A61026A9A6100226E
:10341000DA61DA849A84DA859A85B0F91A20013261
:103420000AD108225A61184600F0A1FD58B1074898
:10343000BDE81040FEF7A8B8B0F9182001320CBF63
:1034400004220C22EEE710BD1C1A00208067000841
:10345000F7B5194E074656F8200000282AD0174C19
:10346000BD0163591A6852060AD5DB68590607D5AB
:10347000134B01211B68984763596FF040021A6093
:1034800063591A6892060CD5DB68980609D50C4B6F
:1034900056F827001B680021984763596FF02002F7
:1034A0001A6063591A68110704D55A69D20744BFD4
:1034B0005B68019303B0F0BDF81900201C1A0020CE
:1034C000F41900200020FFF7C3BF0120FFF7C0BFA1
:1034D0000520FFF7BDBF0000F0B50E4685B00446DD
:1034E000454930461546FDF7F3FF4449074628464F
:1034F000FDF7EEFF01463846FDF7CCFF404B20605C
:1035000098421ED003F5806398425ED0A3F55043E5
:1035100098422BD13B4B1A6A42F400321A621A6A63
:1035200022F400321A62002202921A6C42F4003233
:103530001A641B6C03F400330293029B0123636043
:1035400014E0304B5A6A42F010025A625A6A002163
:1035500022F010025A6201915A6C42F010025A6431
:103560005B6C616003F010030193019B22493046BC
:10357000FDF772FF21492846FDF76EFF721C03D04C
:1035800001213046FFF7E8FE6B1C03D001212846DD
:10359000FFF7E2FE4FF41653A3600023E3602361BC
:1035A00063612362268365832046FFF71FFF22683D
:1035B000154B9A4207D1154B154801221A60214636
:1035C0004C2202F0DDF905B0F0BD0E4B5A6A42F014
:1035D00020025A625A6A22F020025A6200220392A2
:1035E0005A6C42F020025A645B6C03F02003039390
:1035F000039B0523A3E700BF30690008E8680008C3
:10360000001001400038024000440040181A002019
:10361000342800208160FFF7E9BE0000034B1960E9
:103620004168034B43F82120704700BFF419002084
:10363000F819002038B54368012B0D461AD0052B28
:103640001BD0EBB91C4925241C489B01F2B1C25880
:10365000D368C5B943F02003D360204600F086F953
:103660006209012304F0070403FA04F4144B43F83D
:10367000224038BD13492624E6E713494724E3E7EF
:1036800000210C46E0E743F04003E5E7C358DA6861
:1036900035B922F02002DA60DB681A0606D538BD9B
:1036A00022F04002DA60DB689B0604D42046BDE8C5
:1036B0003840FFF789BE38BDC53400081C1A002009
:1036C00000E100E0CB340008D13400084368034A2D
:1036D0009B01D3581868C0F3401070471C1A002093
:1036E000416810B504462046FFF7F0FF0028FAD0E5
:1036F0008901034B5B585868C0F3080010BD00BF38
:103700001C1A00204368034A9B01D3581868C0F371
:10371000C01070471C1A002038B54468054628467A
:10372000FFF7F0FF0028FAD0A401034B1B59C1F3A7
:103730000801596038BD00BF1C1A002008B500F010
:1037400019F8BDE8084000F001BF7FB50F230193D1
:10375000022100234FF4805201A8029103930492A6
:10376000059300F0EDFDB0FA80F0400907B05DF878
:1037700004FB0000174A1849936803F00C03042B5C
:1037800010B50DD0082B0DD0144B0B60114B144A03
:103790009B68C3F30313D25C0B68D3400B6010BD6E
:1037A000104BF2E75468506852686302C2F3881203
:1037B00000F03F004CBF0B4B084BB3FBF0F35343FF
:1037C000044A5268C2F3014201325200B3FBF2F3E1
:1037D000DBE700BF00380240B00100200024F40005
:1037E0007869000800127A0000B58FB01B4B0021E9
:1037F00000911A6C42F080521A641B6C184A03F054
:1038000080530093009B0191136823F4404343F4D9
:1038100000431360136803F440430193019B0123A9
:103820000293B8B90393022308934FF480030993DA
:1038300008230A934FF4A8730B9304230C9302A854
:1038400007230D9300F0D2FB30B9FFF77EFF0FB0D6
:103850005DF804FB0523E5E70020F8E700380240A7
:103860000070004010B58EB000241A4B00941A6C02
:1038700042F080521A641B6C174A03F08053009385
:10388000009B0194136823F4404343F40043136006
:103890001368039403F440430193019B09940323A9
:1038A000029301230593102306930A934FF4A87300
:1038B0000B93042302220C9302A8072308920D9372
:1038C00000F094FB18B9FFF740FF0EB010BD204682
:1038D000FBE700BF003802400070004008B501203F
:1038E000FFF782FF30B9FFF77FFF18B9FFF7BAFF84
:1038F00000B9FEE708BD0000174AD2F8883010B5BD
:1039000043F47003154CC2F888302368002143F05B
:1039100001032360A160236823F0847323F48033C0
:1039200023600F4B6360236823F4802323604FF0F0
:103930000063E16093600B4B0B4A1A6000F006FED7
:10394000FFF7CCFF236A43F008032362236A23F0C6
:103950000803236210BD00BF00ED00E00038024004
:1039600010300024B00100200024F40030B50C4CCD
:10397000A268A468B4F1006F13460CD1131F094C60
:10398000094A53F8045F42F8045FA242F9D1044A9D
:103990004FF000539360103043F8201030BD00BF4B
:1039A00000ED00E090010020FCFFFF1F036A23F000
:1039B00001030362036A70B5446882690D6822F0EE
:1039C00073022A438D6823F002032B430A4DA84259
:1039D0000BD1CD688E6923F008032B434D6924F485
:1039E0004074354323F004032C43446082614A68E9
:1039F0004263036270BD00BF00000140036A23F40C
:103A000080730362036A70B54468C2690D6822F06E
:103A100073022A438D6823F4007343EA05230B4D98
:103A2000A8420DD1CD688E6923F4006343EA0523D3
:103A30004D6924F44054354323F4806344EA05146B
:103A40004460C2614A68C263036270BD0000014005
:103A5000036A23F480530362036A30B54468C26981
:103A60000D6822F4E64242EA05228D6823F40053F1
:103A700043EA0533064DA84202BF4D6924F4804451
:103A800044EA85144460C2614A680264036230BD3E
:103A90000000014070477047224A036890420ED0F0
:103AA000B0F1804F0BD0A2F57C42904207D002F5D6
:103AB0008062904203D002F58062904219D14A6838
:103AC00023F070031343174A904204D1CA6823F4C9
:103AD0004073134318E0B0F1804FF7D0124A904280
:103AE000F4D002F580629042F0D002F580629042FC
:103AF000ECD00E4A9042E9D002F580629042E5D0C7
:103B000002F580629042E1D003608B68C3620B686B
:103B10008362044B984204BF0B6903630123436132
:103B2000704700BF00000140000400400040014019
:103B300010B50446A0B190F8393003F0FF021BB96C
:103B400080F83820FFF7A6FF022384F83930206878
:103B5000211DFFF7A1FF012384F83930002010BD9B
:103B6000012010BD10B50446A0B190F8393003F023
:103B7000FF021BB980F83820FFF78DFF022384F87D
:103B800039302068211DFFF787FF012384F8393081
:103B9000002010BD012010BD036A23F01003036252
:103BA000036A70B5446882690D6822F4E64242EA0D
:103BB00005228D6823F0200343EA05130B4DA8422C
:103BC0000DD1CD688E6923F0800343EA05134D695A
:103BD00024F44064354323F0400344EA8504446000
:103BE00082614A688263036270BD00BF00000140C9
:103BF00038B590F83830012B04464FF0020025D03C
:103C0000012384F8383084F839000C2A18D8DFE80A
:103C100002F0071717171E1717172F17171740004F
:103C20002068FFF7C3FE236809699A6942F0080219
:103C30009A619A6922F004029A619A690A439A6128
:103C40000123002084F8393084F8380038BD20681A
:103C5000FFF7A2FF236809699A6942F400629A613A
:103C60009A6922F480629A619A6942EA0122E6E73F
:103C70002068FFF7C3FE23680969DA6942F0080289
:103C8000DA61DA6922F00402DA61DA690A43DA6198
:103C9000D6E72068FFF7DCFE23680969DA6942F499
:103CA0000062DA61DA6922F48062DA61DA6942EA92
:103CB0000122ECE7036A10B501248C4023EA0403D7
:103CC0000362036A8A401A43026210BD10B50446BB
:103CD00001220068FFF7EEFF2368064A934202BF05
:103CE0005A6C42F400425A641A6842F001021A60A7
:103CF000002010BD00000140FFF7E8BF036A10B5C7
:103D000004248C4023EA04030362036A8A401A43B2
:103D1000026210BD10B5044604220068FFF7EEFFF2
:103D200023685A6C42F400425A641A6842F0010255
:103D30001A60002010BD00002DE9F0470668C26837
:103D40003369C16923F440531343336104468368E4
:103D50000069F2680343606922F41642034322F0CB
:103D60000C020B431343F3607369A26923F440739D
:103D70001343B1F5004F73617A4B7CD19E4203D05F
:103D800003F580639E4244D100F0A8FB192505FB92
:103D900000F360684FF064094000B3FBF0F3B3FB3D
:103DA000F9F34FEA031800F099FB636868435B007E
:103DB000B0FBF3F700F092FB636868435B00B0FB75
:103DC000F3F3B3FBF9F309FB1373DB003233B3FBFB
:103DD000F9F35B0003F4F87700F080FB6268684356
:103DE0005200B0FBF2FA00F079FB636868435B00B5
:103DF000B0FBF3F3B3FBF9F309FB13A3DB0032339E
:103E0000B3FBF9F303F0070343443B44B360BDE85D
:103E1000F08700F04BFB192505FB00F360684FF0BD
:103E200064094000B3FBF0F3B3FBF9F34FEA031866
:103E300000F03CFB636868435B00B0FBF3F700F005
:103E400035FB636868435B00B0FBF3F3B3FBF9F346
:103E500009FB1373DB003233B3FBF9F35B0003F4AC
:103E6000F87700F023FB626868435200B0FBF2FA77
:103E700000F01CFBB9E79E4202D03B4B9E4240D172
:103E800000F02CFB676819254FF0640905FB00F36F
:103E9000BF00B3FBF7F3B3FBF9F31F0100F01EFB08
:103EA000636868439B00B0FBF3F800F017FB63689E
:103EB00068439B00B0FBF3F3B3FBF9F309FB1383F7
:103EC0001B013233B3FBF9F303F0F00800F006FBFB
:103ED000626868439200B0FBF2FA00F0FFFA636890
:103EE00068439B00B0FBF3F3B3FBF9F309FB13A3A7
:103EF0001B013233B3FBF9F303F00F0343EA08036A
:103F000083E700F0D3FA676819254FF0640905FBD1
:103F100000F3BF00B3FBF7F3B3FBF9F31F0100F0AD
:103F2000C5FA636868439B00B0FBF3F800F0BEFA83
:103F3000636868439B00B0FBF3F3B3FBF9F309FB41
:103F400013831B013233B3FBF9F303F0F00800F0E5
:103F5000ADFA626868439200B0FBF2FA00F0A6FA8C
:103F6000BDE700BF0010014000140140704710B5CC
:103F7000044640B390F8393003F0FF021BB980F8D3
:103F80003820FFF7F3FF2268242384F83930D36800
:103F900023F40053D3602046FFF7CEFE23681A694E
:103FA00022F490421A615A6922F02A025A61DA68B0
:103FB00042F40052DA6000202023E06384F83930B4
:103FC00084F83A3010BD012010BD0000064A136984
:103FD000012923F00403136101D130BF704740BFB2
:103FE00020BF20BF704700BF00ED00E00368F7B5B9
:103FF000DD07044638D42368980771D423681E0768
:1040000000F1BD8023685D0728D500230193A84BEC
:10401000A84D1A6C42F080521A641B6C03F0805356
:104020000193019B2B6843F480732B6000F0AEFA80
:1040300006462B68DA0540F1C4809F4B227A1A703D
:10404000A368002B00F0CB8000F0A0FA984D064644
:1040500041F288372B6F9B0740F1BA80A269002A92
:1040600040F0CD80002015E0914B9A6802F00C02E0
:10407000042A07D09A6802F00C02082A0CD15B6867
:10408000590209D58A4B1B689A03B4D56368002B83
:10409000B1D1012003B0F0BD884B22791A7063685A
:1040A0007BB100F073FA824D064641F288372B68E7
:1040B0009B03A0D400F06AFA801BB842F7D9032012
:1040C000E8E700F063FA7A4D064641F288372B683C
:1040D000980390D500F05AFA801BB842F7D9EEE762
:1040E000734B9A6812F00C0F07D09A6802F00C021A
:1040F000082A16D15B68590213D46D4B1A689207CF
:1041000002D5E268012AC4D11868F82292FAA2F214
:10411000B2FA82F122698A4020F0F8010A431A605B
:104120006CE7E268664BDAB101221A6000F02EFA01
:104130005F4D06462B689B070CD52968F82393FA38
:10414000A3F3B3FA83F22369934021F0F8021343F7
:104150002B6053E700F01AFA801B0228EAD9AEE779
:104160001A6000F013FA524D06462B689F077FF540
:1041700045AF00F00BFA801B0228F6D99FE7626971
:10418000504B7AB101221A6000F000FA484D064601
:104190006B6F98073FF536AF00F0F8F9801B0228E7
:1041A000F6D98CE71A6000F0F1F9414D06466B6FC5
:1041B00099077FF527AF00F0E9F9801B0228F6D9AF
:1041C0007DE700F0E3F9801B02287FF632AF76E747
:1041D00000F0DCF9801BB8427FF63CAF6FE700F0DF
:1041E000D5F9334D064641F288372B6F98077FF596
:1041F00035AF00F0CBF9801BB842F6D95FE72C4D04
:10420000AB6803F00C03082B3FF443AF2E4E0023A2
:10421000022A33603ED100F0B9F907462B689901B4
:1042200032D447F6C07797FAA7F74FF44032B7FA7F
:1042300087F792FAA2F24FF07061B2FA82F091FA27
:10424000A1F1226AE3691343626A02FA07F7A26ADC
:104250005208013A82403B431343E26A144CB1FADC
:1042600081F102FA01F10B436B600123336000F02E
:104270008DF9054623689A013FF5F4AE00F086F902
:10428000401B0228F6D91AE700F080F9C01B02286B
:10429000C4D914E700F07AF904462B689B017FF536
:1042A000E1AE00F073F9001B0228F6D907E700BF62
:1042B000003802400070004070380240023802406E
:1042C00000004742800E474260004742194A936807
:1042D00003F00C03042B10B503D0082B03D01648B1
:1042E00010BD164810BD5168536801F03F0113F42A
:1042F000800F47F6C074536894FAA4F0B0FA80F0C7
:1043000003EA040323FA00F314BF0C480A48B0FB85
:10431000F1F05843074B4FF440325B6892FAA2F237
:10432000B2FA82F203F44033D34001335B00B0FBB6
:10433000F3F010BD003802400024F40000127A00AF
:10434000564B1A6802F00F028A422DE9F0410546E9
:104350000E4630D32A68940737D4D0073DD44F4B4C
:104360001A6802F00F029642C0F088802A6851074E
:1043700000F18C80130707D5494A2969936823F413
:10438000604343EAC1039360FFF7A0FF444BF02270
:104390009B6892FAA2F2B2FA82F203F0F003D340E1
:1043A000404AD35CD840404B18600F20FEF7AEFB6C
:1043B0000020BDE8F081CAB21A701B6803F00F0339
:1043C0009942C7D00120BDE8F0813549A8688B68C3
:1043D00023F0F00303438B60BFE76A68304B012A88
:1043E0001ED11B6813F4003FECD02D4CA36823F0C2
:1043F00003031343A36000F0C9F86B68012B074661
:1044000041F2883816D1A36803F00C03042BA6D020
:1044100000F0BCF8C01B4045F5D90320BDE8F08191
:10442000911E01291B6802D813F0007FDCE713F00E
:10443000020FD9E7022B0AD1A36803F00C03082B63
:104440008DD000F0A3F8C01B4045F5D9E5E7032B5C
:104450000FD1A36803F00C030C2B80D000F096F86A
:10446000C01B4045F5D9D8E700F090F8C01B404587
:10447000D3D8A36813F00C0FF6D170E7F2B21A701C
:104480001B6803F00F039E429CD16FE70449E86864
:104490008B6823F4E05303438B606BE7003C0240DE
:1044A0000038024088690008B0010020084B4FF432
:1044B000E0529B6892FAA2F2B2FA82F203F4E0535D
:1044C000D340044AD35C044A1068D840704700BF08
:1044D0000038024088690008B0010020084B4FF402
:1044E00060429B6892FAA2F2B2FA82F203F460434D
:1044F000D340044AD35C044A1068D840704700BFD8
:104500000038024088690008B00100200F230360D2
:104510000B4B9A6802F0030242609A6802F0F002C4
:1045200082609A6802F4E052C2609B68DB0803F480
:10453000E0530361034B1B6803F00F030B607047EC
:1045400000380240003C02407047000008B50A4BAA
:104550001A6842F400721A601A6842F480621A60A3
:104560001A6842F480721A600F20FEF7CFFAFFF744
:10457000EBFF002008BD00BF003C0240024A136868
:1045800001331360704700BF80280020014B18687A
:10459000704700BF8028002010B50446FCF7CAFF12
:1045A00023682BB9E068FCF754FF012360602360A7
:1045B000BDE81040FCF7D4BF38B50546FCF7BAFF9C
:1045C0002C6824B1E868FCF744FF6C68041BFCF716
:1045D000C7FF204638BD38B50546FCF7ABFF284677
:1045E000AC68FFF7E9FF0444FCF7BAFF204638BD8A
:1045F00008B5FFF7F0FF4FF47A7390FBF3F008BDB6
:1046000010B50446FCF796FFE068FCF722FF002394
:104610006060A360BDE81040FCF7A2BF002310B5A6
:104620000360436083600446FCF7E6FEE0602046DA
:10463000FFF7E6FF204610BD0368184708B10B6876
:10464000036070477047884238B504460D460AD06B
:10465000FCF7E7FC3CB1EB681BB15B6829462046E0
:104660009847EB68E360204638BD704710B50446B4
:1046700000F04EF8014B2360204610BDAC690008E5
:1046800010B5034B03600446FCF70EFD204610BD39
:10469000AC69000810B50446FFF7F2FF204600F0B1
:1046A00047FA204610BD70477047704700EB011273
:1046B00002F19800D2F8A4301B68184710B480B1FA
:1046C000146853680CB9DA070BD513F0010F4FEAE1
:1046D00063031CBFC2581459184423465DF8044BA9
:1046E00018475DF8044B704770B50546044655F809
:1046F0004C3B0E461B68984728463146FEF78AFF1A
:104700002368C4F8B86020465B68BDE8704018476D
:104710002DE9F04387B000259146009502460195AA
:10472000044688461F469DE80300274B42F8083B95
:10473000264B82E80300236148F207036361244BA0
:10474000E561A46122626362BFF36F8FBFF34F8F95
:1047500004F14C064C226563656484F8485084F883
:104760004950304601F031F902A9C4F8A450C4F808
:10477000B450C4F8B870174D174F029704F1980061
:104780000595FFF760FF02A8FCF74BFC02A904F1B6
:10479000A80002970595FFF756FF02A8FCF741FC19
:1047A0004A4641463046FEF797FED4F8B8103046E8
:1047B000FEF730FF304622460849FEF72FFF20461D
:1047C00007B0BDE8F08300BFC469000801A090E80D
:1047D000BD46000898690008A7460008AD460008D5
:1047E0002DE9FF410546884655F84C3B1B680446B9
:1047F00016469847FCF79EFED8F80C70300197B12A
:10480000983041462044FFF71EFF012231462846DA
:10481000FEF710FFFCF7A4FE236820465B6898476C
:1048200004B0BDE8F081074B00939830064B03932A
:1048300069462044FFF707FF6846FCF7F2FB3A465B
:10484000E4E700BFA74600089869000838B50446A9
:1048500048B15830A04206D0A0F12C051438FCF71E
:104860001AFC2846F6E7204638BD000070B50E4C0D
:104870002046002528263246294640F8045B01F0F0
:10488000A4F83246294604F13000E56201F09DF8B3
:10489000A5652046E565054A84F860500449BDE8F1
:1048A000704000F027B900BF1C1C002094010020BC
:1048B0004D48000801F0E0B801F03CB901F08EB8B5
:1048C00070B50546FEF77EFA4FF47A7495FBF4F462
:1048D000002C064602DDFCF727FE28B9FEF772FA27
:1048E000801BA842FAD370BD204600F02BF9F5E7F3
:1048F0004FF47A735843FFF7E3BF000008B5084B45
:104900001B685BB9022107480322FEF7E5FD4FF45F
:1049100016510448BDE80840FEF77CBE08BD00BF44
:10492000181A002034280020022810B5044601DCA3
:10493000002010BD00F00AFE09230360033C094B70
:1049400053F82400002243F8242040B103681B6977
:104950009847041EECDA00F0F9FD644204604FF061
:10496000FF3010BD801C0020F8B505460E461446E9
:1049700000F0ECFD0923022D03600FDC124B1B68D5
:104980000BB9FFF7BBFF35463719104EBD4215D0A6
:1049900015F8011B3046FEF7BFFEF7E7033D0C4B51
:1049A00053F8250060B103682246DB68314698471A
:1049B000041E03DA00F0CAFD634203602046F8BD1E
:1049C0004FF0FF34FAE700BF181A00203428002007
:1049D000801C002070B504460D46164600F0B6FD5A
:1049E0000923022C03600BDC0F4B1B680BB9FFF78C
:1049F00085FF0E48FEF774FE01242870204670BD26
:104A0000033C0B4B53F8240058B1036832469B68B3
:104A100029469847041EF1DA00F098FD63420360CE
:104A2000ECE74FF0FF34E9E7181A002034280020A3
:104A3000801C002070B504460D46164600F086FD29
:104A40000923022C03600BDD033C084B53F82400C0
:104A500040B1036832462946DB69BDE8704018471B
:104A6000002070BD4FF0FF3070BD00BF801C0020E3
:104A700008B5FEF763FEFCF705FE08BD704708B5F4
:104A8000FFF7FCFFBDE80840FCF700B90C4A1368CB
:104A900010B51844EFF30881884205D3094B0C2266
:104AA0001A604FF0FF3010BD07490C6824B1074968
:104AB000096821448842F1D21060184610BD00BF39
:104AC000B401002084280020801D0020841D0020C7
:104AD000074C08B523680546986800F0EFFD236889
:104AE000D86800F0EBFD0DB1FCF753FDFEE700BF09
:104AF000B80100200120704708B5FFF7E9FF08B5AD
:104B0000FCF7CEFD08BD08B5FCF7D2FD08BD0000DE
:104B100010B500F0D3FE044610B90248FCF734FD8E
:104B2000204610BDD469000808B100F0CFBE704720
:104B3000FFF7FABF024B1B6803B11847704700BF6D
:104B4000881D0020FDF782BA80F309887047EFF3D3
:104B500009807047684680F309885A480078C00782
:104B600014BF0220032080F314887047DFF858C177
:104B7000EFF305831B0618BF6047EFF31483DB07D1
:104B800008BF604700DF7047DFF840C1EFF30583DF
:104B90001B0618BF6047EFF31483DB0708BF6047AD
:104BA00000DF7047EFF30980816911F8021CE1BB57
:104BB00090E80F1010B5E047BDE81040EFF3098C06
:104BC0008CE80700424B93E80600914208BF70470B
:104BD00041B91EF0100F16D13E49086820F00100BF
:104BE000086010E01EF0100F06BF2CED108A0120A7
:104BF000002081F825002CE9F00FC1F82CC00CB47E
:104C0000FCF7DAFE0CBC1A60D2F82CC0BCE8F00F3E
:104C100092F8250000280EBF6FF0020E6FF0120E02
:104C2000BCEC108A8CF30988704710B52A4A1268C8
:104C3000914209D8294C54F8214090E80F10A04720
:104C4000EFF3098C8CE80F0010BD10B5FCF740FEA7
:104C5000BDE810401E4B93E80600914208BF704724
:104C6000EFF3098C1EF0100F06BF2CED108A012007
:104C7000002081F825002CE9F00FC1F82CC00CB4FD
:104C8000FCF79AFE0CBC1A60D2F82CC0BCE8F00FFE
:104C900092F8250000280EBF6FF0020E6FF0120E82
:104CA000BCEC108A8CF30988704710B5FCF766FEDF
:104CB000FFF7CEBF10B5FCF75FFEFCF75FFEFFF716
:104CC000C7BF00006A660008E71A0008011B000859
:104CD000AC27002034EF00E000000000FCFFFFFFE5
:104CE000DFF820D0002103E0074B5B58435004312C
:104CF0000648074B42189A42F6D3FEF7FDFDFCF733
:104D00003BF9704700800120986A00089401002058
:104D100030020020FEE7000081F0004102E000BF09
:104D200083F0004330B54FEA41044FEA430594EA6B
:104D3000050F08BF90EA020F1FBF54EA000C55EAA6
:104D4000020C7FEA645C7FEA655C00F0E2804FEA77
:104D50005454D4EB5555B8BF6D420CDD2C4480EA59
:104D6000020281EA030382EA000083EA010180EA89
:104D7000020281EA0303362D88BF30BD11F0004FD7
:104D80004FEA01314FF4801C4CEA113102D040420D
:104D900061EB410113F0004F4FEA03334CEA133348
:104DA00002D0524263EB430394EA050F00F0A78060
:104DB000A4F10104D5F1200E0DDB02FA0EFC22FA5B
:104DC00005F2801841F1000103FA0EF2801843FA4F
:104DD00005F359410EE0A5F120050EF1200E012A40
:104DE00003FA0EFC28BF4CF0020C43FA05F3C0187E
:104DF00051EBE37101F0004507D54FF0000EDCF1F7
:104E0000000C7EEB00006EEB0101B1F5801F1BD39F
:104E1000B1F5001F0CD349085FEA30004FEA3C0CA3
:104E200004F101044FEA445212F5800F80F09A8099
:104E3000BCF1004F08BF5FEA500C50F1000041EB9D
:104E4000045141EA050130BD5FEA4C0C404141EBA1
:104E5000010111F4801FA4F10104E9D191F0000FC8
:104E600004BF01460020B1FA81F308BF2033A3F14B
:104E70000B03B3F120020CDA0C3208DD02F1140C42
:104E8000C2F10C0201FA0CF021FA02F10CE002F17D
:104E90001402D8BFC2F1200C01FA02F120FA0CFC76
:104EA000DCBF41EA0C019040E41AA2BF01EB0451BF
:104EB000294330BD6FEA04041F3C1CDA0C340EDCBD
:104EC00004F11404C4F1200220FA04F001FA02F300
:104ED00040EA030021FA04F345EA030130BDC4F1BE
:104EE0000C04C4F1200220FA02F001FA04F340EAB3
:104EF0000300294630BD21FA04F0294630BD94F064
:104F0000000F83F4801306BF81F480110134013D4A
:104F10004EE77FEA645C18BF7FEA655C29D094EABB
:104F2000050F08BF90EA020F05D054EA000C04BF39
:104F30001946104630BD91EA030F1EBF0021002024
:104F400030BD5FEA545C05D14000494128BF41F0C3
:104F5000004130BD14F580043CBF01F5801130BD27
:104F600001F0004545F0FE4141F470014FF00000B2
:104F700030BD7FEA645C1ABF194610467FEA655C63
:104F80001CBF0B46024650EA013406BF52EA033505
:104F900091EA030F41F4002130BD00BF90F0000FF3
:104FA00004BF0021704730B54FF4806404F132042F
:104FB0004FF000054FF0000150E700BF90F0000FE8
:104FC00004BF0021704730B54FF4806404F132040F
:104FD00010F0004548BF40424FF000013EE700BFDF
:104FE00042004FEAE2014FEA31014FEA02701FBF6F
:104FF00012F07F4393F07F4F81F06051704792F041
:10500000000F14BF93F07F4F704730B54FF46074BA
:1050100001F0004521F0004120E700BF50EA010205
:1050200008BF704730B54FF000050AE050EA0102B2
:1050300008BF704730B511F0004502D5404261EB22
:1050400041014FF4806404F132045FEA915C3FF463
:10505000DCAE4FF003025FEADC0C18BF03325FEAFC
:10506000DC0C18BF033202EBDC02C2F1200300FAB1
:1050700003FC20FA02F001FA03FE40EA0E0021FAD6
:1050800002F11444C1E600BF70B54FF0FF0C4CF4C0
:10509000E06C1CEA11541DBF1CEA135594EA0C0F76
:1050A00095EA0C0F00F0DEF82C4481EA030621EAB1
:1050B0004C5123EA4C5350EA013518BF52EA0335EC
:1050C00041F4801143F4801338D0A0FB02CE4FF09E
:1050D0000005E1FB02E506F00042E0FB03E54FF0CE
:1050E0000006E1FB03569CF0000F18BF4EF0010EC6
:1050F000A4F1FF04B6F5007F64F5407404D25FEAC2
:105100004E0E6D4146EB060642EAC62141EA555174
:105110004FEAC52040EA5E504FEACE2EB4F1FD0CB6
:1051200088BFBCF5E06F1ED8BEF1004F08BF5FEA34
:10513000500E50F1000041EB045170BD06F00046E6
:1051400046EA010140EA020081EA0301B4EB5C0493
:10515000C2BFD4EB0C0541EA045170BD41F480118B
:105160004FF0000E013C00F3AB8014F1360FDEBFB0
:10517000002001F0004170BDC4F10004203C35DA8C
:105180000C341BDC04F11404C4F1200500FA05F30F
:1051900020FA04F001FA05F240EA020001F00042B0
:1051A00021F0004110EBD37021FA04F642EB060126
:1051B0005EEA430E08BF20EAD37070BDC4F10C0450
:1051C000C4F1200500FA04F320FA05F001FA04F214
:1051D00040EA020001F0004110EBD37041F1000100
:1051E0005EEA430E08BF20EAD37070BDC4F120050B
:1051F00000FA05F24EEA020E20FA04F301FA05F273
:1052000043EA020321FA04F001F0004121FA04F21A
:1052100020EA020000EBD3705EEA430E08BF20EAEA
:10522000D37070BD94F0000F0FD101F00046400024
:1052300041EB010111F4801F08BF013CF7D041EAA6
:10524000060195F0000F18BF704703F000465200AA
:1052500043EB030313F4801F08BF013DF7D043EA7B
:105260000603704794EA0C0F0CEA135518BF95EA31
:105270000C0F0CD050EA410618BF52EA4306D1D1B8
:1052800081EA030101F000414FF0000070BD50EAD7
:10529000410606BF1046194652EA430619D094EA61
:1052A0000C0F02D150EA013613D195EA0C0F05D14B
:1052B00052EA03361CBF104619460AD181EA03019F
:1052C00001F0004141F0FE4141F470014FF0000057
:1052D00070BD41F0FE4141F4780170BD70B54FF0F2
:1052E000FF0C4CF4E06C1CEA11541DBF1CEA135572
:1052F00094EA0C0F95EA0C0F00F0A7F8A4EB050454
:1053000081EA030E52EA03354FEA013100F088804A
:105310004FEA03334FF0805545EA131343EA126313
:105320004FEA022245EA111545EA10654FEA0026C8
:105330000EF000419D4208BF964244F1FD0404F581
:10534000407402D25B084FEA3202B61A65EB0305DD
:105350005B084FEA32024FF480104FF4002CB6EB9A
:10536000020E75EB030E22BFB61A754640EA0C001A
:105370005B084FEA3202B6EB020E75EB030E22BF5A
:10538000B61A754640EA5C005B084FEA3202B6EB9B
:10539000020E75EB030E22BFB61A754640EA9C005A
:1053A0005B084FEA3202B6EB020E75EB030E22BF2A
:1053B000B61A754640EADC0055EA060E18D04FEAE8
:1053C000051545EA16754FEA06164FEAC30343EA88
:1053D00052734FEAC2025FEA1C1CC0D111F4801F55
:1053E0000BD141EA00014FF000004FF0004CB6E74E
:1053F00011F4801F04BF01430020B4F1FD0C88BFED
:10540000BCF5E06F3FF6AFAEB5EB030C04BFB6EBF7
:10541000020C5FEA500C50F1000041EB045170BDEA
:105420000EF0004E4EEA113114EB5C04C2BFD4EB17
:105430000C0541EA045170BD41F480114FF0000E9B
:10544000013C90E645EA060E8DE60CEA135594EA17
:105450000C0F08BF95EA0C0F3FF43BAF94EA0C0F1A
:105460000AD150EA01347FF434AF95EA0C0F7FF48F
:1054700025AF104619462CE795EA0C0F06D152EAE3
:1054800003353FF4FDAE1046194622E750EA4106C7
:1054900018BF52EA43067FF4C5AE50EA41047FF4D8
:1054A0000DAF52EA43057FF4EBAE12E74FEA41023B
:1054B000B2F1E04324BFB3F5001CDCF1FE5C0DD972
:1054C00001F0004C4FEAC0024CEA5070B2F1004FBC
:1054D00040EB830008BF20F00100704711F0804FBF
:1054E00021D113F13872BCBF01F00040704741F484
:1054F00080114FEA5252C2F11802C2F1200C10FA88
:105500000CF320FA02F018BF40F001004FEAC1236B
:105510004FEAD32303FA0CFC40EA0C0023FA02F30F
:105520004FEA4303CCE77FEA625307D150EA0133E5
:105530001EBF4FF0FE4040F44000704701F00040B5
:1055400040F0FE4040F40000704700BF014B186877
:10555000704700BFB80100208A892DE9F041054657
:1055600010070C465AD44B68002B05DC0B6C002B43
:1055700002DC0020BDE8F081E66A002EF9D00023AD
:1055800012F480522F682B6033D0606DA3895A07C4
:1055900005D56368C01A636B0BB1236CC01A002376
:1055A0000246E66A216A2846B047431CA38906D111
:1055B00029681D294BD82B4ACA40D60747D5002257
:1055C0006260D9042269226004D5421C01D12B6893
:1055D00003B96065616B2F600029CAD004F14403F0
:1055E000994202D02846FFF769F900206063BDE8C0
:1055F000F081216A01232846B047411CC6D12B689F
:10560000002BC3D01D2B01D0162B01D12F60B0E78A
:10561000A38943F04003A381BDE8F0810F69002F07
:10562000A7D093070E6808BF4B690F6018BF00230F
:10563000A6EB07088B60B8F1000F9ADD43463A46A7
:10564000216AA66A2846B047002807DCA38943F0F0
:105650004003A3814FF0FF30BDE8F0810744A8EB81
:105660000008E8E70100402038B50B6905460C4604
:10567000DBB118B183690BB900F072F80C4B9C4296
:1056800009D16C68B4F90C307BB121462846BDE8DD
:105690003840FFF761BF074B9C4201D1AC68F1E78E
:1056A000054B9C4208BFEC68ECE7002038BD00BF0A
:1056B000146A0008346A0008F4690008014620B939
:1056C000044B0549186800F0B7B8044B1868FFF799
:1056D000CBBF00BF546A000869560008B80100201B
:1056E000014900F0A9B800BF69560008002310B5B1
:1056F000044603604360836081814366C281036125
:1057000043618361194608225C3000F05EF9054B65
:105710006362054BA362054BE362054B246223637E
:1057200010BD00BFDD5E0008FF5E0008375F0008A7
:105730005B5F000870B54A1E682555430E4605F1AB
:105740007401FFF7B7F8044640B1002180E8420039
:105750000C30A06005F1680200F037F9204670BDFA
:10576000836910B5044633BB8364C3640365124B7D
:10577000124A1B688262984204BF0123836100F0D1
:105780001FF86060204600F01BF8A060204600F083
:1057900017F80022E06004216068FFF7A7FF0122EC
:1057A0000921A068FFF7A2FF02221221E068FFF79B
:1057B0009DFF0123A36110BD546A0008E156000853
:1057C000F8B51C4B1E68B369074613B93046FFF79E
:1057D000C7FF4836B4687368013B03D5336833B1FB
:1057E0003668F7E7B4F90C506DB16834F4E704217A
:1057F0003846FFF79FFF30600028F1D10C233B6053
:1058000004462046F8BD4FF6FF73E3810123A381D0
:1058100065662560A560656025616561A5610822F2
:10582000294604F15C0000F0D0F86563A563A56427
:10583000E564E6E7546A00082DE9F84380468946A6
:1058400000F14804002614B93046BDE8F883A56885
:105850006768013F01D52468F5E7AB89012B07D9BB
:10586000B5F90E30013303D029464046C8470643F8
:105870006835EEE770B50D4E0D4CA41BA410002545
:10588000A54209D10B4E0C4C00F034FDA41BA41012
:105890000025A54205D170BD56F825309847013541
:1058A000EEE756F8253098470135F2E71C02002054
:1058B0001C0200201C02002028020020024B01468E
:1058C0001868FEF7F7BF00BFB8010020024B014681
:1058D0001868FEF7F3BF00BFB80100200000000009
:1058E00001F0FF01102A2BDB10F0070F08D010F891
:1058F000013B013A8B422DD010F0070F42B3F6D195
:10590000F0B441EA012141EA014122F007047FF0AD
:1059100000070023F0E80256083C85EA010586EA04
:10592000010685FA47F5A3FA87F586FA47F6A5FA40
:1059300087F68EB9EED1F0BC01F0FF0102F007024C
:1059400032B110F8013B013A83EA010313B1F8D1F7
:105950000020704701387047002D06BF35460338D8
:10596000073815F0010F07D1013015F4807F02BF11
:10597000013015F4C03F0130F0BC0138704700BF62
:1059800010B5431E0A44914200D110BD11F8014BDD
:1059900003F8014FF7E7884210B501EB020303D883
:1059A000421E99420CD110BD9842F9D28118D21AE8
:1059B000D34200D110BD13F8014D01F8014DF7E7B6
:1059C00011F8014B02F8014FEBE702440346934202
:1059D00000D1704703F8011BF9E7000038B5054610
:1059E000002945D051F8043C0C1F002BB8BFE41827
:1059F000FFF785F81F4A1368104633B963601460D7
:105A00002846BDE83840FFF77EB8A3420CD921688C
:105A10006218934204BF1A685B68636004BF52183F
:105A200022600460ECE713465A680AB1A242FAD930
:105A300019685818A0420BD12068014458188242B6
:105A40001960DDD1106852685A6001441960D7E7C7
:105A500002D90C232B60D3E7206821188A4204BFA7
:105A600011685268626004BF091821605C60C7E772
:105A700038BD00BF8C1D002070B5CD1C25F003057E
:105A800008350C2D38BF0C25002D064601DBA94238
:105A900003D90C233360002070BDFFF730F8234A90
:105AA0001468214691B9224C23681BB9304600F096
:105AB00005FA20602946304600F000FA431C26D142
:105AC0000C2333603046FFF71EF8E4E70B685B1BDE
:105AD0001AD40B2B0FD90B60CD50CC183046FFF7E2
